{
  "contractName": "CraftDice",
  "abi": [
    {
      "constant": false,
      "inputs": [],
      "name": "renounceOwnership",
      "outputs": [],
      "payable": false,
      "stateMutability": "nonpayable",
      "type": "function"
    },
    {
      "constant": true,
      "inputs": [],
      "name": "team",
      "outputs": [
        {
          "name": "",
          "type": "address"
        }
      ],
      "payable": false,
      "stateMutability": "view",
      "type": "function"
    },
    {
      "constant": true,
      "inputs": [],
      "name": "owner",
      "outputs": [
        {
          "name": "",
          "type": "address"
        }
      ],
      "payable": false,
      "stateMutability": "view",
      "type": "function"
    },
    {
      "constant": true,
      "inputs": [],
      "name": "isOwner",
      "outputs": [
        {
          "name": "",
          "type": "bool"
        }
      ],
      "payable": false,
      "stateMutability": "view",
      "type": "function"
    },
    {
      "constant": true,
      "inputs": [],
      "name": "teamCFT",
      "outputs": [
        {
          "name": "",
          "type": "address"
        }
      ],
      "payable": false,
      "stateMutability": "view",
      "type": "function"
    },
    {
      "constant": false,
      "inputs": [
        {
          "name": "newOwner",
          "type": "address"
        }
      ],
      "name": "transferOwnership",
      "outputs": [],
      "payable": false,
      "stateMutability": "nonpayable",
      "type": "function"
    },
    {
      "constant": true,
      "inputs": [],
      "name": "minerCFTAddr",
      "outputs": [
        {
          "name": "",
          "type": "address"
        }
      ],
      "payable": false,
      "stateMutability": "view",
      "type": "function"
    },
    {
      "inputs": [
        {
          "name": "_craft",
          "type": "address"
        },
        {
          "name": "_minerCFTAddr",
          "type": "address"
        }
      ],
      "payable": false,
      "stateMutability": "nonpayable",
      "type": "constructor"
    },
    {
      "payable": true,
      "stateMutability": "payable",
      "type": "fallback"
    },
    {
      "anonymous": false,
      "inputs": [
        {
          "indexed": true,
          "name": "userAddr",
          "type": "address"
        },
        {
          "indexed": false,
          "name": "betMoney",
          "type": "uint256"
        },
        {
          "indexed": false,
          "name": "bonus",
          "type": "uint256"
        },
        {
          "indexed": false,
          "name": "num",
          "type": "uint256"
        },
        {
          "indexed": false,
          "name": "randNum",
          "type": "uint256"
        },
        {
          "indexed": false,
          "name": "res",
          "type": "bool"
        },
        {
          "indexed": false,
          "name": "timeStamp",
          "type": "uint256"
        }
      ],
      "name": "LogBet",
      "type": "event"
    },
    {
      "anonymous": false,
      "inputs": [
        {
          "indexed": true,
          "name": "userAddr",
          "type": "address"
        },
        {
          "indexed": false,
          "name": "betMoney",
          "type": "uint256"
        },
        {
          "indexed": false,
          "name": "bonus",
          "type": "uint256"
        },
        {
          "indexed": false,
          "name": "num",
          "type": "uint256"
        },
        {
          "indexed": false,
          "name": "randNum",
          "type": "uint256"
        },
        {
          "indexed": false,
          "name": "res",
          "type": "bool"
        },
        {
          "indexed": false,
          "name": "timeStamp",
          "type": "uint256"
        }
      ],
      "name": "LogBetByCFT",
      "type": "event"
    },
    {
      "anonymous": false,
      "inputs": [
        {
          "indexed": true,
          "name": "previousOwner",
          "type": "address"
        },
        {
          "indexed": true,
          "name": "newOwner",
          "type": "address"
        }
      ],
      "name": "OwnershipTransferred",
      "type": "event"
    },
    {
      "constant": false,
      "inputs": [
        {
          "name": "_addr",
          "type": "address"
        }
      ],
      "name": "updateTeamAddr",
      "outputs": [],
      "payable": false,
      "stateMutability": "nonpayable",
      "type": "function"
    },
    {
      "constant": false,
      "inputs": [
        {
          "name": "_addr",
          "type": "address"
        }
      ],
      "name": "updateTeamCFTAddr",
      "outputs": [],
      "payable": false,
      "stateMutability": "nonpayable",
      "type": "function"
    },
    {
      "constant": false,
      "inputs": [
        {
          "name": "_amount",
          "type": "uint256"
        }
      ],
      "name": "transferTRXToTeam",
      "outputs": [],
      "payable": false,
      "stateMutability": "nonpayable",
      "type": "function"
    },
    {
      "constant": false,
      "inputs": [
        {
          "name": "_amount",
          "type": "uint256"
        }
      ],
      "name": "transferCFTToTeam",
      "outputs": [],
      "payable": false,
      "stateMutability": "nonpayable",
      "type": "function"
    },
    {
      "constant": false,
      "inputs": [],
      "name": "destroy",
      "outputs": [],
      "payable": false,
      "stateMutability": "nonpayable",
      "type": "function"
    },
    {
      "constant": false,
      "inputs": [
        {
          "name": "_addr",
          "type": "address"
        }
      ],
      "name": "updateMinerCFTAddr",
      "outputs": [],
      "payable": false,
      "stateMutability": "nonpayable",
      "type": "function"
    },
    {
      "constant": true,
      "inputs": [],
      "name": "curCFTReward",
      "outputs": [
        {
          "name": "",
          "type": "uint256"
        }
      ],
      "payable": false,
      "stateMutability": "view",
      "type": "function"
    },
    {
      "constant": false,
      "inputs": [
        {
          "name": "num",
          "type": "uint256"
        }
      ],
      "name": "bet",
      "outputs": [
        {
          "name": "_randNum",
          "type": "uint256"
        },
        {
          "name": "_res",
          "type": "bool"
        },
        {
          "name": "difficulty",
          "type": "uint256"
        },
        {
          "name": "blockstamp",
          "type": "uint256"
        }
      ],
      "payable": true,
      "stateMutability": "payable",
      "type": "function"
    },
    {
      "constant": false,
      "inputs": [
        {
          "name": "num",
          "type": "uint256"
        },
        {
          "name": "cftAmount",
          "type": "uint256"
        }
      ],
      "name": "betByCFT",
      "outputs": [
        {
          "name": "_randNum",
          "type": "uint256"
        },
        {
          "name": "_res",
          "type": "bool"
        }
      ],
      "payable": false,
      "stateMutability": "nonpayable",
      "type": "function"
    },
    {
      "constant": false,
      "inputs": [],
      "name": "payMoney",
      "outputs": [],
      "payable": true,
      "stateMutability": "payable",
      "type": "function"
    }
  ],
  "bytecode": "0x6080604052610ba06040519081016040528061804161ffff16815260200161603161ffff168152602001614cf461ffff16815260200161402061ffff1681526020016136f761ffff16815260200161301861ffff168152602001612ac061ffff16815260200161267a61ffff1681526020016122fa61ffff16815260200161201061ffff168152602001611d9861ffff168152602001611b7b61ffff1681526020016119a661ffff16815260200161180c61ffff1681526020016116a261ffff16815260200161156061ffff16815260200161144061ffff16815260200161133d61ffff16815260200161125261ffff16815260200161117d61ffff1681526020016110ba61ffff16815260200161100861ffff168152602001610f6461ffff168152602001610ecc61ffff168152602001610e4061ffff168152602001610dbd61ffff168152602001610d4461ffff168152602001610cd361ffff168152602001610c6961ffff168152602001610c0661ffff168152602001610ba861ffff168152602001610b5161ffff168152602001610afe61ffff168152602001610ab061ffff168152602001610a6661ffff168152602001610a2061ffff1681526020016109dd61ffff16815260200161099e61ffff16815260200161096261ffff16815260200161092961ffff1681526020016108f261ffff1681526020016108be61ffff16815260200161088c61ffff16815260200161085d61ffff16815260200161082f61ffff16815260200161080461ffff1681526020016107da61ffff1681526020016107b261ffff16815260200161078b61ffff16815260200161076661ffff16815260200161074261ffff16815260200161072061ffff1681526020016106fe61ffff1681526020016106de61ffff1681526020016106c061ffff1681526020016106a261ffff16815260200161068561ffff16815260200161066961ffff16815260200161064e61ffff16815260200161063461ffff16815260200161061b61ffff16815260200161060361ffff1681526020016105eb61ffff1681526020016105d461ffff1681526020016105be61ffff1681526020016105a861ffff16815260200161059361ffff16815260200161057f61ffff16815260200161056b61ffff16815260200161055861ffff16815260200161054561ffff16815260200161053361ffff16815260200161052161ffff16815260200161051061ffff1681526020016104ff61ffff1681526020016104ee61ffff1681526020016104de61ffff1681526020016104cf61ffff1681526020016104c061ffff1681526020016104b161ffff1681526020016104a261ffff16815260200161049461ffff16815260200161048661ffff16815260200161047961ffff16815260200161046c61ffff16815260200161045f61ffff16815260200161045261ffff16815260200161044661ffff16815260200161043a61ffff16815260200161042e61ffff16815260200161042361ffff16815260200161041761ffff16815260200161040c61ffff16815250600390605d6200047d929190620005ff565b503480156200048b57600080fd5b50604051604080620020de8339810180604052810190808051906020019092919080519060200190929190505050336000806101000a81548173ffffffffffffffffffffffffffffffffffffffff021916908373ffffffffffffffffffffffffffffffffffffffff1602179055506000809054906101000a900473ffffffffffffffffffffffffffffffffffffffff1673ffffffffffffffffffffffffffffffffffffffff16600073ffffffffffffffffffffffffffffffffffffffff167f8be0079c531659141344cd1fd0a4f28419497f9722a3daafe3b4186f6b6457e060405160405180910390a381600260006101000a81548173ffffffffffffffffffffffffffffffffffffffff021916908373ffffffffffffffffffffffffffffffffffffffff16021790555080600160006101000a81548173ffffffffffffffffffffffffffffffffffffffff021916908373ffffffffffffffffffffffffffffffffffffffff160217905550505062000672565b82605d810192821562000637579160200282015b8281111562000636578251829061ffff1690559160200191906001019062000613565b5b5090506200064691906200064a565b5090565b6200066f91905b808211156200066b57600081600090555060010162000651565b5090565b90565b611a5c80620006826000396000f3006080604052600436106100f1576000357c0100000000000000000000000000000000000000000000000000000000900463ffffffff168063115d242d146100f35780631dc1c5e31461014957806331c1a527146101535780636bf24d7514610180578063715018a6146101ab5780637365870b146101c25780637aa758941461020f57806383197ef01461025257806385f2aef2146102695780638da5cb5b146102c05780638f32d59b14610317578063943c831714610346578063ae4d6d081461039d578063f2fde38b146103ca578063f716213a1461040d578063fa5af52714610464578063fb690f50146104a7575b005b3480156100ff57600080fd5b5061012860048036038101908080359060200190929190803590602001909291905050506104ea565b60405180838152602001821515151581526020019250505060405180910390f35b610151610b1a565b005b34801561015f57600080fd5b5061017e60048036038101908080359060200190929190505050610b1c565b005b34801561018c57600080fd5b50610195610b9e565b6040518082815260200191505060405180910390f35b3480156101b757600080fd5b506101c0610d8e565b005b6101e060048036038101908080359060200190929190505050610e60565b604051808581526020018415151515815260200183815260200182815260200194505050505060405180910390f35b34801561021b57600080fd5b50610250600480360381019080803573ffffffffffffffffffffffffffffffffffffffff169060200190929190505050611372565b005b34801561025e57600080fd5b506102676113c9565b005b34801561027557600080fd5b5061027e6115b5565b604051808273ffffffffffffffffffffffffffffffffffffffff1673ffffffffffffffffffffffffffffffffffffffff16815260200191505060405180910390f35b3480156102cc57600080fd5b506102d56115db565b604051808273ffffffffffffffffffffffffffffffffffffffff1673ffffffffffffffffffffffffffffffffffffffff16815260200191505060405180910390f35b34801561032357600080fd5b5061032c611604565b604051808215151515815260200191505060405180910390f35b34801561035257600080fd5b5061035b61165b565b604051808273ffffffffffffffffffffffffffffffffffffffff1673ffffffffffffffffffffffffffffffffffffffff16815260200191505060405180910390f35b3480156103a957600080fd5b506103c860048036038101908080359060200190929190505050611681565b005b3480156103d657600080fd5b5061040b600480360381019080803573ffffffffffffffffffffffffffffffffffffffff1690602001909291905050506117ba565b005b34801561041957600080fd5b506104226117d9565b604051808273ffffffffffffffffffffffffffffffffffffffff1673ffffffffffffffffffffffffffffffffffffffff16815260200191505060405180910390f35b34801561047057600080fd5b506104a5600480360381019080803573ffffffffffffffffffffffffffffffffffffffff1690602001909291905050506117ff565b005b3480156104b357600080fd5b506104e8600480360381019080803573ffffffffffffffffffffffffffffffffffffffff169060200190929190505050611856565b005b60008060008060048610158015610502575060608611155b151561050d57600080fd5b60008511151561051c57600080fd5b6001606460024433604051602001808381526020018273ffffffffffffffffffffffffffffffffffffffff1673ffffffffffffffffffffffffffffffffffffffff166c01000000000000000000000000028152601401925050506040516020818303038152906040526040518082805190602001908083835b6020831015156105ba5780518252602082019150602081019050602083039250610595565b6001836020036101000a0380198251168184511680821785525050505050509050019150506020604051808303816000865af11580156105fe573d6000803e3d6000fd5b5050506040513d602081101561061357600080fd5b81019080805190602001909291905050506001900481151561063157fe5b0601915085821015610945576106776103e8610669600360048a03605d8110151561065857fe5b0154886118ad90919063ffffffff16565b6118eb90919063ffffffff16565b9050600260009054906101000a900473ffffffffffffffffffffffffffffffffffffffff1673ffffffffffffffffffffffffffffffffffffffff16634b23dc19333088856040518563ffffffff167c0100000000000000000000000000000000000000000000000000000000028152600401808573ffffffffffffffffffffffffffffffffffffffff1673ffffffffffffffffffffffffffffffffffffffff1681526020018473ffffffffffffffffffffffffffffffffffffffff1673ffffffffffffffffffffffffffffffffffffffff168152602001838152602001828152602001945050505050602060405180830381600087803b15801561077a57600080fd5b505af115801561078e573d6000803e3d6000fd5b505050506040513d60208110156107a457600080fd5b810190808051906020019092919050505015156107c057600080fd5b600260009054906101000a900473ffffffffffffffffffffffffffffffffffffffff1673ffffffffffffffffffffffffffffffffffffffff1663a9059cbb33836040518363ffffffff167c0100000000000000000000000000000000000000000000000000000000028152600401808373ffffffffffffffffffffffffffffffffffffffff1673ffffffffffffffffffffffffffffffffffffffff16815260200182815260200192505050602060405180830381600087803b15801561088557600080fd5b505af1158015610899573d6000803e3d6000fd5b505050506040513d60208110156108af57600080fd5b8101908080519060200190929190505050503373ffffffffffffffffffffffffffffffffffffffff167fa13226b05cab32723f2a2f34eda90cb3e3c61a42de84e078ce6be9aa677ba414868389866001426040518087815260200186815260200185815260200184815260200183151515158152602001828152602001965050505050505060405180910390a260019250610b0e565b600260009054906101000a900473ffffffffffffffffffffffffffffffffffffffff1673ffffffffffffffffffffffffffffffffffffffff16634b23dc1933308860006040518563ffffffff167c0100000000000000000000000000000000000000000000000000000000028152600401808573ffffffffffffffffffffffffffffffffffffffff1673ffffffffffffffffffffffffffffffffffffffff1681526020018473ffffffffffffffffffffffffffffffffffffffff1673ffffffffffffffffffffffffffffffffffffffff168152602001838152602001828152602001945050505050602060405180830381600087803b158015610a4757600080fd5b505af1158015610a5b573d6000803e3d6000fd5b505050506040513d6020811015610a7157600080fd5b81019080805190602001909291905050501515610a8d57600080fd5b3373ffffffffffffffffffffffffffffffffffffffff167fa13226b05cab32723f2a2f34eda90cb3e3c61a42de84e078ce6be9aa677ba41486600089866000426040518087815260200186815260200185815260200184815260200183151515158152602001828152602001965050505050505060405180910390a2600092505b81935050509250929050565b565b610b24611604565b1515610b2f57600080fd5b606060009054906101000a900473ffffffffffffffffffffffffffffffffffffffff1673ffffffffffffffffffffffffffffffffffffffff166108fc600183029081150290604051600060405180830381858888f19350505050158015610b9a573d6000803e3d6000fd5b5050565b600080610ce8610cd46006600a0a600260009054906101000a900473ffffffffffffffffffffffffffffffffffffffff1673ffffffffffffffffffffffffffffffffffffffff166370a08231600160009054906101000a900473ffffffffffffffffffffffffffffffffffffffff166040518263ffffffff167c0100000000000000000000000000000000000000000000000000000000028152600401808273ffffffffffffffffffffffffffffffffffffffff1673ffffffffffffffffffffffffffffffffffffffff168152602001915050602060405180830381600087803b158015610c8b57600080fd5b505af1158015610c9f573d6000803e3d6000fd5b505050506040513d6020811015610cb557600080fd5b81019080805190602001909291905050506118eb90919063ffffffff16565b64014dc9380061191590919063ffffffff16565b90506323c34600811015610cff57600a9150610d8a565b635f5e1000811015610d17576001600a039150610d8a565b639af8da00811015610d32576002600102600a039150610d8a565b63d693a400811015610d4d576003600102600a039150610d8a565b6401122e6e00811015610d69576004600102600a039150610d8a565b64014dc93800811015610d85576005600102600a039150610d8a565b600091505b5090565b610d96611604565b1515610da157600080fd5b600073ffffffffffffffffffffffffffffffffffffffff166000809054906101000a900473ffffffffffffffffffffffffffffffffffffffff1673ffffffffffffffffffffffffffffffffffffffff167f8be0079c531659141344cd1fd0a4f28419497f9722a3daafe3b4186f6b6457e060405160405180910390a360008060006101000a81548173ffffffffffffffffffffffffffffffffffffffff021916908373ffffffffffffffffffffffffffffffffffffffff160217905550565b600080600080600080600060048810158015610e7d575060608811155b1515610e8857600080fd5b600034111515610e9757600080fd5b449450429350600160646002873388604051602001808481526020018373ffffffffffffffffffffffffffffffffffffffff1673ffffffffffffffffffffffffffffffffffffffff166c0100000000000000000000000002815260140182815260200193505050506040516020818303038152906040526040518082805190602001908083835b602083101515610f435780518252602082019150602081019050602083039250610f1e565b6001836020036101000a0380198251168184511680821785525050505050509050019150506020604051808303816000865af1158015610f87573d6000803e3d6000fd5b5050506040513d6020811015610f9c57600080fd5b810190808051906020019092919050505060019004811515610fba57fe5b06019250610feb600a610fdd34610fcf610b9e565b6118ad90919063ffffffff16565b6118eb90919063ffffffff16565b9150600260009054906101000a900473ffffffffffffffffffffffffffffffffffffffff1673ffffffffffffffffffffffffffffffffffffffff166323b872dd600160009054906101000a900473ffffffffffffffffffffffffffffffffffffffff1633856040518463ffffffff167c0100000000000000000000000000000000000000000000000000000000028152600401808473ffffffffffffffffffffffffffffffffffffffff1673ffffffffffffffffffffffffffffffffffffffff1681526020018373ffffffffffffffffffffffffffffffffffffffff1673ffffffffffffffffffffffffffffffffffffffff1681526020018281526020019350505050602060405180830381600087803b15801561110857600080fd5b505af115801561111c573d6000803e3d6000fd5b505050506040513d602081101561113257600080fd5b810190808051906020019092919050505050878310156112e4576111866103e8611178600360048c03605d8110151561116757fe5b0154346118ad90919063ffffffff16565b6118eb90919063ffffffff16565b90503073ffffffffffffffffffffffffffffffffffffffff163181101515611216576040517f08c379a000000000000000000000000000000000000000000000000000000000815260040180806020018281038252601b8152602001807f47726561746572207468616e20636f6e7472616374206d6f6e6579000000000081525060200191505060405180910390fd5b3373ffffffffffffffffffffffffffffffffffffffff166108fc600183029081150290604051600060405180830381858888f1935050505015801561125f573d6000803e3d6000fd5b503373ffffffffffffffffffffffffffffffffffffffff167f75c54740230726e6e1b215fe348aab04614d991bec221b1c61857004246b0bff34838b876001426040518087815260200186815260200185815260200184815260200183151515158152602001828152602001965050505050505060405180910390a260019550611365565b3373ffffffffffffffffffffffffffffffffffffffff167f75c54740230726e6e1b215fe348aab04614d991bec221b1c61857004246b0bff3460008b876000426040518087815260200186815260200185815260200184815260200183151515158152602001828152602001965050505050505060405180910390a2600095505b8296505050509193509193565b61137a611604565b151561138557600080fd5b80600160006101000a81548173ffffffffffffffffffffffffffffffffffffffff021916908373ffffffffffffffffffffffffffffffffffffffff16021790555050565b6113d1611604565b15156113dc57600080fd5b600260009054906101000a900473ffffffffffffffffffffffffffffffffffffffff1673ffffffffffffffffffffffffffffffffffffffff1663e57513506040518163ffffffff167c0100000000000000000000000000000000000000000000000000000000028152600401600060405180830381600087803b15801561146257600080fd5b505af1158015611476573d6000803e3d6000fd5b5050505061157a600260009054906101000a900473ffffffffffffffffffffffffffffffffffffffff1673ffffffffffffffffffffffffffffffffffffffff166370a08231306040518263ffffffff167c0100000000000000000000000000000000000000000000000000000000028152600401808273ffffffffffffffffffffffffffffffffffffffff1673ffffffffffffffffffffffffffffffffffffffff168152602001915050602060405180830381600087803b15801561153a57600080fd5b505af115801561154e573d6000803e3d6000fd5b505050506040513d602081101561156457600080fd5b8101908080519060200190929190505050611681565b606060009054906101000a900473ffffffffffffffffffffffffffffffffffffffff1673ffffffffffffffffffffffffffffffffffffffff16ff5b606060009054906101000a900473ffffffffffffffffffffffffffffffffffffffff1681565b60008060009054906101000a900473ffffffffffffffffffffffffffffffffffffffff16905090565b60008060009054906101000a900473ffffffffffffffffffffffffffffffffffffffff1673ffffffffffffffffffffffffffffffffffffffff163373ffffffffffffffffffffffffffffffffffffffff1614905090565b606160009054906101000a900473ffffffffffffffffffffffffffffffffffffffff1681565b611689611604565b151561169457600080fd5b600260009054906101000a900473ffffffffffffffffffffffffffffffffffffffff1673ffffffffffffffffffffffffffffffffffffffff1663a9059cbb606160009054906101000a900473ffffffffffffffffffffffffffffffffffffffff16836040518363ffffffff167c0100000000000000000000000000000000000000000000000000000000028152600401808373ffffffffffffffffffffffffffffffffffffffff1673ffffffffffffffffffffffffffffffffffffffff16815260200182815260200192505050602060405180830381600087803b15801561177b57600080fd5b505af115801561178f573d6000803e3d6000fd5b505050506040513d60208110156117a557600080fd5b81019080805190602001909291905050505050565b6117c2611604565b15156117cd57600080fd5b6117d681611936565b50565b600160009054906101000a900473ffffffffffffffffffffffffffffffffffffffff1681565b611807611604565b151561181257600080fd5b80606160006101000a81548173ffffffffffffffffffffffffffffffffffffffff021916908373ffffffffffffffffffffffffffffffffffffffff16021790555050565b61185e611604565b151561186957600080fd5b80606060006101000a81548173ffffffffffffffffffffffffffffffffffffffff021916908373ffffffffffffffffffffffffffffffffffffffff16021790555050565b60008060008414156118c257600091506118e4565b82840290508284828115156118d357fe5b041415156118e057600080fd5b8091505b5092915050565b6000806000831115156118fd57600080fd5b828481151561190857fe5b0490508091505092915050565b60008083831115151561192757600080fd5b82840390508091505092915050565b600073ffffffffffffffffffffffffffffffffffffffff168173ffffffffffffffffffffffffffffffffffffffff161415151561197257600080fd5b8073ffffffffffffffffffffffffffffffffffffffff166000809054906101000a900473ffffffffffffffffffffffffffffffffffffffff1673ffffffffffffffffffffffffffffffffffffffff167f8be0079c531659141344cd1fd0a4f28419497f9722a3daafe3b4186f6b6457e060405160405180910390a3806000806101000a81548173ffffffffffffffffffffffffffffffffffffffff021916908373ffffffffffffffffffffffffffffffffffffffff160217905550505600a165627a7a72305820912e949e31992686d898dcbc4581713d0b3fc8e87bc347fddd7d64eae68270f50029",
  "source": "pragma solidity ^0.4.23;\n\n\nimport \"./openzeppelin-solidity/contracts/ownership/Ownable.sol\";\nimport \"./openzeppelin-solidity/contracts/math/SafeMath.sol\";\nimport \"./openzeppelin-solidity/contracts/token/ERC20/IERC20.sol\";\n\n\ncontract CraftDice is Ownable {\n    using SafeMath for uint256;\n    //挖矿总量\n    uint256 constant CAPMININGTOKEN = 5600000000;\n    uint256 constant MININGREWARD = 10;\n    uint256 constant MININGFALLOFF = 1;\n    uint256 constant DECIMALS = 6;\n\n    address public minerCFTAddr;\n\n    IERC20 craftToken;\n\n    uint256[93] private odds = [32833, 24625, 19700, 16416, 14071, 12312, 10944, 9850, 8954, 8208, 7576, 7035, 6566,\n    6156, 5794, 5472, 5184, 4925, 4690, 4477, 4282, 4104, 3940, 3788, 3648, 3517, 3396, 3283, 3177, 3078, 2984, 2897, 2814, 2736,\n    2662, 2592, 2525, 2462, 2402, 2345, 2290, 2238, 2188, 2141, 2095, 2052, 2010, 1970, 1931, 1894, 1858, 1824, 1790, 1758, 1728,\n    1698, 1669, 1641, 1614, 1588, 1563, 1539, 1515, 1492, 1470, 1448, 1427, 1407, 1387, 1368, 1349, 1331, 1313, 1296, 1279, 1262,\n    1246, 1231, 1216, 1201, 1186, 1172, 1158, 1145, 1132, 1119, 1106, 1094, 1082, 1070, 1059, 1047, 1036];\n\n    address public team;\n    address public teamCFT;\n\n    function updateTeamAddr(address _addr) onlyOwner public {\n        team = _addr;\n    }\n\n    function updateTeamCFTAddr(address _addr) onlyOwner public {\n        teamCFT = _addr;\n    }\n\n    function transferTRXToTeam(uint256 _amount) onlyOwner public {\n        team.transfer(_amount * 1 sun);\n    }\n\n    function transferCFTToTeam(uint256 _amount) onlyOwner public {\n        craftToken.transfer(teamCFT, _amount);\n    }\n\n    function destroy() onlyOwner public {\n        craftToken.renounceContracter();\n        // transferTRXToTeam(address(this).balance);\n        transferCFTToTeam(craftToken.balanceOf(address(this)));\n        selfdestruct(team);\n    }\n\n    constructor (address _craft, address _minerCFTAddr) public {\n        craftToken = IERC20(_craft);\n        minerCFTAddr = _minerCFTAddr;\n    }\n\n    function updateMinerCFTAddr(address _addr) onlyOwner public {\n        minerCFTAddr = _addr;\n    }\n\n    event LogBet(address indexed userAddr, uint256 betMoney, uint256 bonus, uint256 num, uint256 randNum, bool res, uint256 timeStamp);\n\n    event LogBetByCFT(address indexed userAddr, uint256 betMoney, uint256 bonus, uint256 num, uint256 randNum, bool res, uint256 timeStamp);\n\n    function curCFTReward() public view returns (uint256) {\n        uint256 curMiningToken = CAPMININGTOKEN.sub(craftToken.balanceOf(minerCFTAddr).div(10 ** DECIMALS));\n        if (curMiningToken < 600000000) {\n            return MININGREWARD;\n        } else if (curMiningToken < 1600000000) {\n            return MININGREWARD - MININGFALLOFF;\n        } else if (curMiningToken < 2600000000) {\n            return MININGREWARD - MININGFALLOFF * 2;\n        } else if (curMiningToken < 3600000000) {\n            return MININGREWARD - MININGFALLOFF * 3;\n        } else if (curMiningToken < 4600000000) {\n            return MININGREWARD - MININGFALLOFF * 4;\n        } else if (curMiningToken < CAPMININGTOKEN) {\n            return MININGREWARD - MININGFALLOFF * 5;\n        } else {\n            return 0;\n        }\n    }\n\n    function bet(uint256 num) payable public returns (uint256 _randNum, bool _res, uint256 difficulty, uint256 blockstamp){\n        require(num >= 4 && num <= 96);\n        require(msg.value > 0);\n        // rand num\n        difficulty = block.difficulty;\n        blockstamp = block.timestamp;\n        uint256 randNum = uint256(sha256(abi.encodePacked(difficulty, msg.sender, blockstamp))) % 100 + 1;\n        //distributed CFT\n        uint256 cftReward = curCFTReward().mul(msg.value).div(10);\n        craftToken.transferFrom(minerCFTAddr, msg.sender, cftReward);\n        //distributed bonus\n        if (randNum < num) {\n            uint256 bonus = msg.value.mul(odds[num - 4]).div(1000);\n            require(bonus < address(this).balance, \"Greater than contract money\");\n            msg.sender.transfer(bonus * 1 sun);\n            emit LogBet(msg.sender, msg.value, bonus, num, randNum, true, now);\n            _res = true;\n        } else {\n            emit LogBet(msg.sender, msg.value, 0, num, randNum, false, now);\n            _res = false;\n        }\n        _randNum = randNum;\n        return;\n    }\n\n    function betByCFT(uint256 num, uint256 cftAmount) public returns (uint256 _randNum, bool _res){\n        require(num >= 4 && num <= 96);\n        require(cftAmount > 0);\n        // rand num\n        uint256 randNum = uint256(sha256(abi.encodePacked(block.difficulty, msg.sender))) % 100 + 1;\n        //distributed bonus\n        if (randNum < num) {\n            uint256 bonus = cftAmount.mul(odds[num - 4]).div(1000);\n            require(craftToken.transferFromByCraft(msg.sender, address(this), cftAmount, bonus));\n            craftToken.transfer(msg.sender, bonus);\n            emit LogBetByCFT(msg.sender, cftAmount, bonus, num, randNum, true, now);\n            _res = true;\n        } else {\n            require(craftToken.transferFromByCraft(msg.sender, address(this), cftAmount, 0));\n            emit LogBetByCFT(msg.sender, cftAmount, 0, num, randNum, false, now);\n            _res = false;\n        }\n        _randNum = randNum;\n        return;\n    }\n\n    function() payable public {}\n\n    function payMoney() payable public {}\n}",
  "sourcePath": "/Users/yhw/Workspace/rockgame/tronCraft/contracts/CraftDice.sol",
  "compiler": {
    "name": "solc",
    "version": "0.4.24-develop.2018.8.28+commit.3ba0cdec.mod.Emscripten.clang"
  },
  "schemaVersion": "2.0.1",
  "updatedAt": "2018-12-17T06:41:12.715Z"
}