{
  "contractName": "CraftDice",
  "abi": [
    {
      "constant": false,
      "inputs": [],
      "name": "renounceOwnership",
      "outputs": [],
      "payable": false,
      "stateMutability": "nonpayable",
      "type": "function"
    },
    {
      "constant": true,
      "inputs": [],
      "name": "team",
      "outputs": [
        {
          "name": "",
          "type": "address"
        }
      ],
      "payable": false,
      "stateMutability": "view",
      "type": "function"
    },
    {
      "constant": true,
      "inputs": [],
      "name": "owner",
      "outputs": [
        {
          "name": "",
          "type": "address"
        }
      ],
      "payable": false,
      "stateMutability": "view",
      "type": "function"
    },
    {
      "constant": true,
      "inputs": [],
      "name": "isOwner",
      "outputs": [
        {
          "name": "",
          "type": "bool"
        }
      ],
      "payable": false,
      "stateMutability": "view",
      "type": "function"
    },
    {
      "constant": true,
      "inputs": [],
      "name": "teamCFT",
      "outputs": [
        {
          "name": "",
          "type": "address"
        }
      ],
      "payable": false,
      "stateMutability": "view",
      "type": "function"
    },
    {
      "constant": false,
      "inputs": [
        {
          "name": "newOwner",
          "type": "address"
        }
      ],
      "name": "transferOwnership",
      "outputs": [],
      "payable": false,
      "stateMutability": "nonpayable",
      "type": "function"
    },
    {
      "constant": true,
      "inputs": [],
      "name": "minerCFTAddr",
      "outputs": [
        {
          "name": "",
          "type": "address"
        }
      ],
      "payable": false,
      "stateMutability": "view",
      "type": "function"
    },
    {
      "inputs": [
        {
          "name": "_craft",
          "type": "address"
        },
        {
          "name": "_minerCFTAddr",
          "type": "address"
        }
      ],
      "payable": false,
      "stateMutability": "nonpayable",
      "type": "constructor"
    },
    {
      "payable": true,
      "stateMutability": "payable",
      "type": "fallback"
    },
    {
      "anonymous": false,
      "inputs": [
        {
          "indexed": true,
          "name": "userAddr",
          "type": "address"
        },
        {
          "indexed": false,
          "name": "betMoney",
          "type": "uint256"
        },
        {
          "indexed": false,
          "name": "bonus",
          "type": "uint256"
        },
        {
          "indexed": false,
          "name": "num",
          "type": "uint256"
        },
        {
          "indexed": false,
          "name": "randNum",
          "type": "uint256"
        },
        {
          "indexed": false,
          "name": "res",
          "type": "bool"
        },
        {
          "indexed": false,
          "name": "timeStamp",
          "type": "uint256"
        }
      ],
      "name": "LogBet",
      "type": "event"
    },
    {
      "anonymous": false,
      "inputs": [
        {
          "indexed": true,
          "name": "userAddr",
          "type": "address"
        },
        {
          "indexed": false,
          "name": "betMoney",
          "type": "uint256"
        },
        {
          "indexed": false,
          "name": "bonus",
          "type": "uint256"
        },
        {
          "indexed": false,
          "name": "num",
          "type": "uint256"
        },
        {
          "indexed": false,
          "name": "randNum",
          "type": "uint256"
        },
        {
          "indexed": false,
          "name": "res",
          "type": "bool"
        },
        {
          "indexed": false,
          "name": "timeStamp",
          "type": "uint256"
        }
      ],
      "name": "LogBetByCFT",
      "type": "event"
    },
    {
      "anonymous": false,
      "inputs": [
        {
          "indexed": true,
          "name": "previousOwner",
          "type": "address"
        },
        {
          "indexed": true,
          "name": "newOwner",
          "type": "address"
        }
      ],
      "name": "OwnershipTransferred",
      "type": "event"
    },
    {
      "constant": false,
      "inputs": [
        {
          "name": "_addr",
          "type": "address"
        }
      ],
      "name": "updateTeamAddr",
      "outputs": [],
      "payable": false,
      "stateMutability": "nonpayable",
      "type": "function"
    },
    {
      "constant": false,
      "inputs": [
        {
          "name": "_addr",
          "type": "address"
        }
      ],
      "name": "updateTeamCFTAddr",
      "outputs": [],
      "payable": false,
      "stateMutability": "nonpayable",
      "type": "function"
    },
    {
      "constant": false,
      "inputs": [
        {
          "name": "_amount",
          "type": "uint256"
        }
      ],
      "name": "transferTRXToTeam",
      "outputs": [],
      "payable": false,
      "stateMutability": "nonpayable",
      "type": "function"
    },
    {
      "constant": false,
      "inputs": [
        {
          "name": "_amount",
          "type": "uint256"
        }
      ],
      "name": "transferCFTToTeam",
      "outputs": [],
      "payable": false,
      "stateMutability": "nonpayable",
      "type": "function"
    },
    {
      "constant": false,
      "inputs": [],
      "name": "destroy",
      "outputs": [],
      "payable": false,
      "stateMutability": "nonpayable",
      "type": "function"
    },
    {
      "constant": false,
      "inputs": [
        {
          "name": "_addr",
          "type": "address"
        }
      ],
      "name": "updateMinerCFTAddr",
      "outputs": [],
      "payable": false,
      "stateMutability": "nonpayable",
      "type": "function"
    },
    {
      "constant": false,
      "inputs": [
        {
          "name": "num",
          "type": "uint256"
        }
      ],
      "name": "bet",
      "outputs": [
        {
          "name": "_randNum",
          "type": "uint256"
        },
        {
          "name": "_res",
          "type": "bool"
        }
      ],
      "payable": true,
      "stateMutability": "payable",
      "type": "function"
    },
    {
      "constant": true,
      "inputs": [],
      "name": "curCFTReward",
      "outputs": [
        {
          "name": "",
          "type": "uint256"
        }
      ],
      "payable": false,
      "stateMutability": "view",
      "type": "function"
    },
    {
      "constant": false,
      "inputs": [
        {
          "name": "num",
          "type": "uint256"
        },
        {
          "name": "cftAmount",
          "type": "uint256"
        }
      ],
      "name": "betByCFT",
      "outputs": [
        {
          "name": "_randNum",
          "type": "uint256"
        },
        {
          "name": "_res",
          "type": "bool"
        }
      ],
      "payable": false,
      "stateMutability": "nonpayable",
      "type": "function"
    },
    {
      "constant": false,
      "inputs": [],
      "name": "payMoney",
      "outputs": [],
      "payable": true,
      "stateMutability": "payable",
      "type": "function"
    }
  ],
  "bytecode": "0x6080604052610ba06040519081016040528061804161ffff16815260200161603161ffff168152602001614cf461ffff16815260200161402061ffff1681526020016136f761ffff16815260200161301861ffff168152602001612ac061ffff16815260200161267a61ffff1681526020016122fa61ffff16815260200161201061ffff168152602001611d9861ffff168152602001611b7b61ffff1681526020016119a661ffff16815260200161180c61ffff1681526020016116a261ffff16815260200161156061ffff16815260200161144061ffff16815260200161133d61ffff16815260200161125261ffff16815260200161117d61ffff1681526020016110ba61ffff16815260200161100861ffff168152602001610f6461ffff168152602001610ecc61ffff168152602001610e4061ffff168152602001610dbd61ffff168152602001610d4461ffff168152602001610cd361ffff168152602001610c6961ffff168152602001610c0661ffff168152602001610ba861ffff168152602001610b5161ffff168152602001610afe61ffff168152602001610ab061ffff168152602001610a6661ffff168152602001610a2061ffff1681526020016109dd61ffff16815260200161099e61ffff16815260200161096261ffff16815260200161092961ffff1681526020016108f261ffff1681526020016108be61ffff16815260200161088c61ffff16815260200161085d61ffff16815260200161082f61ffff16815260200161080461ffff1681526020016107da61ffff1681526020016107b261ffff16815260200161078b61ffff16815260200161076661ffff16815260200161074261ffff16815260200161072061ffff1681526020016106fe61ffff1681526020016106de61ffff1681526020016106c061ffff1681526020016106a261ffff16815260200161068561ffff16815260200161066961ffff16815260200161064e61ffff16815260200161063461ffff16815260200161061b61ffff16815260200161060361ffff1681526020016105eb61ffff1681526020016105d461ffff1681526020016105be61ffff1681526020016105a861ffff16815260200161059361ffff16815260200161057f61ffff16815260200161056b61ffff16815260200161055861ffff16815260200161054561ffff16815260200161053361ffff16815260200161052161ffff16815260200161051061ffff1681526020016104ff61ffff1681526020016104ee61ffff1681526020016104de61ffff1681526020016104cf61ffff1681526020016104c061ffff1681526020016104b161ffff1681526020016104a261ffff16815260200161049461ffff16815260200161048661ffff16815260200161047961ffff16815260200161046c61ffff16815260200161045f61ffff16815260200161045261ffff16815260200161044661ffff16815260200161043a61ffff16815260200161042e61ffff16815260200161042361ffff16815260200161041761ffff16815260200161040c61ffff16815250600390605d6200047d929190620005ff565b503480156200048b57600080fd5b50604051604080620020bd8339810180604052810190808051906020019092919080519060200190929190505050336000806101000a81548173ffffffffffffffffffffffffffffffffffffffff021916908373ffffffffffffffffffffffffffffffffffffffff1602179055506000809054906101000a900473ffffffffffffffffffffffffffffffffffffffff1673ffffffffffffffffffffffffffffffffffffffff16600073ffffffffffffffffffffffffffffffffffffffff167f8be0079c531659141344cd1fd0a4f28419497f9722a3daafe3b4186f6b6457e060405160405180910390a381600260006101000a81548173ffffffffffffffffffffffffffffffffffffffff021916908373ffffffffffffffffffffffffffffffffffffffff16021790555080600160006101000a81548173ffffffffffffffffffffffffffffffffffffffff021916908373ffffffffffffffffffffffffffffffffffffffff160217905550505062000672565b82605d810192821562000637579160200282015b8281111562000636578251829061ffff1690559160200191906001019062000613565b5b5090506200064691906200064a565b5090565b6200066f91905b808211156200066b57600081600090555060010162000651565b5090565b90565b611a3b80620006826000396000f3006080604052600436106100f1576000357c0100000000000000000000000000000000000000000000000000000000900463ffffffff168063115d242d146100f35780631dc1c5e31461014957806331c1a527146101535780636bf24d7514610180578063715018a6146101ab5780637365870b146101c25780637aa758941461020157806383197ef01461024457806385f2aef21461025b5780638da5cb5b146102b25780638f32d59b14610309578063943c831714610338578063ae4d6d081461038f578063f2fde38b146103bc578063f716213a146103ff578063fa5af52714610456578063fb690f5014610499575b005b3480156100ff57600080fd5b5061012860048036038101908080359060200190929190803590602001909291905050506104dc565b60405180838152602001821515151581526020019250505060405180910390f35b610151610b0c565b005b34801561015f57600080fd5b5061017e60048036038101908080359060200190929190505050610b0e565b005b34801561018c57600080fd5b50610195610b90565b6040518082815260200191505060405180910390f35b3480156101b757600080fd5b506101c0610d80565b005b6101e060048036038101908080359060200190929190505050610e52565b60405180838152602001821515151581526020019250505060405180910390f35b34801561020d57600080fd5b50610242600480360381019080803573ffffffffffffffffffffffffffffffffffffffff169060200190929190505050611351565b005b34801561025057600080fd5b506102596113a8565b005b34801561026757600080fd5b50610270611594565b604051808273ffffffffffffffffffffffffffffffffffffffff1673ffffffffffffffffffffffffffffffffffffffff16815260200191505060405180910390f35b3480156102be57600080fd5b506102c76115ba565b604051808273ffffffffffffffffffffffffffffffffffffffff1673ffffffffffffffffffffffffffffffffffffffff16815260200191505060405180910390f35b34801561031557600080fd5b5061031e6115e3565b604051808215151515815260200191505060405180910390f35b34801561034457600080fd5b5061034d61163a565b604051808273ffffffffffffffffffffffffffffffffffffffff1673ffffffffffffffffffffffffffffffffffffffff16815260200191505060405180910390f35b34801561039b57600080fd5b506103ba60048036038101908080359060200190929190505050611660565b005b3480156103c857600080fd5b506103fd600480360381019080803573ffffffffffffffffffffffffffffffffffffffff169060200190929190505050611799565b005b34801561040b57600080fd5b506104146117b8565b604051808273ffffffffffffffffffffffffffffffffffffffff1673ffffffffffffffffffffffffffffffffffffffff16815260200191505060405180910390f35b34801561046257600080fd5b50610497600480360381019080803573ffffffffffffffffffffffffffffffffffffffff1690602001909291905050506117de565b005b3480156104a557600080fd5b506104da600480360381019080803573ffffffffffffffffffffffffffffffffffffffff169060200190929190505050611835565b005b600080600080600486101580156104f4575060608611155b15156104ff57600080fd5b60008511151561050e57600080fd5b6001606460024433604051602001808381526020018273ffffffffffffffffffffffffffffffffffffffff1673ffffffffffffffffffffffffffffffffffffffff166c01000000000000000000000000028152601401925050506040516020818303038152906040526040518082805190602001908083835b6020831015156105ac5780518252602082019150602081019050602083039250610587565b6001836020036101000a0380198251168184511680821785525050505050509050019150506020604051808303816000865af11580156105f0573d6000803e3d6000fd5b5050506040513d602081101561060557600080fd5b81019080805190602001909291905050506001900481151561062357fe5b0601915085821015610937576106696103e861065b600360048a03605d8110151561064a57fe5b01548861188c90919063ffffffff16565b6118ca90919063ffffffff16565b9050600260009054906101000a900473ffffffffffffffffffffffffffffffffffffffff1673ffffffffffffffffffffffffffffffffffffffff16634b23dc19333088856040518563ffffffff167c0100000000000000000000000000000000000000000000000000000000028152600401808573ffffffffffffffffffffffffffffffffffffffff1673ffffffffffffffffffffffffffffffffffffffff1681526020018473ffffffffffffffffffffffffffffffffffffffff1673ffffffffffffffffffffffffffffffffffffffff168152602001838152602001828152602001945050505050602060405180830381600087803b15801561076c57600080fd5b505af1158015610780573d6000803e3d6000fd5b505050506040513d602081101561079657600080fd5b810190808051906020019092919050505015156107b257600080fd5b600260009054906101000a900473ffffffffffffffffffffffffffffffffffffffff1673ffffffffffffffffffffffffffffffffffffffff1663a9059cbb33836040518363ffffffff167c0100000000000000000000000000000000000000000000000000000000028152600401808373ffffffffffffffffffffffffffffffffffffffff1673ffffffffffffffffffffffffffffffffffffffff16815260200182815260200192505050602060405180830381600087803b15801561087757600080fd5b505af115801561088b573d6000803e3d6000fd5b505050506040513d60208110156108a157600080fd5b8101908080519060200190929190505050503373ffffffffffffffffffffffffffffffffffffffff167fa13226b05cab32723f2a2f34eda90cb3e3c61a42de84e078ce6be9aa677ba414868389866001426040518087815260200186815260200185815260200184815260200183151515158152602001828152602001965050505050505060405180910390a260019250610b00565b600260009054906101000a900473ffffffffffffffffffffffffffffffffffffffff1673ffffffffffffffffffffffffffffffffffffffff16634b23dc1933308860006040518563ffffffff167c0100000000000000000000000000000000000000000000000000000000028152600401808573ffffffffffffffffffffffffffffffffffffffff1673ffffffffffffffffffffffffffffffffffffffff1681526020018473ffffffffffffffffffffffffffffffffffffffff1673ffffffffffffffffffffffffffffffffffffffff168152602001838152602001828152602001945050505050602060405180830381600087803b158015610a3957600080fd5b505af1158015610a4d573d6000803e3d6000fd5b505050506040513d6020811015610a6357600080fd5b81019080805190602001909291905050501515610a7f57600080fd5b3373ffffffffffffffffffffffffffffffffffffffff167fa13226b05cab32723f2a2f34eda90cb3e3c61a42de84e078ce6be9aa677ba41486600089866000426040518087815260200186815260200185815260200184815260200183151515158152602001828152602001965050505050505060405180910390a2600092505b81935050509250929050565b565b610b166115e3565b1515610b2157600080fd5b606060009054906101000a900473ffffffffffffffffffffffffffffffffffffffff1673ffffffffffffffffffffffffffffffffffffffff166108fc600183029081150290604051600060405180830381858888f19350505050158015610b8c573d6000803e3d6000fd5b5050565b600080610cda610cc66006600a0a600260009054906101000a900473ffffffffffffffffffffffffffffffffffffffff1673ffffffffffffffffffffffffffffffffffffffff166370a08231600160009054906101000a900473ffffffffffffffffffffffffffffffffffffffff166040518263ffffffff167c0100000000000000000000000000000000000000000000000000000000028152600401808273ffffffffffffffffffffffffffffffffffffffff1673ffffffffffffffffffffffffffffffffffffffff168152602001915050602060405180830381600087803b158015610c7d57600080fd5b505af1158015610c91573d6000803e3d6000fd5b505050506040513d6020811015610ca757600080fd5b81019080805190602001909291905050506118ca90919063ffffffff16565b64014dc938006118f490919063ffffffff16565b90506323c34600811015610cf157600a9150610d7c565b635f5e1000811015610d09576001600a039150610d7c565b639af8da00811015610d24576002600102600a039150610d7c565b63d693a400811015610d3f576003600102600a039150610d7c565b6401122e6e00811015610d5b576004600102600a039150610d7c565b64014dc93800811015610d77576005600102600a039150610d7c565b600091505b5090565b610d886115e3565b1515610d9357600080fd5b600073ffffffffffffffffffffffffffffffffffffffff166000809054906101000a900473ffffffffffffffffffffffffffffffffffffffff1673ffffffffffffffffffffffffffffffffffffffff167f8be0079c531659141344cd1fd0a4f28419497f9722a3daafe3b4186f6b6457e060405160405180910390a360008060006101000a81548173ffffffffffffffffffffffffffffffffffffffff021916908373ffffffffffffffffffffffffffffffffffffffff160217905550565b600080600080600060048610158015610e6c575060608611155b1515610e7757600080fd5b600034111515610e8657600080fd5b6001606460024433604051602001808381526020018273ffffffffffffffffffffffffffffffffffffffff1673ffffffffffffffffffffffffffffffffffffffff166c01000000000000000000000000028152601401925050506040516020818303038152906040526040518082805190602001908083835b602083101515610f245780518252602082019150602081019050602083039250610eff565b6001836020036101000a0380198251168184511680821785525050505050509050019150506020604051808303816000865af1158015610f68573d6000803e3d6000fd5b5050506040513d6020811015610f7d57600080fd5b810190808051906020019092919050505060019004811515610f9b57fe5b06019250610fcc600a610fbe34610fb0610b90565b61188c90919063ffffffff16565b6118ca90919063ffffffff16565b9150600260009054906101000a900473ffffffffffffffffffffffffffffffffffffffff1673ffffffffffffffffffffffffffffffffffffffff166323b872dd600160009054906101000a900473ffffffffffffffffffffffffffffffffffffffff1633856040518463ffffffff167c0100000000000000000000000000000000000000000000000000000000028152600401808473ffffffffffffffffffffffffffffffffffffffff1673ffffffffffffffffffffffffffffffffffffffff1681526020018373ffffffffffffffffffffffffffffffffffffffff1673ffffffffffffffffffffffffffffffffffffffff1681526020018281526020019350505050602060405180830381600087803b1580156110e957600080fd5b505af11580156110fd573d6000803e3d6000fd5b505050506040513d602081101561111357600080fd5b810190808051906020019092919050505050858310156112c5576111676103e8611159600360048a03605d8110151561114857fe5b01543461188c90919063ffffffff16565b6118ca90919063ffffffff16565b90503073ffffffffffffffffffffffffffffffffffffffff1631811015156111f7576040517f08c379a000000000000000000000000000000000000000000000000000000000815260040180806020018281038252601b8152602001807f47726561746572207468616e20636f6e7472616374206d6f6e6579000000000081525060200191505060405180910390fd5b3373ffffffffffffffffffffffffffffffffffffffff166108fc600183029081150290604051600060405180830381858888f19350505050158015611240573d6000803e3d6000fd5b503373ffffffffffffffffffffffffffffffffffffffff167f75c54740230726e6e1b215fe348aab04614d991bec221b1c61857004246b0bff348389876001426040518087815260200186815260200185815260200184815260200183151515158152602001828152602001965050505050505060405180910390a260019350611346565b3373ffffffffffffffffffffffffffffffffffffffff167f75c54740230726e6e1b215fe348aab04614d991bec221b1c61857004246b0bff34600089876000426040518087815260200186815260200185815260200184815260200183151515158152602001828152602001965050505050505060405180910390a2600093505b829450505050915091565b6113596115e3565b151561136457600080fd5b80600160006101000a81548173ffffffffffffffffffffffffffffffffffffffff021916908373ffffffffffffffffffffffffffffffffffffffff16021790555050565b6113b06115e3565b15156113bb57600080fd5b600260009054906101000a900473ffffffffffffffffffffffffffffffffffffffff1673ffffffffffffffffffffffffffffffffffffffff1663e57513506040518163ffffffff167c0100000000000000000000000000000000000000000000000000000000028152600401600060405180830381600087803b15801561144157600080fd5b505af1158015611455573d6000803e3d6000fd5b50505050611559600260009054906101000a900473ffffffffffffffffffffffffffffffffffffffff1673ffffffffffffffffffffffffffffffffffffffff166370a08231306040518263ffffffff167c0100000000000000000000000000000000000000000000000000000000028152600401808273ffffffffffffffffffffffffffffffffffffffff1673ffffffffffffffffffffffffffffffffffffffff168152602001915050602060405180830381600087803b15801561151957600080fd5b505af115801561152d573d6000803e3d6000fd5b505050506040513d602081101561154357600080fd5b8101908080519060200190929190505050611660565b606060009054906101000a900473ffffffffffffffffffffffffffffffffffffffff1673ffffffffffffffffffffffffffffffffffffffff16ff5b606060009054906101000a900473ffffffffffffffffffffffffffffffffffffffff1681565b60008060009054906101000a900473ffffffffffffffffffffffffffffffffffffffff16905090565b60008060009054906101000a900473ffffffffffffffffffffffffffffffffffffffff1673ffffffffffffffffffffffffffffffffffffffff163373ffffffffffffffffffffffffffffffffffffffff1614905090565b606160009054906101000a900473ffffffffffffffffffffffffffffffffffffffff1681565b6116686115e3565b151561167357600080fd5b600260009054906101000a900473ffffffffffffffffffffffffffffffffffffffff1673ffffffffffffffffffffffffffffffffffffffff1663a9059cbb606160009054906101000a900473ffffffffffffffffffffffffffffffffffffffff16836040518363ffffffff167c0100000000000000000000000000000000000000000000000000000000028152600401808373ffffffffffffffffffffffffffffffffffffffff1673ffffffffffffffffffffffffffffffffffffffff16815260200182815260200192505050602060405180830381600087803b15801561175a57600080fd5b505af115801561176e573d6000803e3d6000fd5b505050506040513d602081101561178457600080fd5b81019080805190602001909291905050505050565b6117a16115e3565b15156117ac57600080fd5b6117b581611915565b50565b600160009054906101000a900473ffffffffffffffffffffffffffffffffffffffff1681565b6117e66115e3565b15156117f157600080fd5b80606160006101000a81548173ffffffffffffffffffffffffffffffffffffffff021916908373ffffffffffffffffffffffffffffffffffffffff16021790555050565b61183d6115e3565b151561184857600080fd5b80606060006101000a81548173ffffffffffffffffffffffffffffffffffffffff021916908373ffffffffffffffffffffffffffffffffffffffff16021790555050565b60008060008414156118a157600091506118c3565b82840290508284828115156118b257fe5b041415156118bf57600080fd5b8091505b5092915050565b6000806000831115156118dc57600080fd5b82848115156118e757fe5b0490508091505092915050565b60008083831115151561190657600080fd5b82840390508091505092915050565b600073ffffffffffffffffffffffffffffffffffffffff168173ffffffffffffffffffffffffffffffffffffffff161415151561195157600080fd5b8073ffffffffffffffffffffffffffffffffffffffff166000809054906101000a900473ffffffffffffffffffffffffffffffffffffffff1673ffffffffffffffffffffffffffffffffffffffff167f8be0079c531659141344cd1fd0a4f28419497f9722a3daafe3b4186f6b6457e060405160405180910390a3806000806101000a81548173ffffffffffffffffffffffffffffffffffffffff021916908373ffffffffffffffffffffffffffffffffffffffff160217905550505600a165627a7a723058208d0283ee0a9b28ba0925d7ed648f381214482869f52fcdbc5224c62663c82a610029",
  "source": "pragma solidity ^0.4.23;\n\n\nimport \"./openzeppelin-solidity/contracts/ownership/Ownable.sol\";\nimport \"./openzeppelin-solidity/contracts/math/SafeMath.sol\";\nimport \"./openzeppelin-solidity/contracts/token/ERC20/IERC20.sol\";\n\n\ncontract CraftDice is Ownable {\n\tusing SafeMath for uint256;\n\n\tuint256 constant CAPMININGTOKEN = 5600000000;\n\tuint256 constant MININGREWARD = 10;\n\tuint256 constant MININGFALLOFF = 1;\n\tuint256 constant DECIMALS = 6;\n\n\taddress public minerCFTAddr;\n\t\n\tIERC20 craftToken;\n\n\tuint256[93] private odds = [32833,24625,19700,16416,14071,12312,10944,9850,8954,8208,7576,7035,6566,\n\t6156,5794,5472,5184,4925,4690,4477,4282,4104,3940,3788,3648,3517,3396,3283,3177,3078,2984,2897,2814,2736,\n\t2662,2592,2525,2462,2402,2345,2290,2238,2188,2141,2095,2052,2010,1970,1931,1894,1858,1824,1790,1758,1728,\n\t1698,1669,1641,1614,1588,1563,1539,1515,1492,1470,1448,1427,1407,1387,1368,1349,1331,1313,1296,1279,1262,\n\t1246,1231,1216,1201,1186,1172,1158,1145,1132,1119,1106,1094,1082,1070,1059,1047,1036];\n\n\taddress public team;\n\taddress public teamCFT;\n\n\tfunction updateTeamAddr(address _addr) onlyOwner public {\n\t\tteam = _addr;\n\t}\n\n\tfunction updateTeamCFTAddr(address _addr) onlyOwner public {\n\t\tteamCFT = _addr;\n\t}\n\n\tfunction transferTRXToTeam(uint256 _amount) onlyOwner public {\n\t\tteam.transfer(_amount * 1 sun);\n\t}\n\n\tfunction transferCFTToTeam(uint256 _amount) onlyOwner public {\n\t\tcraftToken.transfer(teamCFT,_amount);\n\t}\n\n\tfunction destroy() onlyOwner public {\n    \tcraftToken.renounceContracter();\n    \t// transferTRXToTeam(address(this).balance);\n    \ttransferCFTToTeam(craftToken.balanceOf(address(this)));\n    \tselfdestruct(team);\n  \t}\n\n\tconstructor (address _craft,address _minerCFTAddr) public {\n\t\tcraftToken = IERC20(_craft);\n\t\tminerCFTAddr = _minerCFTAddr;\n\t}\n\n\tfunction updateMinerCFTAddr(address _addr) onlyOwner public {\n\t\tminerCFTAddr = _addr;\n\t}\n\n\tevent LogBet(address indexed userAddr,uint256 betMoney,uint256 bonus,uint256 num,uint256 randNum,bool res,uint256 timeStamp);\n\tevent LogBetByCFT(address indexed userAddr,uint256 betMoney,uint256 bonus,uint256 num,uint256 randNum,bool res,uint256 timeStamp);\n\n\tfunction bet(uint256 num) payable public returns(uint256 _randNum,bool _res){\n\t\trequire (num >= 4 && num <= 96);\n\t\trequire (msg.value > 0);\n\t\t// rand num\n\t\tuint256 randNum = uint256(sha256(abi.encodePacked(block.difficulty , msg.sender))) % 100 + 1;\n\n\t\t//distributed CFT\n\t\tuint256 cftReward = curCFTReward().mul(msg.value).div(10);\n\t\tcraftToken.transferFrom(minerCFTAddr,msg.sender,cftReward);\n\t\t\n\t\t//distributed bonus\n\t\tif (randNum < num){\n\t\t\tuint256 bonus = msg.value.mul(odds[num-4]).div(1000);\n\t\t\trequire (bonus < address(this).balance,\"Greater than contract money\");\n\t\t\tmsg.sender.transfer(bonus * 1 sun);\n\t\t\temit LogBet(msg.sender,msg.value,bonus,num,randNum,true,now);\n\t\t\t_res = true;\n\t\t}else {\n\t\t\temit LogBet(msg.sender,msg.value,0,num,randNum,false,now);\n\t\t\t_res = false;\n\t\t}\n\t\t_randNum = randNum;\n\n\t\treturn;\n\t}\n\n\tfunction curCFTReward() public view returns(uint256) {\n\t\tuint256 curMiningToken = CAPMININGTOKEN.sub(craftToken.balanceOf(minerCFTAddr).div(10**DECIMALS));\n\t\tif(curMiningToken < 600000000) {\n\t\t\treturn MININGREWARD;\n\t\t}else if(curMiningToken < 1600000000) {\n\t\t\treturn MININGREWARD - MININGFALLOFF;\n\t\t}else if(curMiningToken < 2600000000) {\n\t\t\treturn MININGREWARD - MININGFALLOFF * 2;\n\t\t}else if(curMiningToken < 3600000000) {\n\t\t\treturn MININGREWARD - MININGFALLOFF * 3;\n\t\t}else if(curMiningToken < 4600000000) {\n\t\t\treturn MININGREWARD - MININGFALLOFF * 4;\n\t\t}else if(curMiningToken < CAPMININGTOKEN){\n\t\t\treturn MININGREWARD - MININGFALLOFF * 5;\n\t\t}else {\n\t\t\treturn 0;\n\t\t}\n\t}\n\n\tfunction betByCFT(uint256 num,uint256 cftAmount) public returns(uint256 _randNum,bool _res){\n\t\trequire (num >= 4 && num <= 96);\n\t\trequire (cftAmount > 0);\n\t\t// rand num\n\t\tuint256 randNum = uint256(sha256(abi.encodePacked(block.difficulty , msg.sender))) % 100 + 1;\n\n\t\t//distributed bonus\n\t\tif (randNum < num){\n\t\t\tuint256 bonus = cftAmount.mul(odds[num-4]).div(1000);\n\t\t\trequire (craftToken.transferFromByCraft(msg.sender,address(this),cftAmount,bonus));\n\t\t\tcraftToken.transfer(msg.sender,bonus);\n\t\t\temit LogBetByCFT(msg.sender,cftAmount,bonus,num,randNum,true,now);\n\t\t\t_res = true;\n\t\t}else {\n\t\t\trequire (craftToken.transferFromByCraft(msg.sender,address(this),cftAmount,0));\n\t\t\temit LogBetByCFT(msg.sender,cftAmount,0,num,randNum,false,now);\n\t\t\t_res = false;\n\t\t}\n\t\t_randNum = randNum;\n\t\treturn;\n\t}\n\n\tfunction() payable public {}\n\n\tfunction payMoney() payable public {}\n\n}\n\n",
  "sourcePath": "/Users/yhw/Workspace/rockgame/tronCraft/contracts/CraftDice.sol",
  "compiler": {
    "name": "solc",
    "version": "0.4.24-develop.2018.8.28+commit.3ba0cdec.mod.Emscripten.clang"
  },
  "schemaVersion": "2.0.1",
  "updatedAt": "2018-12-13T10:32:58.673Z"
}