{
  "contractName": "CraftSlots",
  "abi": [
    {
      "constant": false,
      "inputs": [],
      "name": "renounceOwnership",
      "outputs": [],
      "payable": false,
      "stateMutability": "nonpayable",
      "type": "function"
    },
    {
      "constant": true,
      "inputs": [],
      "name": "team",
      "outputs": [
        {
          "name": "",
          "type": "address"
        }
      ],
      "payable": false,
      "stateMutability": "view",
      "type": "function"
    },
    {
      "constant": true,
      "inputs": [],
      "name": "owner",
      "outputs": [
        {
          "name": "",
          "type": "address"
        }
      ],
      "payable": false,
      "stateMutability": "view",
      "type": "function"
    },
    {
      "constant": true,
      "inputs": [],
      "name": "isOwner",
      "outputs": [
        {
          "name": "",
          "type": "bool"
        }
      ],
      "payable": false,
      "stateMutability": "view",
      "type": "function"
    },
    {
      "constant": true,
      "inputs": [],
      "name": "teamCFT",
      "outputs": [
        {
          "name": "",
          "type": "address"
        }
      ],
      "payable": false,
      "stateMutability": "view",
      "type": "function"
    },
    {
      "constant": false,
      "inputs": [
        {
          "name": "newOwner",
          "type": "address"
        }
      ],
      "name": "transferOwnership",
      "outputs": [],
      "payable": false,
      "stateMutability": "nonpayable",
      "type": "function"
    },
    {
      "constant": true,
      "inputs": [],
      "name": "minerCFTAddr",
      "outputs": [
        {
          "name": "",
          "type": "address"
        }
      ],
      "payable": false,
      "stateMutability": "view",
      "type": "function"
    },
    {
      "inputs": [
        {
          "name": "_craft",
          "type": "address"
        },
        {
          "name": "_minerCFTAddr",
          "type": "address"
        }
      ],
      "payable": false,
      "stateMutability": "nonpayable",
      "type": "constructor"
    },
    {
      "payable": true,
      "stateMutability": "payable",
      "type": "fallback"
    },
    {
      "anonymous": false,
      "inputs": [
        {
          "indexed": true,
          "name": "userAddr",
          "type": "address"
        },
        {
          "indexed": false,
          "name": "amount",
          "type": "uint256"
        },
        {
          "indexed": false,
          "name": "bitRecord",
          "type": "string"
        },
        {
          "indexed": false,
          "name": "randType",
          "type": "uint256"
        },
        {
          "indexed": false,
          "name": "bonus",
          "type": "uint256"
        },
        {
          "indexed": false,
          "name": "res",
          "type": "bool"
        },
        {
          "indexed": false,
          "name": "timeStamp",
          "type": "uint256"
        }
      ],
      "name": "LogSlots",
      "type": "event"
    },
    {
      "anonymous": false,
      "inputs": [
        {
          "indexed": true,
          "name": "userAddr",
          "type": "address"
        },
        {
          "indexed": false,
          "name": "amount",
          "type": "uint256"
        },
        {
          "indexed": false,
          "name": "bitRecord",
          "type": "string"
        },
        {
          "indexed": false,
          "name": "randType",
          "type": "uint256"
        },
        {
          "indexed": false,
          "name": "bonus",
          "type": "uint256"
        },
        {
          "indexed": false,
          "name": "res",
          "type": "bool"
        },
        {
          "indexed": false,
          "name": "timeStamp",
          "type": "uint256"
        }
      ],
      "name": "LogSlotsByCFT",
      "type": "event"
    },
    {
      "anonymous": false,
      "inputs": [
        {
          "indexed": true,
          "name": "previousOwner",
          "type": "address"
        },
        {
          "indexed": true,
          "name": "newOwner",
          "type": "address"
        }
      ],
      "name": "OwnershipTransferred",
      "type": "event"
    },
    {
      "constant": false,
      "inputs": [
        {
          "name": "_addr",
          "type": "address"
        }
      ],
      "name": "updateTeamAddr",
      "outputs": [],
      "payable": false,
      "stateMutability": "nonpayable",
      "type": "function"
    },
    {
      "constant": false,
      "inputs": [
        {
          "name": "_addr",
          "type": "address"
        }
      ],
      "name": "updateTeamCFTAddr",
      "outputs": [],
      "payable": false,
      "stateMutability": "nonpayable",
      "type": "function"
    },
    {
      "constant": false,
      "inputs": [
        {
          "name": "_amount",
          "type": "uint256"
        }
      ],
      "name": "transferTRXToTeam",
      "outputs": [],
      "payable": false,
      "stateMutability": "nonpayable",
      "type": "function"
    },
    {
      "constant": false,
      "inputs": [
        {
          "name": "_amount",
          "type": "uint256"
        }
      ],
      "name": "transferCFTToTeam",
      "outputs": [],
      "payable": false,
      "stateMutability": "nonpayable",
      "type": "function"
    },
    {
      "constant": false,
      "inputs": [],
      "name": "destroy",
      "outputs": [],
      "payable": false,
      "stateMutability": "nonpayable",
      "type": "function"
    },
    {
      "constant": false,
      "inputs": [
        {
          "name": "_addr",
          "type": "address"
        }
      ],
      "name": "updateMinerCFTAddr",
      "outputs": [],
      "payable": false,
      "stateMutability": "nonpayable",
      "type": "function"
    },
    {
      "constant": false,
      "inputs": [
        {
          "name": "_stakeArray",
          "type": "uint256[7]"
        },
        {
          "name": "_bitRecord",
          "type": "string"
        }
      ],
      "name": "bet",
      "outputs": [
        {
          "name": "_randType",
          "type": "uint256"
        },
        {
          "name": "_res",
          "type": "bool"
        }
      ],
      "payable": true,
      "stateMutability": "payable",
      "type": "function"
    },
    {
      "constant": true,
      "inputs": [],
      "name": "curCFTReward",
      "outputs": [
        {
          "name": "",
          "type": "uint256"
        }
      ],
      "payable": false,
      "stateMutability": "view",
      "type": "function"
    },
    {
      "constant": false,
      "inputs": [
        {
          "name": "_cftAmount",
          "type": "uint256"
        },
        {
          "name": "_stakeArray",
          "type": "uint256[7]"
        },
        {
          "name": "_bitRecord",
          "type": "string"
        }
      ],
      "name": "betByCFT",
      "outputs": [
        {
          "name": "_randType",
          "type": "uint256"
        },
        {
          "name": "_res",
          "type": "bool"
        }
      ],
      "payable": false,
      "stateMutability": "nonpayable",
      "type": "function"
    },
    {
      "constant": false,
      "inputs": [],
      "name": "payMoney",
      "outputs": [],
      "payable": true,
      "stateMutability": "payable",
      "type": "function"
    }
  ],
  "bytecode": "0x608060405260e06040519081016040528061093c61ffff16815260200161049e61ffff16815260200161049e61ffff16815260200161031461ffff16815260200161024f61ffff1681526020016101d961ffff16815260200161015261ffff1681525060019060076200007492919062000304565b5061030060405190810160405280600060ff168152602001600560ff168152602001600660ff168152602001600160ff168152602001600560ff168152602001600360ff168152602001600460ff168152602001600660ff168152602001600260ff168152602001600660ff168152602001600560ff168152602001600460ff168152602001600360ff168152602001600560ff168152602001600660ff168152602001600160ff168152602001600660ff168152602001600360ff168152602001600460ff168152602001600660ff168152602001600260ff168152602001600660ff168152602001600560ff168152602001600460ff168152506008906018620001829291906200034f565b503480156200019057600080fd5b50604051604080620021978339810180604052810190808051906020019092919080519060200190929190505050336000806101000a81548173ffffffffffffffffffffffffffffffffffffffff021916908373ffffffffffffffffffffffffffffffffffffffff1602179055506000809054906101000a900473ffffffffffffffffffffffffffffffffffffffff1673ffffffffffffffffffffffffffffffffffffffff16600073ffffffffffffffffffffffffffffffffffffffff167f8be0079c531659141344cd1fd0a4f28419497f9722a3daafe3b4186f6b6457e060405160405180910390a381602160006101000a81548173ffffffffffffffffffffffffffffffffffffffff021916908373ffffffffffffffffffffffffffffffffffffffff16021790555080602060006101000a81548173ffffffffffffffffffffffffffffffffffffffff021916908373ffffffffffffffffffffffffffffffffffffffff1602179055505050620003c1565b82600781019282156200033c579160200282015b828111156200033b578251829061ffff1690559160200191906001019062000318565b5b5090506200034b919062000399565b5090565b826018810192821562000386579160200282015b8281111562000385578251829060ff1690559160200191906001019062000363565b5b50905062000395919062000399565b5090565b620003be91905b80821115620003ba576000816000905550600101620003a0565b5090565b90565b611dc680620003d16000396000f3006080604052600436106100f1576000357c0100000000000000000000000000000000000000000000000000000000900463ffffffff1680631dc1c5e3146100f357806331c1a527146100fd5780633fcbabd11461012a57806368999ac3146101d45780636bf24d7514610295578063715018a6146102c05780637aa75894146102d757806383197ef01461031a57806385f2aef2146103315780638da5cb5b146103885780638f32d59b146103df578063943c83171461040e578063ae4d6d0814610465578063f2fde38b14610492578063f716213a146104d5578063fa5af5271461052c578063fb690f501461056f575b005b6100fb6105b2565b005b34801561010957600080fd5b50610128600480360381019080803590602001909291905050506105b4565b005b6101b36004803603810190808060e00190600780602002604051908101604052809291908260076020028082843782019150505050509192919290803590602001908201803590602001908080601f0160208091040260200160405190810160405280939291908181526020018383808284378201915050505050509192919290505050610636565b60405180838152602001821515151581526020019250505060405180910390f35b3480156101e057600080fd5b50610274600480360381019080803590602001909291908060e00190600780602002604051908101604052809291908260076020028082843782019150505050509192919290803590602001908201803590602001908080601f0160208091040260200160405190810160405280939291908181526020018383808284378201915050505050509192919290505050610c8d565b60405180838152602001821515151581526020019250505060405180910390f35b3480156102a157600080fd5b506102aa61141a565b6040518082815260200191505060405180910390f35b3480156102cc57600080fd5b506102d561160a565b005b3480156102e357600080fd5b50610318600480360381019080803573ffffffffffffffffffffffffffffffffffffffff1690602001909291905050506116dc565b005b34801561032657600080fd5b5061032f611733565b005b34801561033d57600080fd5b5061034661191f565b604051808273ffffffffffffffffffffffffffffffffffffffff1673ffffffffffffffffffffffffffffffffffffffff16815260200191505060405180910390f35b34801561039457600080fd5b5061039d611945565b604051808273ffffffffffffffffffffffffffffffffffffffff1673ffffffffffffffffffffffffffffffffffffffff16815260200191505060405180910390f35b3480156103eb57600080fd5b506103f461196e565b604051808215151515815260200191505060405180910390f35b34801561041a57600080fd5b506104236119c5565b604051808273ffffffffffffffffffffffffffffffffffffffff1673ffffffffffffffffffffffffffffffffffffffff16815260200191505060405180910390f35b34801561047157600080fd5b50610490600480360381019080803590602001909291905050506119eb565b005b34801561049e57600080fd5b506104d3600480360381019080803573ffffffffffffffffffffffffffffffffffffffff169060200190929190505050611b24565b005b3480156104e157600080fd5b506104ea611b43565b604051808273ffffffffffffffffffffffffffffffffffffffff1673ffffffffffffffffffffffffffffffffffffffff16815260200191505060405180910390f35b34801561053857600080fd5b5061056d600480360381019080803573ffffffffffffffffffffffffffffffffffffffff169060200190929190505050611b69565b005b34801561057b57600080fd5b506105b0600480360381019080803573ffffffffffffffffffffffffffffffffffffffff169060200190929190505050611bc0565b005b565b6105bc61196e565b15156105c757600080fd5b602260009054906101000a900473ffffffffffffffffffffffffffffffffffffffff1673ffffffffffffffffffffffffffffffffffffffff166108fc600183029081150290604051600060405180830381858888f19350505050158015610632573d6000803e3d6000fd5b5050565b6000806000806000808734600080600080925060009150600090505b60078160ff1610156106a8576000858260ff1660078110151561067157fe5b6020020151141561068157600191505b848160ff1660078110151561069257fe5b6020020151830192508080600101915050610652565b82841480156106b45750815b15156106bf57600080fd5b601860024433604051602001808381526020018273ffffffffffffffffffffffffffffffffffffffff1673ffffffffffffffffffffffffffffffffffffffff166c01000000000000000000000000028152601401925050506040516020818303038152906040526040518082805190602001908083835b60208310151561075b5780518252602082019150602081019050602083039250610736565b6001836020036101000a0380198251168184511680821785525050505050509050019150506020604051808303816000865af115801561079f573d6000803e3d6000fd5b5050506040513d60208110156107b457600080fd5b8101908080519060200190929190505050600190048115156107d257fe5b0698506008896018811015156107e457fe5b01549750610815600a610807346107f961141a565b611c1790919063ffffffff16565b611c5590919063ffffffff16565b9650602160009054906101000a900473ffffffffffffffffffffffffffffffffffffffff1673ffffffffffffffffffffffffffffffffffffffff166323b872dd602060009054906101000a900473ffffffffffffffffffffffffffffffffffffffff16338a6040518463ffffffff167c0100000000000000000000000000000000000000000000000000000000028152600401808473ffffffffffffffffffffffffffffffffffffffff1673ffffffffffffffffffffffffffffffffffffffff1681526020018373ffffffffffffffffffffffffffffffffffffffff1673ffffffffffffffffffffffffffffffffffffffff1681526020018281526020019350505050602060405180830381600087803b15801561093257600080fd5b505af1158015610946573d6000803e3d6000fd5b505050506040513d602081101561095c57600080fd5b81019080805190602001909291905050505060008d8960078110151561097e57fe5b6020020151141515610b95576109d260646109c48f8b6007811015156109a057fe5b602002015160018c6007811015156109b457fe5b0154611c1790919063ffffffff16565b611c5590919063ffffffff16565b95503073ffffffffffffffffffffffffffffffffffffffff163186101515610a62576040517f08c379a000000000000000000000000000000000000000000000000000000000815260040180806020018281038252601b8152602001807f47726561746572207468616e20636f6e7472616374206d6f6e6579000000000081525060200191505060405180910390fd5b3373ffffffffffffffffffffffffffffffffffffffff166108fc600188029081150290604051600060405180830381858888f19350505050158015610aab573d6000803e3d6000fd5b503373ffffffffffffffffffffffffffffffffffffffff167ffb2c64b19527b3f6b7d4652b0e4382af4b26d28bc886ee4c07de5cff1b4dd3b2348e8b8a600142604051808781526020018060200186815260200185815260200184151515158152602001838152602001828103825287818151815260200191508051906020019080838360005b83811015610b4d578082015181840152602081019050610b32565b50505050905090810190601f168015610b7a5780820380516001836020036101000a031916815260200191505b5097505050505050505060405180910390a260019950610c7a565b3373ffffffffffffffffffffffffffffffffffffffff167ffb2c64b19527b3f6b7d4652b0e4382af4b26d28bc886ee4c07de5cff1b4dd3b2348e8b60008042604051808781526020018060200186815260200185815260200184151515158152602001838152602001828103825287818151815260200191508051906020019080838360005b83811015610c36578082015181840152602081019050610c1b565b50505050905090810190601f168015610c635780820380516001836020036101000a031916815260200191505b5097505050505050505060405180910390a2600099505b889a505050505050505050509250929050565b6000806000806000808789600080600080925060009150600090505b60078160ff161015610cff576000858260ff16600781101515610cc857fe5b60200201511415610cd857600191505b848160ff16600781101515610ce957fe5b6020020151830192508080600101915050610ca9565b8284148015610d0b5750815b1515610d1657600080fd5b8d9850601860024433604051602001808381526020018273ffffffffffffffffffffffffffffffffffffffff1673ffffffffffffffffffffffffffffffffffffffff166c01000000000000000000000000028152601401925050506040516020818303038152906040526040518082805190602001908083835b602083101515610db55780518252602082019150602081019050602083039250610d90565b6001836020036101000a0380198251168184511680821785525050505050509050019150506020604051808303816000865af1158015610df9573d6000803e3d6000fd5b5050506040513d6020811015610e0e57600080fd5b810190808051906020019092919050505060019004811515610e2c57fe5b069750600888601881101515610e3e57fe5b0154965060008d88600781101515610e5257fe5b60200201511415156111d957610ea66064610e988f8a600781101515610e7457fe5b602002015160018b600781101515610e8857fe5b0154611c1790919063ffffffff16565b611c5590919063ffffffff16565b9550602160009054906101000a900473ffffffffffffffffffffffffffffffffffffffff1673ffffffffffffffffffffffffffffffffffffffff16634b23dc1933308c8a6040518563ffffffff167c0100000000000000000000000000000000000000000000000000000000028152600401808573ffffffffffffffffffffffffffffffffffffffff1673ffffffffffffffffffffffffffffffffffffffff1681526020018473ffffffffffffffffffffffffffffffffffffffff1673ffffffffffffffffffffffffffffffffffffffff168152602001838152602001828152602001945050505050602060405180830381600087803b158015610fa957600080fd5b505af1158015610fbd573d6000803e3d6000fd5b505050506040513d6020811015610fd357600080fd5b81019080805190602001909291905050501515610fef57600080fd5b602160009054906101000a900473ffffffffffffffffffffffffffffffffffffffff1673ffffffffffffffffffffffffffffffffffffffff1663a9059cbb33886040518363ffffffff167c0100000000000000000000000000000000000000000000000000000000028152600401808373ffffffffffffffffffffffffffffffffffffffff1673ffffffffffffffffffffffffffffffffffffffff16815260200182815260200192505050602060405180830381600087803b1580156110b457600080fd5b505af11580156110c8573d6000803e3d6000fd5b505050506040513d60208110156110de57600080fd5b8101908080519060200190929190505050503373ffffffffffffffffffffffffffffffffffffffff167fe908b184065a2a766c6c1108629ef629d43cc69df4508cdb7f4d95b30fd5e1f58a8e8a8a600142604051808781526020018060200186815260200185815260200184151515158152602001838152602001828103825287818151815260200191508051906020019080838360005b83811015611191578082015181840152602081019050611176565b50505050905090810190601f1680156111be5780820380516001836020036101000a031916815260200191505b5097505050505050505060405180910390a260019950611406565b602160009054906101000a900473ffffffffffffffffffffffffffffffffffffffff1673ffffffffffffffffffffffffffffffffffffffff16634b23dc1933308c60006040518563ffffffff167c0100000000000000000000000000000000000000000000000000000000028152600401808573ffffffffffffffffffffffffffffffffffffffff1673ffffffffffffffffffffffffffffffffffffffff1681526020018473ffffffffffffffffffffffffffffffffffffffff1673ffffffffffffffffffffffffffffffffffffffff168152602001838152602001828152602001945050505050602060405180830381600087803b1580156112db57600080fd5b505af11580156112ef573d6000803e3d6000fd5b505050506040513d602081101561130557600080fd5b8101908080519060200190929190505050151561132157600080fd5b3373ffffffffffffffffffffffffffffffffffffffff167fe908b184065a2a766c6c1108629ef629d43cc69df4508cdb7f4d95b30fd5e1f58a8e8a60008042604051808781526020018060200186815260200185815260200184151515158152602001838152602001828103825287818151815260200191508051906020019080838360005b838110156113c25780820151818401526020810190506113a7565b50505050905090810190601f1680156113ef5780820380516001836020036101000a031916815260200191505b5097505050505050505060405180910390a2600099505b879a50505050505050505050935093915050565b6000806115646115506006600a0a602160009054906101000a900473ffffffffffffffffffffffffffffffffffffffff1673ffffffffffffffffffffffffffffffffffffffff166370a08231602060009054906101000a900473ffffffffffffffffffffffffffffffffffffffff166040518263ffffffff167c0100000000000000000000000000000000000000000000000000000000028152600401808273ffffffffffffffffffffffffffffffffffffffff1673ffffffffffffffffffffffffffffffffffffffff168152602001915050602060405180830381600087803b15801561150757600080fd5b505af115801561151b573d6000803e3d6000fd5b505050506040513d602081101561153157600080fd5b8101908080519060200190929190505050611c5590919063ffffffff16565b64014dc93800611c7f90919063ffffffff16565b90506323c3460081101561157b57600a9150611606565b635f5e1000811015611593576001600a039150611606565b639af8da008110156115ae576002600102600a039150611606565b63d693a4008110156115c9576003600102600a039150611606565b6401122e6e008110156115e5576004600102600a039150611606565b64014dc93800811015611601576005600102600a039150611606565b600091505b5090565b61161261196e565b151561161d57600080fd5b600073ffffffffffffffffffffffffffffffffffffffff166000809054906101000a900473ffffffffffffffffffffffffffffffffffffffff1673ffffffffffffffffffffffffffffffffffffffff167f8be0079c531659141344cd1fd0a4f28419497f9722a3daafe3b4186f6b6457e060405160405180910390a360008060006101000a81548173ffffffffffffffffffffffffffffffffffffffff021916908373ffffffffffffffffffffffffffffffffffffffff160217905550565b6116e461196e565b15156116ef57600080fd5b80602060006101000a81548173ffffffffffffffffffffffffffffffffffffffff021916908373ffffffffffffffffffffffffffffffffffffffff16021790555050565b61173b61196e565b151561174657600080fd5b602160009054906101000a900473ffffffffffffffffffffffffffffffffffffffff1673ffffffffffffffffffffffffffffffffffffffff1663e57513506040518163ffffffff167c0100000000000000000000000000000000000000000000000000000000028152600401600060405180830381600087803b1580156117cc57600080fd5b505af11580156117e0573d6000803e3d6000fd5b505050506118e4602160009054906101000a900473ffffffffffffffffffffffffffffffffffffffff1673ffffffffffffffffffffffffffffffffffffffff166370a08231306040518263ffffffff167c0100000000000000000000000000000000000000000000000000000000028152600401808273ffffffffffffffffffffffffffffffffffffffff1673ffffffffffffffffffffffffffffffffffffffff168152602001915050602060405180830381600087803b1580156118a457600080fd5b505af11580156118b8573d6000803e3d6000fd5b505050506040513d60208110156118ce57600080fd5b81019080805190602001909291905050506119eb565b602260009054906101000a900473ffffffffffffffffffffffffffffffffffffffff1673ffffffffffffffffffffffffffffffffffffffff16ff5b602260009054906101000a900473ffffffffffffffffffffffffffffffffffffffff1681565b60008060009054906101000a900473ffffffffffffffffffffffffffffffffffffffff16905090565b60008060009054906101000a900473ffffffffffffffffffffffffffffffffffffffff1673ffffffffffffffffffffffffffffffffffffffff163373ffffffffffffffffffffffffffffffffffffffff1614905090565b602360009054906101000a900473ffffffffffffffffffffffffffffffffffffffff1681565b6119f361196e565b15156119fe57600080fd5b602160009054906101000a900473ffffffffffffffffffffffffffffffffffffffff1673ffffffffffffffffffffffffffffffffffffffff1663a9059cbb602360009054906101000a900473ffffffffffffffffffffffffffffffffffffffff16836040518363ffffffff167c0100000000000000000000000000000000000000000000000000000000028152600401808373ffffffffffffffffffffffffffffffffffffffff1673ffffffffffffffffffffffffffffffffffffffff16815260200182815260200192505050602060405180830381600087803b158015611ae557600080fd5b505af1158015611af9573d6000803e3d6000fd5b505050506040513d6020811015611b0f57600080fd5b81019080805190602001909291905050505050565b611b2c61196e565b1515611b3757600080fd5b611b4081611ca0565b50565b602060009054906101000a900473ffffffffffffffffffffffffffffffffffffffff1681565b611b7161196e565b1515611b7c57600080fd5b80602360006101000a81548173ffffffffffffffffffffffffffffffffffffffff021916908373ffffffffffffffffffffffffffffffffffffffff16021790555050565b611bc861196e565b1515611bd357600080fd5b80602260006101000a81548173ffffffffffffffffffffffffffffffffffffffff021916908373ffffffffffffffffffffffffffffffffffffffff16021790555050565b6000806000841415611c2c5760009150611c4e565b8284029050828482811515611c3d57fe5b04141515611c4a57600080fd5b8091505b5092915050565b600080600083111515611c6757600080fd5b8284811515611c7257fe5b0490508091505092915050565b600080838311151515611c9157600080fd5b82840390508091505092915050565b600073ffffffffffffffffffffffffffffffffffffffff168173ffffffffffffffffffffffffffffffffffffffff1614151515611cdc57600080fd5b8073ffffffffffffffffffffffffffffffffffffffff166000809054906101000a900473ffffffffffffffffffffffffffffffffffffffff1673ffffffffffffffffffffffffffffffffffffffff167f8be0079c531659141344cd1fd0a4f28419497f9722a3daafe3b4186f6b6457e060405160405180910390a3806000806101000a81548173ffffffffffffffffffffffffffffffffffffffff021916908373ffffffffffffffffffffffffffffffffffffffff160217905550505600a165627a7a7230582099814c691c5b88dd4147795c904922eebba37331ce6682282cce1ab32b54b8d40029",
  "source": "pragma solidity ^0.4.23;\n\n\nimport \"./openzeppelin-solidity/contracts/ownership/Ownable.sol\";\nimport \"./openzeppelin-solidity/contracts/math/SafeMath.sol\";\nimport \"./openzeppelin-solidity/contracts/token/ERC20/IERC20.sol\";\n\n\ncontract CraftSlots is Ownable {\n\tusing SafeMath for uint256;\n\n\tuint256 constant CAPMININGTOKEN = 5600000000;\n\tuint256 constant MININGREWARD = 10;\n\tuint256 constant MININGFALLOFF = 1;\n\tuint256 constant DECIMALS = 6;\n\n\tuint256[7] private odds = [2364,1182,1182,788,591,473,338];\n\tuint256[24] private order = [0,5,6,1,5,3,4,6,2,6,5,4,3,5,6,1,6,3,4,6,2,6,5,4];\n\n\taddress public minerCFTAddr;\n\t\n\tIERC20 craftToken;\n\n\taddress public team;\n\taddress public teamCFT;\n\n\tfunction updateTeamAddr(address _addr) onlyOwner public {\n\t\tteam = _addr;\n\t}\n\n\tfunction updateTeamCFTAddr(address _addr) onlyOwner public {\n\t\tteamCFT = _addr;\n\t}\n\n\tfunction transferTRXToTeam(uint256 _amount) onlyOwner public {\n\t\tteam.transfer(_amount * 1 sun);\n\t}\n\n\tfunction transferCFTToTeam(uint256 _amount) onlyOwner public {\n\t\tcraftToken.transfer(teamCFT,_amount);\n\t}\n\n\tfunction destroy() onlyOwner public {\n    \tcraftToken.renounceContracter();\n    \t// transferTRXToTeam(address(this).balance);\n    \ttransferCFTToTeam(craftToken.balanceOf(address(this)));\n    \tselfdestruct(team);\n  \t}\n\n\tmodifier isSumOk(uint256[7] _arr,uint256 _amount) { \n\t\tuint256 _sum = 0;\n\t\tbool _judge = false;\n\t\tfor(uint8 i=0; i<7; i++){\n\t\t\tif(_arr[i] == 0){\n\t\t\t\t_judge = true;\n\t\t\t}\n\t\t\t_sum = _sum +_arr[i];\n\t\t}\n\t\trequire (_amount == _sum && _judge); \n\t\t_; \n\t}\n\t\n\n\tconstructor (address _craft,address _minerCFTAddr) public {\n\t\tcraftToken = IERC20(_craft);\n\t\tminerCFTAddr = _minerCFTAddr;\n\t}\n\n\tfunction updateMinerCFTAddr(address _addr) onlyOwner public {\n\t\tminerCFTAddr = _addr;\n\t}\n\n\tevent LogSlots(address indexed userAddr,uint256 amount,string bitRecord,uint256 randType,uint256 bonus,bool res,uint256 timeStamp);\n\tevent LogSlotsByCFT(address indexed userAddr,uint256 amount,string bitRecord,uint256 randType,uint256 bonus,bool res,uint256 timeStamp);\n\n\tfunction bet(uint256[7] _stakeArray,string _bitRecord) payable isSumOk(_stakeArray,msg.value) public returns(uint256 _randType,bool _res){\n\t\tuint256 randNum = uint256(sha256(abi.encodePacked(block.difficulty , msg.sender))) % 24;\n\t\tuint256 curType = order[randNum];\n\n\t\t//distributed CFT\n\t\tuint256 cftReward = curCFTReward().mul(msg.value).div(10);\n\t\tcraftToken.transferFrom(minerCFTAddr,msg.sender,cftReward);\n\n\t\t//distributed bonus\n\t\tif (_stakeArray[curType] != 0){\n\t\t\tuint256 bonus = odds[curType].mul(_stakeArray[curType]).div(100);\n\t\t\trequire (bonus < address(this).balance,\"Greater than contract money\");\n\t\t\tmsg.sender.transfer(bonus * 1 sun);\n\t\t\temit LogSlots(msg.sender,msg.value,_bitRecord,curType,bonus,true,now);\n\t\t\t_res = true;\n\t\t}else {\n\t\t\temit LogSlots(msg.sender,msg.value,_bitRecord,curType,0,false,now);\n\t\t\t_res = false;\n\t\t}\n\t\t_randType = randNum;\n\t\treturn;\n\t}\n\n\tfunction curCFTReward() public view returns(uint256) {\n\t\tuint256 curMiningToken = CAPMININGTOKEN.sub(craftToken.balanceOf(minerCFTAddr).div(10**DECIMALS));\n\t\tif(curMiningToken < 600000000) {\n\t\t\treturn MININGREWARD;\n\t\t}else if(curMiningToken < 1600000000) {\n\t\t\treturn MININGREWARD - MININGFALLOFF;\n\t\t}else if(curMiningToken < 2600000000) {\n\t\t\treturn MININGREWARD - MININGFALLOFF * 2;\n\t\t}else if(curMiningToken < 3600000000) {\n\t\t\treturn MININGREWARD - MININGFALLOFF * 3;\n\t\t}else if(curMiningToken < 4600000000) {\n\t\t\treturn MININGREWARD - MININGFALLOFF * 4;\n\t\t}else if(curMiningToken < CAPMININGTOKEN){\n\t\t\treturn MININGREWARD - MININGFALLOFF * 5;\n\t\t}else {\n\t\t\treturn 0;\n\t\t}\n\t}\n\n\tfunction betByCFT(uint256 _cftAmount,uint256[7] _stakeArray,string _bitRecord) isSumOk(_stakeArray,_cftAmount) public returns(uint256 _randType,bool _res){\n\t\tuint256 cm = _cftAmount;\n\t\tuint256 randNum = uint256(sha256(abi.encodePacked(block.difficulty , msg.sender))) % 24;\n\t\tuint256 curType = order[randNum];\n\n\t\t//distributed bonus\n\t\tif (_stakeArray[curType] != 0){\n\t\t\tuint256 bonus = odds[curType].mul(_stakeArray[curType]).div(100);\n\t\t\trequire (craftToken.transferFromByCraft(msg.sender,address(this),cm,bonus));\n\t\t\tcraftToken.transfer(msg.sender,bonus);\n\t\t\temit LogSlotsByCFT(msg.sender,cm,_bitRecord,curType,bonus,true,now);\n\t\t\t_res = true;\n\t\t}else {\n\t\t\trequire (craftToken.transferFromByCraft(msg.sender,address(this),cm,0));\n\t\t\temit LogSlotsByCFT(msg.sender,cm,_bitRecord,curType,0,false,now);\n\t\t\t_res = false;\n\t\t}\n\t\t_randType = randNum;\n\t\treturn;\n\t}\n\n\tfunction() payable public {}\n\n\tfunction payMoney() payable public {}\n}\n\n",
  "sourcePath": "/Users/yhw/Workspace/rockgame/tronCraft/contracts/CraftSlots.sol",
  "compiler": {
    "name": "solc",
    "version": "0.4.24-develop.2018.8.28+commit.3ba0cdec.mod.Emscripten.clang"
  },
  "schemaVersion": "2.0.1",
  "updatedAt": "2018-12-13T10:32:58.665Z"
}