{
  "contractName": "CraftDice",
  "abi": [
    {
      "constant": false,
      "inputs": [],
      "name": "renounceOwnership",
      "outputs": [],
      "payable": false,
      "stateMutability": "nonpayable",
      "type": "function"
    },
    {
      "constant": true,
      "inputs": [],
      "name": "team",
      "outputs": [
        {
          "name": "",
          "type": "address"
        }
      ],
      "payable": false,
      "stateMutability": "view",
      "type": "function"
    },
    {
      "constant": true,
      "inputs": [],
      "name": "owner",
      "outputs": [
        {
          "name": "",
          "type": "address"
        }
      ],
      "payable": false,
      "stateMutability": "view",
      "type": "function"
    },
    {
      "constant": true,
      "inputs": [],
      "name": "isOwner",
      "outputs": [
        {
          "name": "",
          "type": "bool"
        }
      ],
      "payable": false,
      "stateMutability": "view",
      "type": "function"
    },
    {
      "constant": true,
      "inputs": [],
      "name": "teamCFT",
      "outputs": [
        {
          "name": "",
          "type": "address"
        }
      ],
      "payable": false,
      "stateMutability": "view",
      "type": "function"
    },
    {
      "constant": false,
      "inputs": [
        {
          "name": "newOwner",
          "type": "address"
        }
      ],
      "name": "transferOwnership",
      "outputs": [],
      "payable": false,
      "stateMutability": "nonpayable",
      "type": "function"
    },
    {
      "constant": true,
      "inputs": [],
      "name": "minerCFTAddr",
      "outputs": [
        {
          "name": "",
          "type": "address"
        }
      ],
      "payable": false,
      "stateMutability": "view",
      "type": "function"
    },
    {
      "constant": true,
      "inputs": [
        {
          "name": "",
          "type": "uint8"
        }
      ],
      "name": "BET_POS_MULTIPLE",
      "outputs": [
        {
          "name": "",
          "type": "uint32"
        }
      ],
      "payable": false,
      "stateMutability": "view",
      "type": "function"
    },
    {
      "inputs": [
        {
          "name": "_craft",
          "type": "address"
        },
        {
          "name": "_minerCFTAddr",
          "type": "address"
        }
      ],
      "payable": false,
      "stateMutability": "nonpayable",
      "type": "constructor"
    },
    {
      "anonymous": false,
      "inputs": [
        {
          "indexed": true,
          "name": "userAddr",
          "type": "address"
        },
        {
          "indexed": false,
          "name": "betMoney",
          "type": "uint256"
        },
        {
          "indexed": false,
          "name": "betPos",
          "type": "uint256"
        },
        {
          "indexed": false,
          "name": "timeStamp",
          "type": "uint256"
        }
      ],
      "name": "LogBet",
      "type": "event"
    },
    {
      "anonymous": false,
      "inputs": [
        {
          "indexed": true,
          "name": "userAddr",
          "type": "address"
        },
        {
          "indexed": false,
          "name": "betMoney",
          "type": "uint256"
        },
        {
          "indexed": false,
          "name": "bonus",
          "type": "uint256"
        },
        {
          "indexed": false,
          "name": "num",
          "type": "uint256"
        },
        {
          "indexed": false,
          "name": "randNum",
          "type": "uint256"
        },
        {
          "indexed": false,
          "name": "res",
          "type": "bool"
        },
        {
          "indexed": false,
          "name": "timeStamp",
          "type": "uint256"
        }
      ],
      "name": "LogBetByCFT",
      "type": "event"
    },
    {
      "anonymous": false,
      "inputs": [
        {
          "indexed": true,
          "name": "previousOwner",
          "type": "address"
        },
        {
          "indexed": true,
          "name": "newOwner",
          "type": "address"
        }
      ],
      "name": "OwnershipTransferred",
      "type": "event"
    },
    {
      "constant": false,
      "inputs": [],
      "name": "destroy",
      "outputs": [],
      "payable": false,
      "stateMutability": "nonpayable",
      "type": "function"
    },
    {
      "constant": false,
      "inputs": [
        {
          "name": "_addr",
          "type": "address"
        }
      ],
      "name": "updateTeamAddr",
      "outputs": [],
      "payable": false,
      "stateMutability": "nonpayable",
      "type": "function"
    },
    {
      "constant": false,
      "inputs": [
        {
          "name": "_addr",
          "type": "address"
        }
      ],
      "name": "updateTeamCFTAddr",
      "outputs": [],
      "payable": false,
      "stateMutability": "nonpayable",
      "type": "function"
    },
    {
      "constant": false,
      "inputs": [
        {
          "name": "_amount",
          "type": "uint256"
        }
      ],
      "name": "transferTRXToTeam",
      "outputs": [],
      "payable": false,
      "stateMutability": "nonpayable",
      "type": "function"
    },
    {
      "constant": false,
      "inputs": [
        {
          "name": "_amount",
          "type": "uint256"
        }
      ],
      "name": "transferCFTToTeam",
      "outputs": [],
      "payable": false,
      "stateMutability": "nonpayable",
      "type": "function"
    },
    {
      "constant": false,
      "inputs": [
        {
          "name": "_addr",
          "type": "address"
        }
      ],
      "name": "updateMinerCFTAddr",
      "outputs": [],
      "payable": false,
      "stateMutability": "nonpayable",
      "type": "function"
    },
    {
      "constant": true,
      "inputs": [],
      "name": "curCFTReward",
      "outputs": [
        {
          "name": "",
          "type": "uint256"
        }
      ],
      "payable": false,
      "stateMutability": "view",
      "type": "function"
    },
    {
      "constant": false,
      "inputs": [
        {
          "name": "betPos",
          "type": "uint8"
        }
      ],
      "name": "bet",
      "outputs": [],
      "payable": true,
      "stateMutability": "payable",
      "type": "function"
    },
    {
      "constant": false,
      "inputs": [],
      "name": "open",
      "outputs": [],
      "payable": false,
      "stateMutability": "nonpayable",
      "type": "function"
    }
  ],
  "bytecode": "0x608060405234801561001057600080fd5b5060405160408061236b8339810180604052810190808051906020019092919080519060200190929190505050336000806101000a81548173ffffffffffffffffffffffffffffffffffffffff021916908373ffffffffffffffffffffffffffffffffffffffff1602179055506000809054906101000a900473ffffffffffffffffffffffffffffffffffffffff1673ffffffffffffffffffffffffffffffffffffffff16600073ffffffffffffffffffffffffffffffffffffffff167f8be0079c531659141344cd1fd0a4f28419497f9722a3daafe3b4186f6b6457e060405160405180910390a381600660006101000a81548173ffffffffffffffffffffffffffffffffffffffff021916908373ffffffffffffffffffffffffffffffffffffffff16021790555080600560006101000a81548173ffffffffffffffffffffffffffffffffffffffff021916908373ffffffffffffffffffffffffffffffffffffffff1602179055506001806000600160ff1660ff16815260200190815260200160002060006101000a81548163ffffffff021916908363ffffffff1602179055506001806000600260ff1660ff16815260200190815260200160002060006101000a81548163ffffffff021916908363ffffffff1602179055506001806000600360ff1660ff16815260200190815260200160002060006101000a81548163ffffffff021916908363ffffffff1602179055506001806000600460ff1660ff16815260200190815260200160002060006101000a81548163ffffffff021916908363ffffffff160217905550609660016000600160ff1660ff16815260200190815260200160002060006101000a81548163ffffffff021916908363ffffffff160217905550609660016000600260ff1660ff16815260200190815260200160002060006101000a81548163ffffffff021916908363ffffffff160217905550609660016000600360ff1660ff16815260200190815260200160002060006101000a81548163ffffffff021916908363ffffffff160217905550609660016000600460ff1660ff16815260200190815260200160002060006101000a81548163ffffffff021916908363ffffffff160217905550609660016000600560ff1660ff16815260200190815260200160002060006101000a81548163ffffffff021916908363ffffffff160217905550609660016000600660ff1660ff16815260200190815260200160002060006101000a81548163ffffffff021916908363ffffffff160217905550601860016000600760ff1660ff16815260200190815260200160002060006101000a81548163ffffffff021916908363ffffffff160217905550603260016000600860ff1660ff16815260200190815260200160002060006101000a81548163ffffffff021916908363ffffffff160217905550601260016000600960ff1660ff16815260200190815260200160002060006101000a81548163ffffffff021916908363ffffffff160217905550600e60016000600a60ff1660ff16815260200190815260200160002060006101000a81548163ffffffff021916908363ffffffff160217905550600c60016000600b60ff1660ff16815260200190815260200160002060006101000a81548163ffffffff021916908363ffffffff160217905550600860016000600c60ff1660ff16815260200190815260200160002060006101000a81548163ffffffff021916908363ffffffff160217905550600660016000600d60ff1660ff16815260200190815260200160002060006101000a81548163ffffffff021916908363ffffffff160217905550600660016000600e60ff1660ff16815260200190815260200160002060006101000a81548163ffffffff021916908363ffffffff160217905550600660016000600f60ff1660ff16815260200190815260200160002060006101000a81548163ffffffff021916908363ffffffff160217905550600660016000601060ff1660ff16815260200190815260200160002060006101000a81548163ffffffff021916908363ffffffff160217905550600860016000601160ff1660ff16815260200190815260200160002060006101000a81548163ffffffff021916908363ffffffff160217905550600c60016000601260ff1660ff16815260200190815260200160002060006101000a81548163ffffffff021916908363ffffffff160217905550600e60016000601360ff1660ff16815260200190815260200160002060006101000a81548163ffffffff021916908363ffffffff160217905550601260016000601460ff1660ff16815260200190815260200160002060006101000a81548163ffffffff021916908363ffffffff160217905550603260016000601560ff1660ff16815260200190815260200160002060006101000a81548163ffffffff021916908363ffffffff1602179055505050611c39806107326000396000f3006080604052600436106100f1576000357c0100000000000000000000000000000000000000000000000000000000900463ffffffff16806331c1a527146100f65780636bf24d7514610123578063715018a61461014e5780637aa758941461016557806383197ef0146101a857806385f2aef2146101bf5780638da5cb5b146102165780638f32d59b1461026d578063943c83171461029c578063ae4d6d08146102f3578063d0821b0e14610320578063f2fde38b14610343578063f716213a14610386578063f7b550f6146103dd578063fa5af5271461042d578063fb690f5014610470578063fcfff16f146104b3575b600080fd5b34801561010257600080fd5b50610121600480360381019080803590602001909291905050506104ca565b005b34801561012f57600080fd5b5061013861054c565b6040518082815260200191505060405180910390f35b34801561015a57600080fd5b5061016361073c565b005b34801561017157600080fd5b506101a6600480360381019080803573ffffffffffffffffffffffffffffffffffffffff16906020019092919050505061080e565b005b3480156101b457600080fd5b506101bd610865565b005b3480156101cb57600080fd5b506101d4610a51565b604051808273ffffffffffffffffffffffffffffffffffffffff1673ffffffffffffffffffffffffffffffffffffffff16815260200191505060405180910390f35b34801561022257600080fd5b5061022b610a77565b604051808273ffffffffffffffffffffffffffffffffffffffff1673ffffffffffffffffffffffffffffffffffffffff16815260200191505060405180910390f35b34801561027957600080fd5b50610282610aa0565b604051808215151515815260200191505060405180910390f35b3480156102a857600080fd5b506102b1610af7565b604051808273ffffffffffffffffffffffffffffffffffffffff1673ffffffffffffffffffffffffffffffffffffffff16815260200191505060405180910390f35b3480156102ff57600080fd5b5061031e60048036038101908080359060200190929190505050610b1d565b005b610341600480360381019080803560ff169060200190929190505050610c56565b005b34801561034f57600080fd5b50610384600480360381019080803573ffffffffffffffffffffffffffffffffffffffff169060200190929190505050610e09565b005b34801561039257600080fd5b5061039b610e28565b604051808273ffffffffffffffffffffffffffffffffffffffff1673ffffffffffffffffffffffffffffffffffffffff16815260200191505060405180910390f35b3480156103e957600080fd5b5061040b600480360381019080803560ff169060200190929190505050610e4e565b604051808263ffffffff1663ffffffff16815260200191505060405180910390f35b34801561043957600080fd5b5061046e600480360381019080803573ffffffffffffffffffffffffffffffffffffffff169060200190929190505050610e71565b005b34801561047c57600080fd5b506104b1600480360381019080803573ffffffffffffffffffffffffffffffffffffffff169060200190929190505050610ec8565b005b3480156104bf57600080fd5b506104c8610f1f565b005b6104d2610aa0565b15156104dd57600080fd5b600760009054906101000a900473ffffffffffffffffffffffffffffffffffffffff1673ffffffffffffffffffffffffffffffffffffffff166108fc600183029081150290604051600060405180830381858888f19350505050158015610548573d6000803e3d6000fd5b5050565b6000806106966106826006600a0a600660009054906101000a900473ffffffffffffffffffffffffffffffffffffffff1673ffffffffffffffffffffffffffffffffffffffff166370a08231600560009054906101000a900473ffffffffffffffffffffffffffffffffffffffff166040518263ffffffff167c0100000000000000000000000000000000000000000000000000000000028152600401808273ffffffffffffffffffffffffffffffffffffffff1673ffffffffffffffffffffffffffffffffffffffff168152602001915050602060405180830381600087803b15801561063957600080fd5b505af115801561064d573d6000803e3d6000fd5b505050506040513d602081101561066357600080fd5b810190808051906020019092919050505061174e90919063ffffffff16565b64014dc9380061177890919063ffffffff16565b90506323c346008110156106ad57600a9150610738565b635f5e10008110156106c5576001600a039150610738565b639af8da008110156106e0576002600102600a039150610738565b63d693a4008110156106fb576003600102600a039150610738565b6401122e6e00811015610717576004600102600a039150610738565b64014dc93800811015610733576005600102600a039150610738565b600091505b5090565b610744610aa0565b151561074f57600080fd5b600073ffffffffffffffffffffffffffffffffffffffff166000809054906101000a900473ffffffffffffffffffffffffffffffffffffffff1673ffffffffffffffffffffffffffffffffffffffff167f8be0079c531659141344cd1fd0a4f28419497f9722a3daafe3b4186f6b6457e060405160405180910390a360008060006101000a81548173ffffffffffffffffffffffffffffffffffffffff021916908373ffffffffffffffffffffffffffffffffffffffff160217905550565b610816610aa0565b151561082157600080fd5b80600560006101000a81548173ffffffffffffffffffffffffffffffffffffffff021916908373ffffffffffffffffffffffffffffffffffffffff16021790555050565b61086d610aa0565b151561087857600080fd5b600660009054906101000a900473ffffffffffffffffffffffffffffffffffffffff1673ffffffffffffffffffffffffffffffffffffffff1663e57513506040518163ffffffff167c0100000000000000000000000000000000000000000000000000000000028152600401600060405180830381600087803b1580156108fe57600080fd5b505af1158015610912573d6000803e3d6000fd5b50505050610a16600660009054906101000a900473ffffffffffffffffffffffffffffffffffffffff1673ffffffffffffffffffffffffffffffffffffffff166370a08231306040518263ffffffff167c0100000000000000000000000000000000000000000000000000000000028152600401808273ffffffffffffffffffffffffffffffffffffffff1673ffffffffffffffffffffffffffffffffffffffff168152602001915050602060405180830381600087803b1580156109d657600080fd5b505af11580156109ea573d6000803e3d6000fd5b505050506040513d6020811015610a0057600080fd5b8101908080519060200190929190505050610b1d565b600760009054906101000a900473ffffffffffffffffffffffffffffffffffffffff1673ffffffffffffffffffffffffffffffffffffffff16ff5b600760009054906101000a900473ffffffffffffffffffffffffffffffffffffffff1681565b60008060009054906101000a900473ffffffffffffffffffffffffffffffffffffffff16905090565b60008060009054906101000a900473ffffffffffffffffffffffffffffffffffffffff1673ffffffffffffffffffffffffffffffffffffffff163373ffffffffffffffffffffffffffffffffffffffff1614905090565b600860009054906101000a900473ffffffffffffffffffffffffffffffffffffffff1681565b610b25610aa0565b1515610b3057600080fd5b600660009054906101000a900473ffffffffffffffffffffffffffffffffffffffff1673ffffffffffffffffffffffffffffffffffffffff1663a9059cbb600860009054906101000a900473ffffffffffffffffffffffffffffffffffffffff16836040518363ffffffff167c0100000000000000000000000000000000000000000000000000000000028152600401808373ffffffffffffffffffffffffffffffffffffffff1673ffffffffffffffffffffffffffffffffffffffff16815260200182815260200192505050602060405180830381600087803b158015610c1757600080fd5b505af1158015610c2b573d6000803e3d6000fd5b505050506040513d6020811015610c4157600080fd5b81019080805190602001909291905050505050565b6000806000600160ff168460ff1610158015610c795750601560ff168460ff1611155b1515610ced576040517f08c379a00000000000000000000000000000000000000000000000000000000081526004018080602001828103825260188152602001807f62657420706f732073686f756c6420696e205b312c32315d000000000000000081525060200191505060405180910390fd5b600034111515610cfc57600080fd5b600960000160003373ffffffffffffffffffffffffffffffffffffffff1673ffffffffffffffffffffffffffffffffffffffff1681526020019081526020016000206001019250610d50838560ff16611799565b91509150348360000160008660ff16815260200190815260200160002060010154018360000160008660ff16815260200190815260200160002060010181905550610da1838560ff168334016117e3565b503373ffffffffffffffffffffffffffffffffffffffff167f063f4540040cf99a22f577ef321c170763020e6277e47275ed9b3d17ec14e13d348642604051808481526020018360ff168152602001828152602001935050505060405180910390a250505050565b610e11610aa0565b1515610e1c57600080fd5b610e25816118b0565b50565b600560009054906101000a900473ffffffffffffffffffffffffffffffffffffffff1681565b60016020528060005260406000206000915054906101000a900463ffffffff1681565b610e79610aa0565b1515610e8457600080fd5b80600860006101000a81548173ffffffffffffffffffffffffffffffffffffffff021916908373ffffffffffffffffffffffffffffffffffffffff16021790555050565b610ed0610aa0565b1515610edb57600080fd5b80600760006101000a81548173ffffffffffffffffffffffffffffffffffffffff021916908373ffffffffffffffffffffffffffffffffffffffff16021790555050565b60008060008060606000806000610f34611b86565b6001600660024433426001604051602001808581526020018473ffffffffffffffffffffffffffffffffffffffff1673ffffffffffffffffffffffffffffffffffffffff166c010000000000000000000000000281526014018381526020018260ff1660ff167f01000000000000000000000000000000000000000000000000000000000000000281526001019450505050506040516020818303038152906040526040518082805190602001908083835b60208310151561100b5780518252602082019150602081019050602083039250610fe6565b6001836020036101000a0380198251168184511680821785525050505050509050019150506020604051808303816000865af115801561104f573d6000803e3d6000fd5b5050506040513d602081101561106457600080fd5b81019080805190602001909291905050506001900460ff1681151561108557fe5b06019850600160066002443342600b604051602001808581526020018473ffffffffffffffffffffffffffffffffffffffff1673ffffffffffffffffffffffffffffffffffffffff166c010000000000000000000000000281526014018381526020018260ff1660ff167f01000000000000000000000000000000000000000000000000000000000000000281526001019450505050506040516020818303038152906040526040518082805190602001908083835b602083101515611160578051825260208201915060208101905060208303925061113b565b6001836020036101000a0380198251168184511680821785525050505050509050019150506020604051808303816000865af11580156111a4573d6000803e3d6000fd5b5050506040513d60208110156111b957600080fd5b81019080805190602001909291905050506001900460ff168115156111da57fe5b06019750600160066002443342606f604051602001808581526020018473ffffffffffffffffffffffffffffffffffffffff1673ffffffffffffffffffffffffffffffffffffffff166c010000000000000000000000000281526014018381526020018260ff1660ff167f01000000000000000000000000000000000000000000000000000000000000000281526001019450505050506040516020818303038152906040526040518082805190602001908083835b6020831015156112b55780518252602082019150602081019050602083039250611290565b6001836020036101000a0380198251168184511680821785525050505050509050019150506020604051808303816000865af11580156112f9573d6000803e3d6000fd5b5050506040513d602081101561130e57600080fd5b81019080805190602001909291905050506001900460ff1681151561132f57fe5b0601965086888a01019550600460405190808252806020026020018201604052801561136a5781602001602082028038833980820191505090505b5094506000935060048660ff16101580156113895750600a8660ff1611155b156113c2576001858580600101965060ff168151811015156113a757fe5b9060200190602002019060ff16908160ff1681525050611410565b600b8660ff16101580156113da575060118660ff1611155b1561140f576004858580600101965060ff168151811015156113f857fe5b9060200190602002019060ff16908160ff16815250505b5b60058660ff161480611425575060078660ff16145b80611433575060098660ff16145b806114415750600b8660ff16145b8061144f5750600d8660ff16145b8061145d5750600f8660ff16145b8061146b575060118660ff16145b156114a4576002858580600101965060ff1681518110151561148957fe5b9060200190602002019060ff16908160ff1681525050611535565b60048660ff1614806114b9575060068660ff16145b806114c7575060088660ff16145b806114d55750600a8660ff16145b806114e35750600c8660ff16145b806114f15750600e8660ff16145b806114ff575060108660ff16145b15611534576003858580600101965060ff1681518110151561151d57fe5b9060200190602002019060ff16908160ff16815250505b5b8760ff168960ff1614801561154f57508660ff168860ff16145b15611705576007858580600101965060ff1681518110151561156d57fe5b9060200190602002019060ff16908160ff168152505060018960ff1614156115c3576001858580600101965060ff168151811015156115a857fe5b9060200190602002019060ff16908160ff1681525050611704565b60028960ff161415611603576002858580600101965060ff168151811015156115e857fe5b9060200190602002019060ff16908160ff1681525050611703565b60038960ff161415611643576003858580600101965060ff1681518110151561162857fe5b9060200190602002019060ff16908160ff1681525050611702565b60048960ff161415611683576004858580600101965060ff1681518110151561166857fe5b9060200190602002019060ff16908160ff1681525050611701565b60058960ff1614156116c3576005858580600101965060ff168151811015156116a857fe5b9060200190602002019060ff16908160ff1681525050611700565b60068960ff1614156116ff576006858580600101965060ff168151811015156116e857fe5b9060200190602002019060ff16908160ff16815250505b5b5b5b5b5b5b61170f60096119aa565b92505b61171d6009846119dd565b156117435761172d6009846119f1565b9150915061173c600984611b22565b9250611712565b505050505050505050565b60008060008311151561176057600080fd5b828481151561176b57fe5b0490508091505092915050565b60008083831115151561178a57600080fd5b82840390508091505092915050565b60008083600101838154811015156117ad57fe5b90600052602060002090600202016000015491508360000160008381526020019081526020016000206001015490509250929050565b6000808460000160008581526020019081526020016000206000015490508285600001600086815260200190815260200160002060010181905550600081111561183057600191506118a8565b8460010180548091906001016118469190611ba0565b9050600181018560000160008681526020019081526020016000206000018190555083856001018281548110151561187a57fe5b9060005260206000209060020201600001819055508460020160008154809291906001019190505550600091505b509392505050565b600073ffffffffffffffffffffffffffffffffffffffff168173ffffffffffffffffffffffffffffffffffffffff16141515156118ec57600080fd5b8073ffffffffffffffffffffffffffffffffffffffff166000809054906101000a900473ffffffffffffffffffffffffffffffffffffffff1673ffffffffffffffffffffffffffffffffffffffff167f8be0079c531659141344cd1fd0a4f28419497f9722a3daafe3b4186f6b6457e060405160405180910390a3806000806101000a81548173ffffffffffffffffffffffffffffffffffffffff021916908373ffffffffffffffffffffffffffffffffffffffff16021790555050565b60006119d6827fffffffffffffffffffffffffffffffffffffffffffffffffffffffffffffffff611b22565b9050919050565b600082600101805490508210905092915050565b60006119fb611b86565b8360010183815481101515611a0c57fe5b9060005260206000200160000160009054906101000a900473ffffffffffffffffffffffffffffffffffffffff1691508360000160008373ffffffffffffffffffffffffffffffffffffffff1673ffffffffffffffffffffffffffffffffffffffff16815260200190815260200160002060010160408051908101604052908160018201805480602002602001604051908101604052809291908181526020016000905b82821015611b075783829060005260206000209060020201604080519081016040529081600082015481526020016001820160009054906101000a900460ff16151515158152505081526020019060010190611ab0565b50505050815260200160028201548152505090509250929050565b600081806001019250505b826001018054905082108015611b6b57508260010182815481101515611b4f57fe5b9060005260206000200160000160149054906101000a900460ff165b15611b7d578180600101925050611b2d565b81905092915050565b604080519081016040528060608152602001600081525090565b815481835581811115611bcd57600202816002028360005260206000209182019101611bcc9190611bd2565b5b505050565b611c0a91905b80821115611c06576000808201600090556001820160006101000a81549060ff021916905550600201611bd8565b5090565b905600a165627a7a72305820cd192baaeb97977bd81ce0e08fbbc152df63bd2bef1b4200fb4e218e8af9eeac0029",
  "source": "pragma solidity ^0.4.23;\n\n\nimport \"./openzeppelin-solidity/contracts/ownership/Ownable.sol\";\nimport \"./openzeppelin-solidity/contracts/math/SafeMath.sol\";\nimport \"./openzeppelin-solidity/contracts/token/ERC20/IERC20.sol\";\n\n\ncontract CraftDice is Ownable {\n    using SafeMath for uint256;\n    // 5600\n    uint256 constant CAP_MINING_TOKEN = 5600000000;\n    uint256 constant MININGREWARD = 10;\n    uint256 constant MININGFALLOFF = 1;\n    uint256 constant DECIMALS = 6;\n    /**/\n    uint8 constant SMALL = 1;//\n    uint8 constant ODD = 2;//\n    uint8 constant EVEN = 3;//\n    uint8 constant BIG = 4;//\n    uint8 constant THREE_1 = 1;//1\n    uint8 constant THREE_2 = 2;//2\n    uint8 constant THREE_3 = 3;//3\n    uint8 constant THREE_4 = 4;//4\n    uint8 constant THREE_5 = 5;//5\n    uint8 constant THREE_6 = 6;//6\n    uint8 constant THREE_SAME = 7;//\n    uint8 constant SUM_4 = 8;\n    uint8 constant SUM_5 = 9;\n    uint8 constant SUM_6 = 10;\n    uint8 constant SUM_7 = 11;\n    uint8 constant SUM_8 = 12;\n    uint8 constant SUM_9 = 13;\n    uint8 constant SUM_10 = 14;\n    uint8 constant SUM_11 = 15;\n    uint8 constant SUM_12 = 16;\n    uint8 constant SUM_13 = 17;\n    uint8 constant SUM_14 = 18;\n    uint8 constant SUM_15 = 19;\n    uint8 constant SUM_16 = 20;\n    uint8 constant SUM_17 = 21;\n    /**/\n    mapping(uint8 => uint32) public BET_POS_MULTIPLE;\n\n    itmapInner tmp;\n\n    constructor (address _craft, address _minerCFTAddr) public {\n        craftToken = IERC20(_craft);\n        minerCFTAddr = _minerCFTAddr;\n        BET_POS_MULTIPLE[SMALL] = 1;\n        BET_POS_MULTIPLE[ODD] = 1;\n        BET_POS_MULTIPLE[EVEN] = 1;\n        BET_POS_MULTIPLE[BIG] = 1;\n        BET_POS_MULTIPLE[THREE_1] = 150;\n        BET_POS_MULTIPLE[THREE_2] = 150;\n        BET_POS_MULTIPLE[THREE_3] = 150;\n        BET_POS_MULTIPLE[THREE_4] = 150;\n        BET_POS_MULTIPLE[THREE_5] = 150;\n        BET_POS_MULTIPLE[THREE_6] = 150;\n        BET_POS_MULTIPLE[THREE_SAME] = 24;\n        BET_POS_MULTIPLE[SUM_4] = 50;\n        BET_POS_MULTIPLE[SUM_5] = 18;\n        BET_POS_MULTIPLE[SUM_6] = 14;\n        BET_POS_MULTIPLE[SUM_7] = 12;\n        BET_POS_MULTIPLE[SUM_8] = 8;\n        BET_POS_MULTIPLE[SUM_9] = 6;\n        BET_POS_MULTIPLE[SUM_10] = 6;\n        BET_POS_MULTIPLE[SUM_11] = 6;\n        BET_POS_MULTIPLE[SUM_12] = 6;\n        BET_POS_MULTIPLE[SUM_13] = 8;\n        BET_POS_MULTIPLE[SUM_14] = 12;\n        BET_POS_MULTIPLE[SUM_15] = 14;\n        BET_POS_MULTIPLE[SUM_16] = 18;\n        BET_POS_MULTIPLE[SUM_17] = 50;\n    }\n\n    function destroy() onlyOwner public {\n        craftToken.renounceContracter();\n        // transferTRXToTeam(address(this).balance);\n        transferCFTToTeam(craftToken.balanceOf(address(this)));\n        selfdestruct(team);\n    }\n\n    struct itmap\n    {\n        mapping(address => IndexValue) data;\n        KeyFlag[] keys;\n        uint size;\n    }\n\n    struct IndexValue {uint keyIndex; itmapInner value;}\n\n    struct KeyFlag {address key; bool deleted;}\n\n    function insert(itmap storage self, address key, itmapInner value) private view returns (bool replaced)\n    {\n        uint keyIndex = self.data[key].keyIndex;\n        self.data[key].value = value;\n        if (keyIndex > 0) {\n            return true;\n        }\n        else\n        {\n            keyIndex = self.keys.length++;\n            self.data[key].keyIndex = keyIndex + 1;\n            self.keys[keyIndex].key = key;\n            self.size++;\n            return false;\n        }\n    }\n\n    function contains(itmap storage self, address key) private view returns (bool)\n    {\n        return self.data[key].keyIndex > 0;\n    }\n\n    function iterate_start(itmap storage self) private view returns (uint keyIndex)\n    {\n        return iterate_next(self, uint(- 1));\n    }\n\n    function iterate_valid(itmap storage self, uint keyIndex) private view returns (bool)\n    {\n        return keyIndex < self.keys.length;\n    }\n\n    function iterate_next(itmap storage self, uint keyIndex) private view returns (uint r_keyIndex)\n    {\n        keyIndex++;\n        while (keyIndex < self.keys.length && self.keys[keyIndex].deleted) {\n            keyIndex++;\n        }\n        return keyIndex;\n    }\n\n    function iterate_get(itmap storage self, uint keyIndex) private view returns (address key, itmapInner value)\n    {\n        key = self.keys[keyIndex].key;\n        value = self.data[key].value;\n    }\n\n    struct itmapInner\n    {\n        mapping(uint => IndexValueInner) data;\n        KeyFlagInner[] keys;\n        uint size;\n    }\n\n    struct IndexValueInner {uint keyIndex; uint value;}\n\n    struct KeyFlagInner {uint key; bool deleted;}\n\n    function insertInner(itmapInner storage self, uint key, uint value) private view returns (bool replaced)\n    {\n        uint keyIndex = self.data[key].keyIndex;\n        self.data[key].value = value;\n        if (keyIndex > 0) {\n            return true;\n        }\n        else\n        {\n            keyIndex = self.keys.length++;\n            self.data[key].keyIndex = keyIndex + 1;\n            self.keys[keyIndex].key = key;\n            self.size++;\n            return false;\n        }\n    }\n\n    function containsInner(itmapInner storage self, uint key) private view returns (bool)\n    {\n        return self.data[key].keyIndex > 0;\n    }\n\n    function iterate_startInner(itmapInner storage self) private view returns (uint keyIndex)\n    {\n        return iterate_nextInner(self, uint(- 1));\n    }\n\n    function iterate_validInner(itmapInner storage self, uint keyIndex) private view returns (bool)\n    {\n        return keyIndex < self.keys.length;\n    }\n\n    function iterate_nextInner(itmapInner storage self, uint keyIndex) private view returns (uint r_keyIndex)\n    {\n        keyIndex++;\n        while (keyIndex < self.keys.length && self.keys[keyIndex].deleted) {\n            keyIndex++;\n        }\n        return keyIndex;\n    }\n\n    function iterate_getInner(itmapInner storage self, uint keyIndex) private view returns (uint key, uint value)\n    {\n        key = self.keys[keyIndex].key;\n        value = self.data[key].value;\n    }\n\n    address public minerCFTAddr;\n\n    IERC20 craftToken;\n\n    address public team;\n    address public teamCFT;\n    /*map*/\n    itmap betMap;\n\n    function updateTeamAddr(address _addr) onlyOwner public {\n        team = _addr;\n    }\n\n    function updateTeamCFTAddr(address _addr) onlyOwner public {\n        teamCFT = _addr;\n    }\n\n    function transferTRXToTeam(uint256 _amount) onlyOwner public {\n        team.transfer(_amount * 1 sun);\n    }\n\n    function transferCFTToTeam(uint256 _amount) onlyOwner public {\n        craftToken.transfer(teamCFT, _amount);\n    }\n\n    function updateMinerCFTAddr(address _addr) onlyOwner public {\n        minerCFTAddr = _addr;\n    }\n\n    event LogBet(address indexed userAddr, uint256 betMoney, uint256 betPos, uint256 timeStamp);\n\n    event LogBetByCFT(address indexed userAddr, uint256 betMoney, uint256 bonus, uint256 num, uint256 randNum, bool res, uint256 timeStamp);\n\n    function curCFTReward() public view returns (uint256) {\n        uint256 curMiningToken = CAP_MINING_TOKEN.sub(craftToken.balanceOf(minerCFTAddr).div(10 ** DECIMALS));\n        if (curMiningToken < 600000000) {\n            return MININGREWARD;\n        } else if (curMiningToken < 1600000000) {\n            return MININGREWARD - MININGFALLOFF;\n        } else if (curMiningToken < 2600000000) {\n            return MININGREWARD - MININGFALLOFF * 2;\n        } else if (curMiningToken < 3600000000) {\n            return MININGREWARD - MININGFALLOFF * 3;\n        } else if (curMiningToken < 4600000000) {\n            return MININGREWARD - MININGFALLOFF * 4;\n        } else if (curMiningToken < CAP_MINING_TOKEN) {\n            return MININGREWARD - MININGFALLOFF * 5;\n        } else {\n            return 0;\n        }\n    }\n\n    /*\n    \n    */\n    function bet(uint8 betPos) payable public {\n        require(betPos >= SMALL && betPos <= SUM_17, \"bet pos should in [1,21]\");\n        require(msg.value > 0);\n        itmapInner storage userBetMap = betMap.data[address(msg.sender)].value;\n        (uint keyInner, uint valueInner) = iterate_getInner(userBetMap, betPos);\n        userBetMap.data[betPos].value = userBetMap.data[betPos].value + msg.value;\n        insertInner(userBetMap, betPos, msg.value + valueInner);\n        emit LogBet(msg.sender, msg.value, betPos, now);\n        return;\n    }\n\n    /*\n    \n    */\n    function open() public {\n        uint8 diceA = uint8(sha256(abi.encodePacked(block.difficulty, msg.sender, block.timestamp, uint8(1)))) % 6 + 1;\n        uint8 diceB = uint8(sha256(abi.encodePacked(block.difficulty, msg.sender, block.timestamp, uint8(11)))) % 6 + 1;\n        uint8 diceC = uint8(sha256(abi.encodePacked(block.difficulty, msg.sender, block.timestamp, uint8(111)))) % 6 + 1;\n        uint8 sum = diceA + diceB + diceC;\n        //11\n        uint8[] memory results = new uint8[](4);\n        uint8 cursor = 0;\n        if (sum >= 4 && sum <= 10) {\n            results[cursor++] = SMALL;\n        }\n        //11\n        else if (sum >= 11 && sum <= 17) {\n            results[cursor++] = BIG;\n        }\n        //\n        if (sum == 5 || sum == 7 || sum == 9 || sum == 11 || sum == 13 || sum == 15 || sum == 17) {\n            results[cursor++] = ODD;\n        }\n        //\n        else if (sum == 4 || sum == 6 || sum == 8 || sum == 10 || sum == 12 || sum == 14 || sum == 16) {\n            results[cursor++] = EVEN;\n        }\n        //1150\n        if (diceA == diceB && diceB == diceC) {\n            results[cursor++] = THREE_SAME;\n            if (diceA == 1) {\n                results[cursor++] = THREE_1;\n            } else if (diceA == 2) {\n                results[cursor++] = THREE_2;\n            } else if (diceA == 3) {\n                results[cursor++] = THREE_3;\n            } else if (diceA == 4) {\n                results[cursor++] = THREE_4;\n            } else if (diceA == 5) {\n                results[cursor++] = THREE_5;\n            } else if (diceA == 6) {\n                results[cursor++] = THREE_6;\n            }\n        }\n        for (uint i = iterate_start(betMap); iterate_valid(betMap, i); i = iterate_next(betMap, i))\n        {\n            (address key,itmapInner memory value) = iterate_get(betMap, i);\n            //            tmp = value;\n            //            for (uint j = iterate_startInner(tmp); iterate_validInner(tmp, j); j = iterate_nextInner(tmp, j))\n            //            {\n            //                (uint betPos,uint betAmount) = iterate_getInner(tmp, j);\n            //            }\n        }\n        return;\n    }\n\n}",
  "sourcePath": "/Users/yhw/Workspace/rockgame/tronCraft/contracts/CraftDice.sol",
  "compiler": {
    "name": "solc",
    "version": "0.4.24-develop.2018.8.28+commit.3ba0cdec.mod.Emscripten.clang"
  },
  "schemaVersion": "2.0.1",
  "updatedAt": "2018-12-20T10:59:56.433Z"
}