{
  "contractName": "CraftSlots",
  "abi": [
    {
      "constant": false,
      "inputs": [],
      "name": "renounceOwnership",
      "outputs": [],
      "payable": false,
      "stateMutability": "nonpayable",
      "type": "function"
    },
    {
      "constant": true,
      "inputs": [],
      "name": "team",
      "outputs": [
        {
          "name": "",
          "type": "address"
        }
      ],
      "payable": false,
      "stateMutability": "view",
      "type": "function"
    },
    {
      "constant": true,
      "inputs": [],
      "name": "owner",
      "outputs": [
        {
          "name": "",
          "type": "address"
        }
      ],
      "payable": false,
      "stateMutability": "view",
      "type": "function"
    },
    {
      "constant": true,
      "inputs": [],
      "name": "isOwner",
      "outputs": [
        {
          "name": "",
          "type": "bool"
        }
      ],
      "payable": false,
      "stateMutability": "view",
      "type": "function"
    },
    {
      "constant": true,
      "inputs": [],
      "name": "teamCFT",
      "outputs": [
        {
          "name": "",
          "type": "address"
        }
      ],
      "payable": false,
      "stateMutability": "view",
      "type": "function"
    },
    {
      "constant": false,
      "inputs": [
        {
          "name": "newOwner",
          "type": "address"
        }
      ],
      "name": "transferOwnership",
      "outputs": [],
      "payable": false,
      "stateMutability": "nonpayable",
      "type": "function"
    },
    {
      "constant": true,
      "inputs": [],
      "name": "minerCFTAddr",
      "outputs": [
        {
          "name": "",
          "type": "address"
        }
      ],
      "payable": false,
      "stateMutability": "view",
      "type": "function"
    },
    {
      "inputs": [
        {
          "name": "_craft",
          "type": "address"
        },
        {
          "name": "_minerCFTAddr",
          "type": "address"
        }
      ],
      "payable": false,
      "stateMutability": "nonpayable",
      "type": "constructor"
    },
    {
      "payable": true,
      "stateMutability": "payable",
      "type": "fallback"
    },
    {
      "anonymous": false,
      "inputs": [
        {
          "indexed": true,
          "name": "userAddr",
          "type": "address"
        },
        {
          "indexed": false,
          "name": "amount",
          "type": "uint256"
        },
        {
          "indexed": false,
          "name": "bitRecord",
          "type": "string"
        },
        {
          "indexed": false,
          "name": "randType",
          "type": "uint256"
        },
        {
          "indexed": false,
          "name": "bonus",
          "type": "uint256"
        },
        {
          "indexed": false,
          "name": "res",
          "type": "bool"
        },
        {
          "indexed": false,
          "name": "timeStamp",
          "type": "uint256"
        }
      ],
      "name": "LogSlots",
      "type": "event"
    },
    {
      "anonymous": false,
      "inputs": [
        {
          "indexed": true,
          "name": "userAddr",
          "type": "address"
        },
        {
          "indexed": false,
          "name": "amount",
          "type": "uint256"
        },
        {
          "indexed": false,
          "name": "bitRecord",
          "type": "string"
        },
        {
          "indexed": false,
          "name": "randType",
          "type": "uint256"
        },
        {
          "indexed": false,
          "name": "bonus",
          "type": "uint256"
        },
        {
          "indexed": false,
          "name": "res",
          "type": "bool"
        },
        {
          "indexed": false,
          "name": "timeStamp",
          "type": "uint256"
        }
      ],
      "name": "LogSlotsByCFT",
      "type": "event"
    },
    {
      "anonymous": false,
      "inputs": [
        {
          "indexed": true,
          "name": "previousOwner",
          "type": "address"
        },
        {
          "indexed": true,
          "name": "newOwner",
          "type": "address"
        }
      ],
      "name": "OwnershipTransferred",
      "type": "event"
    },
    {
      "constant": false,
      "inputs": [
        {
          "name": "_addr",
          "type": "address"
        }
      ],
      "name": "updateTeamAddr",
      "outputs": [],
      "payable": false,
      "stateMutability": "nonpayable",
      "type": "function"
    },
    {
      "constant": false,
      "inputs": [
        {
          "name": "_addr",
          "type": "address"
        }
      ],
      "name": "updateTeamCFTAddr",
      "outputs": [],
      "payable": false,
      "stateMutability": "nonpayable",
      "type": "function"
    },
    {
      "constant": false,
      "inputs": [
        {
          "name": "_amount",
          "type": "uint256"
        }
      ],
      "name": "transferTRXToTeam",
      "outputs": [],
      "payable": false,
      "stateMutability": "nonpayable",
      "type": "function"
    },
    {
      "constant": false,
      "inputs": [
        {
          "name": "_amount",
          "type": "uint256"
        }
      ],
      "name": "transferCFTToTeam",
      "outputs": [],
      "payable": false,
      "stateMutability": "nonpayable",
      "type": "function"
    },
    {
      "constant": false,
      "inputs": [],
      "name": "destroy",
      "outputs": [],
      "payable": false,
      "stateMutability": "nonpayable",
      "type": "function"
    },
    {
      "constant": false,
      "inputs": [
        {
          "name": "_addr",
          "type": "address"
        }
      ],
      "name": "updateMinerCFTAddr",
      "outputs": [],
      "payable": false,
      "stateMutability": "nonpayable",
      "type": "function"
    },
    {
      "constant": false,
      "inputs": [
        {
          "name": "_stakeArray",
          "type": "uint256[7]"
        },
        {
          "name": "_bitRecord",
          "type": "string"
        }
      ],
      "name": "bet",
      "outputs": [
        {
          "name": "_randType",
          "type": "uint256"
        },
        {
          "name": "_res",
          "type": "bool"
        }
      ],
      "payable": true,
      "stateMutability": "payable",
      "type": "function"
    },
    {
      "constant": true,
      "inputs": [],
      "name": "curCFTReward",
      "outputs": [
        {
          "name": "",
          "type": "uint256"
        }
      ],
      "payable": false,
      "stateMutability": "view",
      "type": "function"
    },
    {
      "constant": false,
      "inputs": [],
      "name": "payMoney",
      "outputs": [],
      "payable": true,
      "stateMutability": "payable",
      "type": "function"
    }
  ],
  "bytecode": "0x608060405260e06040519081016040528061093c61ffff16815260200161049e61ffff16815260200161049e61ffff16815260200161031461ffff16815260200161024f61ffff1681526020016101d961ffff16815260200161015261ffff1681525060019060076200007492919062000304565b5061030060405190810160405280600060ff168152602001600560ff168152602001600660ff168152602001600160ff168152602001600560ff168152602001600360ff168152602001600460ff168152602001600660ff168152602001600260ff168152602001600660ff168152602001600560ff168152602001600460ff168152602001600360ff168152602001600560ff168152602001600660ff168152602001600160ff168152602001600660ff168152602001600360ff168152602001600460ff168152602001600660ff168152602001600260ff168152602001600660ff168152602001600560ff168152602001600460ff168152506008906018620001829291906200034f565b503480156200019057600080fd5b506040516040806200193e8339810180604052810190808051906020019092919080519060200190929190505050336000806101000a81548173ffffffffffffffffffffffffffffffffffffffff021916908373ffffffffffffffffffffffffffffffffffffffff1602179055506000809054906101000a900473ffffffffffffffffffffffffffffffffffffffff1673ffffffffffffffffffffffffffffffffffffffff16600073ffffffffffffffffffffffffffffffffffffffff167f8be0079c531659141344cd1fd0a4f28419497f9722a3daafe3b4186f6b6457e060405160405180910390a381602160006101000a81548173ffffffffffffffffffffffffffffffffffffffff021916908373ffffffffffffffffffffffffffffffffffffffff16021790555080602060006101000a81548173ffffffffffffffffffffffffffffffffffffffff021916908373ffffffffffffffffffffffffffffffffffffffff1602179055505050620003c1565b82600781019282156200033c579160200282015b828111156200033b578251829061ffff1690559160200191906001019062000318565b5b5090506200034b919062000399565b5090565b826018810192821562000386579160200282015b8281111562000385578251829060ff1690559160200191906001019062000363565b5b50905062000395919062000399565b5090565b620003be91905b80821115620003ba576000816000905550600101620003a0565b5090565b90565b61156d80620003d16000396000f3006080604052600436106100e6576000357c0100000000000000000000000000000000000000000000000000000000900463ffffffff1680631dc1c5e3146100e857806331c1a527146100f25780633fcbabd11461011f5780636bf24d75146101c9578063715018a6146101f45780637aa758941461020b57806383197ef01461024e57806385f2aef2146102655780638da5cb5b146102bc5780638f32d59b14610313578063943c831714610342578063ae4d6d0814610399578063f2fde38b146103c6578063f716213a14610409578063fa5af52714610460578063fb690f50146104a3575b005b6100f06104e6565b005b3480156100fe57600080fd5b5061011d600480360381019080803590602001909291905050506104e8565b005b6101a86004803603810190808060e00190600780602002604051908101604052809291908260076020028082843782019150505050509192919290803590602001908201803590602001908080601f016020809104026020016040519081016040528093929190818152602001838380828437820191505050505050919291929050505061056a565b60405180838152602001821515151581526020019250505060405180910390f35b3480156101d557600080fd5b506101de610bc1565b6040518082815260200191505060405180910390f35b34801561020057600080fd5b50610209610db1565b005b34801561021757600080fd5b5061024c600480360381019080803573ffffffffffffffffffffffffffffffffffffffff169060200190929190505050610e83565b005b34801561025a57600080fd5b50610263610eda565b005b34801561027157600080fd5b5061027a6110c6565b604051808273ffffffffffffffffffffffffffffffffffffffff1673ffffffffffffffffffffffffffffffffffffffff16815260200191505060405180910390f35b3480156102c857600080fd5b506102d16110ec565b604051808273ffffffffffffffffffffffffffffffffffffffff1673ffffffffffffffffffffffffffffffffffffffff16815260200191505060405180910390f35b34801561031f57600080fd5b50610328611115565b604051808215151515815260200191505060405180910390f35b34801561034e57600080fd5b5061035761116c565b604051808273ffffffffffffffffffffffffffffffffffffffff1673ffffffffffffffffffffffffffffffffffffffff16815260200191505060405180910390f35b3480156103a557600080fd5b506103c460048036038101908080359060200190929190505050611192565b005b3480156103d257600080fd5b50610407600480360381019080803573ffffffffffffffffffffffffffffffffffffffff1690602001909291905050506112cb565b005b34801561041557600080fd5b5061041e6112ea565b604051808273ffffffffffffffffffffffffffffffffffffffff1673ffffffffffffffffffffffffffffffffffffffff16815260200191505060405180910390f35b34801561046c57600080fd5b506104a1600480360381019080803573ffffffffffffffffffffffffffffffffffffffff169060200190929190505050611310565b005b3480156104af57600080fd5b506104e4600480360381019080803573ffffffffffffffffffffffffffffffffffffffff169060200190929190505050611367565b005b565b6104f0611115565b15156104fb57600080fd5b602260009054906101000a900473ffffffffffffffffffffffffffffffffffffffff1673ffffffffffffffffffffffffffffffffffffffff166108fc600183029081150290604051600060405180830381858888f19350505050158015610566573d6000803e3d6000fd5b5050565b6000806000806000808734600080600080925060009150600090505b60078160ff1610156105dc576000858260ff166007811015156105a557fe5b602002015114156105b557600191505b848160ff166007811015156105c657fe5b6020020151830192508080600101915050610586565b82841480156105e85750815b15156105f357600080fd5b601860024433604051602001808381526020018273ffffffffffffffffffffffffffffffffffffffff1673ffffffffffffffffffffffffffffffffffffffff166c01000000000000000000000000028152601401925050506040516020818303038152906040526040518082805190602001908083835b60208310151561068f578051825260208201915060208101905060208303925061066a565b6001836020036101000a0380198251168184511680821785525050505050509050019150506020604051808303816000865af11580156106d3573d6000803e3d6000fd5b5050506040513d60208110156106e857600080fd5b81019080805190602001909291905050506001900481151561070657fe5b06985060088960188110151561071857fe5b01549750610749600a61073b3461072d610bc1565b6113be90919063ffffffff16565b6113fc90919063ffffffff16565b9650602160009054906101000a900473ffffffffffffffffffffffffffffffffffffffff1673ffffffffffffffffffffffffffffffffffffffff166323b872dd602060009054906101000a900473ffffffffffffffffffffffffffffffffffffffff16338a6040518463ffffffff167c0100000000000000000000000000000000000000000000000000000000028152600401808473ffffffffffffffffffffffffffffffffffffffff1673ffffffffffffffffffffffffffffffffffffffff1681526020018373ffffffffffffffffffffffffffffffffffffffff1673ffffffffffffffffffffffffffffffffffffffff1681526020018281526020019350505050602060405180830381600087803b15801561086657600080fd5b505af115801561087a573d6000803e3d6000fd5b505050506040513d602081101561089057600080fd5b81019080805190602001909291905050505060008d896007811015156108b257fe5b6020020151141515610ac95761090660646108f88f8b6007811015156108d457fe5b602002015160018c6007811015156108e857fe5b01546113be90919063ffffffff16565b6113fc90919063ffffffff16565b95503073ffffffffffffffffffffffffffffffffffffffff163186101515610996576040517f08c379a000000000000000000000000000000000000000000000000000000000815260040180806020018281038252601b8152602001807f47726561746572207468616e20636f6e7472616374206d6f6e6579000000000081525060200191505060405180910390fd5b3373ffffffffffffffffffffffffffffffffffffffff166108fc600188029081150290604051600060405180830381858888f193505050501580156109df573d6000803e3d6000fd5b503373ffffffffffffffffffffffffffffffffffffffff167ffb2c64b19527b3f6b7d4652b0e4382af4b26d28bc886ee4c07de5cff1b4dd3b2348e8b8a600142604051808781526020018060200186815260200185815260200184151515158152602001838152602001828103825287818151815260200191508051906020019080838360005b83811015610a81578082015181840152602081019050610a66565b50505050905090810190601f168015610aae5780820380516001836020036101000a031916815260200191505b5097505050505050505060405180910390a260019950610bae565b3373ffffffffffffffffffffffffffffffffffffffff167ffb2c64b19527b3f6b7d4652b0e4382af4b26d28bc886ee4c07de5cff1b4dd3b2348e8b60008042604051808781526020018060200186815260200185815260200184151515158152602001838152602001828103825287818151815260200191508051906020019080838360005b83811015610b6a578082015181840152602081019050610b4f565b50505050905090810190601f168015610b975780820380516001836020036101000a031916815260200191505b5097505050505050505060405180910390a2600099505b889a505050505050505050509250929050565b600080610d0b610cf76006600a0a602160009054906101000a900473ffffffffffffffffffffffffffffffffffffffff1673ffffffffffffffffffffffffffffffffffffffff166370a08231602060009054906101000a900473ffffffffffffffffffffffffffffffffffffffff166040518263ffffffff167c0100000000000000000000000000000000000000000000000000000000028152600401808273ffffffffffffffffffffffffffffffffffffffff1673ffffffffffffffffffffffffffffffffffffffff168152602001915050602060405180830381600087803b158015610cae57600080fd5b505af1158015610cc2573d6000803e3d6000fd5b505050506040513d6020811015610cd857600080fd5b81019080805190602001909291905050506113fc90919063ffffffff16565b64014dc9380061142690919063ffffffff16565b90506323c34600811015610d2257600a9150610dad565b635f5e1000811015610d3a576001600a039150610dad565b639af8da00811015610d55576002600102600a039150610dad565b63d693a400811015610d70576003600102600a039150610dad565b6401122e6e00811015610d8c576004600102600a039150610dad565b64014dc93800811015610da8576005600102600a039150610dad565b600091505b5090565b610db9611115565b1515610dc457600080fd5b600073ffffffffffffffffffffffffffffffffffffffff166000809054906101000a900473ffffffffffffffffffffffffffffffffffffffff1673ffffffffffffffffffffffffffffffffffffffff167f8be0079c531659141344cd1fd0a4f28419497f9722a3daafe3b4186f6b6457e060405160405180910390a360008060006101000a81548173ffffffffffffffffffffffffffffffffffffffff021916908373ffffffffffffffffffffffffffffffffffffffff160217905550565b610e8b611115565b1515610e9657600080fd5b80602060006101000a81548173ffffffffffffffffffffffffffffffffffffffff021916908373ffffffffffffffffffffffffffffffffffffffff16021790555050565b610ee2611115565b1515610eed57600080fd5b602160009054906101000a900473ffffffffffffffffffffffffffffffffffffffff1673ffffffffffffffffffffffffffffffffffffffff1663e57513506040518163ffffffff167c0100000000000000000000000000000000000000000000000000000000028152600401600060405180830381600087803b158015610f7357600080fd5b505af1158015610f87573d6000803e3d6000fd5b5050505061108b602160009054906101000a900473ffffffffffffffffffffffffffffffffffffffff1673ffffffffffffffffffffffffffffffffffffffff166370a08231306040518263ffffffff167c0100000000000000000000000000000000000000000000000000000000028152600401808273ffffffffffffffffffffffffffffffffffffffff1673ffffffffffffffffffffffffffffffffffffffff168152602001915050602060405180830381600087803b15801561104b57600080fd5b505af115801561105f573d6000803e3d6000fd5b505050506040513d602081101561107557600080fd5b8101908080519060200190929190505050611192565b602260009054906101000a900473ffffffffffffffffffffffffffffffffffffffff1673ffffffffffffffffffffffffffffffffffffffff16ff5b602260009054906101000a900473ffffffffffffffffffffffffffffffffffffffff1681565b60008060009054906101000a900473ffffffffffffffffffffffffffffffffffffffff16905090565b60008060009054906101000a900473ffffffffffffffffffffffffffffffffffffffff1673ffffffffffffffffffffffffffffffffffffffff163373ffffffffffffffffffffffffffffffffffffffff1614905090565b602360009054906101000a900473ffffffffffffffffffffffffffffffffffffffff1681565b61119a611115565b15156111a557600080fd5b602160009054906101000a900473ffffffffffffffffffffffffffffffffffffffff1673ffffffffffffffffffffffffffffffffffffffff1663a9059cbb602360009054906101000a900473ffffffffffffffffffffffffffffffffffffffff16836040518363ffffffff167c0100000000000000000000000000000000000000000000000000000000028152600401808373ffffffffffffffffffffffffffffffffffffffff1673ffffffffffffffffffffffffffffffffffffffff16815260200182815260200192505050602060405180830381600087803b15801561128c57600080fd5b505af11580156112a0573d6000803e3d6000fd5b505050506040513d60208110156112b657600080fd5b81019080805190602001909291905050505050565b6112d3611115565b15156112de57600080fd5b6112e781611447565b50565b602060009054906101000a900473ffffffffffffffffffffffffffffffffffffffff1681565b611318611115565b151561132357600080fd5b80602360006101000a81548173ffffffffffffffffffffffffffffffffffffffff021916908373ffffffffffffffffffffffffffffffffffffffff16021790555050565b61136f611115565b151561137a57600080fd5b80602260006101000a81548173ffffffffffffffffffffffffffffffffffffffff021916908373ffffffffffffffffffffffffffffffffffffffff16021790555050565b60008060008414156113d357600091506113f5565b82840290508284828115156113e457fe5b041415156113f157600080fd5b8091505b5092915050565b60008060008311151561140e57600080fd5b828481151561141957fe5b0490508091505092915050565b60008083831115151561143857600080fd5b82840390508091505092915050565b600073ffffffffffffffffffffffffffffffffffffffff168173ffffffffffffffffffffffffffffffffffffffff161415151561148357600080fd5b8073ffffffffffffffffffffffffffffffffffffffff166000809054906101000a900473ffffffffffffffffffffffffffffffffffffffff1673ffffffffffffffffffffffffffffffffffffffff167f8be0079c531659141344cd1fd0a4f28419497f9722a3daafe3b4186f6b6457e060405160405180910390a3806000806101000a81548173ffffffffffffffffffffffffffffffffffffffff021916908373ffffffffffffffffffffffffffffffffffffffff160217905550505600a165627a7a7230582067c894edc748ac7ee7502b1665a567b55c7bb4dd4c18be0a84beb48b52a74ee20029",
  "source": "pragma solidity ^0.4.23;\n\n\nimport \"./openzeppelin-solidity/contracts/ownership/Ownable.sol\";\nimport \"./openzeppelin-solidity/contracts/math/SafeMath.sol\";\nimport \"./openzeppelin-solidity/contracts/token/ERC20/IERC20.sol\";\n\n\ncontract CraftSlots is Ownable {\n    using SafeMath for uint256;\n\n    uint256 constant CAPMININGTOKEN = 5600000000;\n    uint256 constant MININGREWARD = 10;\n    uint256 constant MININGFALLOFF = 1;\n    uint256 constant DECIMALS = 6;\n\n    uint256[7] private odds = [2364, 1182, 1182, 788, 591, 473, 338];\n    uint256[24] private order = [0, 5, 6, 1, 5, 3, 4, 6, 2, 6, 5, 4, 3, 5, 6, 1, 6, 3, 4, 6, 2, 6, 5, 4];\n\n    address public minerCFTAddr;\n\n    IERC20 craftToken;\n\n    address public team;\n    address public teamCFT;\n\n    function updateTeamAddr(address _addr) onlyOwner public {\n        team = _addr;\n    }\n\n    function updateTeamCFTAddr(address _addr) onlyOwner public {\n        teamCFT = _addr;\n    }\n\n    function transferTRXToTeam(uint256 _amount) onlyOwner public {\n        team.transfer(_amount * 1 sun);\n    }\n\n    function transferCFTToTeam(uint256 _amount) onlyOwner public {\n        craftToken.transfer(teamCFT, _amount);\n    }\n\n    function destroy() onlyOwner public {\n        craftToken.renounceContracter();\n        // transferTRXToTeam(address(this).balance);\n        transferCFTToTeam(craftToken.balanceOf(address(this)));\n        selfdestruct(team);\n    }\n\n    modifier isSumOk(uint256[7] _arr, uint256 _amount) {\n        uint256 _sum = 0;\n        bool _judge = false;\n        for (uint8 i = 0; i < 7; i++) {\n            if (_arr[i] == 0) {\n                _judge = true;\n            }\n            _sum = _sum + _arr[i];\n        }\n        require(_amount == _sum && _judge);\n        _;\n    }\n\n    constructor (address _craft, address _minerCFTAddr) public {\n        craftToken = IERC20(_craft);\n        minerCFTAddr = _minerCFTAddr;\n    }\n\n    function updateMinerCFTAddr(address _addr) onlyOwner public {\n        minerCFTAddr = _addr;\n    }\n\n    event LogSlots(address indexed userAddr, uint256 amount, string bitRecord, uint256 randType, uint256 bonus, bool res, uint256 timeStamp);\n\n    event LogSlotsByCFT(address indexed userAddr, uint256 amount, string bitRecord, uint256 randType, uint256 bonus, bool res, uint256 timeStamp);\n\n    function bet(uint256[7] _stakeArray, string _bitRecord) payable isSumOk(_stakeArray, msg.value) public returns (uint256 _randType, bool _res){\n        uint256 randNum = uint256(sha256(abi.encodePacked(block.difficulty, msg.sender))) % 24;\n        uint256 curType = order[randNum];\n\n        //distributed CFT\n        uint256 cftReward = curCFTReward().mul(msg.value).div(10);\n        craftToken.transferFrom(minerCFTAddr, msg.sender, cftReward);\n\n        //distributed bonus\n        if (_stakeArray[curType] != 0) {\n            uint256 bonus = odds[curType].mul(_stakeArray[curType]).div(100);\n            require(bonus < address(this).balance, \"Greater than contract money\");\n            msg.sender.transfer(bonus * 1 sun);\n            emit LogSlots(msg.sender, msg.value, _bitRecord, curType, bonus, true, now);\n            _res = true;\n        } else {\n            emit LogSlots(msg.sender, msg.value, _bitRecord, curType, 0, false, now);\n            _res = false;\n        }\n        _randType = randNum;\n        return;\n    }\n\n    function curCFTReward() public view returns (uint256) {\n        uint256 curMiningToken = CAPMININGTOKEN.sub(craftToken.balanceOf(minerCFTAddr).div(10 ** DECIMALS));\n        if (curMiningToken < 600000000) {\n            return MININGREWARD;\n        } else if (curMiningToken < 1600000000) {\n            return MININGREWARD - MININGFALLOFF;\n        } else if (curMiningToken < 2600000000) {\n            return MININGREWARD - MININGFALLOFF * 2;\n        } else if (curMiningToken < 3600000000) {\n            return MININGREWARD - MININGFALLOFF * 3;\n        } else if (curMiningToken < 4600000000) {\n            return MININGREWARD - MININGFALLOFF * 4;\n        } else if (curMiningToken < CAPMININGTOKEN) {\n            return MININGREWARD - MININGFALLOFF * 5;\n        } else {\n            return 0;\n        }\n    }\n\n//    function betByCFT(uint256 _cftAmount, uint256[7] _stakeArray, string _bitRecord) isSumOk(_stakeArray, _cftAmount) public returns (uint256 _randType, bool _res){\n//        uint256 randNum = uint256(sha256(abi.encodePacked(block.difficulty, msg.sender))) % 24;\n//        uint256 curType = order[randNum];\n//        //distributed bonus\n//        if (_stakeArray[curType] != 0) {\n//            uint256 bonus = odds[curType].mul(_stakeArray[curType]).div(100);\n//            require(craftToken.transferFromByCraft(msg.sender, address(this), _cftAmount, bonus));\n//            craftToken.transfer(msg.sender, bonus);\n//            emit LogSlotsByCFT(msg.sender, _cftAmount, _bitRecord, curType, bonus, true, now);\n//            _res = true;\n//        } else {\n//            require(craftToken.transferFromByCraft(msg.sender, address(this), _cftAmount, 0));\n//            emit LogSlotsByCFT(msg.sender, _cftAmount, _bitRecord, curType, 0, false, now);\n//            _res = false;\n//        }\n//        _randType = randNum;\n//        return;\n//    }\n\n    function() payable public {}\n\n    function payMoney() payable public {}\n}\n\n",
  "sourcePath": "/Users/yhw/Workspace/rockgame/tronCraft/contracts/CraftSlots.sol",
  "compiler": {
    "name": "solc",
    "version": "0.4.24-develop.2018.8.28+commit.3ba0cdec.mod.Emscripten.clang"
  },
  "schemaVersion": "2.0.1",
  "updatedAt": "2018-12-19T08:04:50.159Z"
}