{
  "contractName": "MapInMap",
  "abi": [
    {
      "constant": false,
      "inputs": [],
      "name": "renounceOwnership",
      "outputs": [],
      "payable": false,
      "stateMutability": "nonpayable",
      "type": "function"
    },
    {
      "constant": true,
      "inputs": [],
      "name": "team",
      "outputs": [
        {
          "name": "",
          "type": "address"
        }
      ],
      "payable": false,
      "stateMutability": "view",
      "type": "function"
    },
    {
      "constant": true,
      "inputs": [],
      "name": "owner",
      "outputs": [
        {
          "name": "",
          "type": "address"
        }
      ],
      "payable": false,
      "stateMutability": "view",
      "type": "function"
    },
    {
      "constant": true,
      "inputs": [],
      "name": "isOwner",
      "outputs": [
        {
          "name": "",
          "type": "bool"
        }
      ],
      "payable": false,
      "stateMutability": "view",
      "type": "function"
    },
    {
      "constant": true,
      "inputs": [],
      "name": "teamCFT",
      "outputs": [
        {
          "name": "",
          "type": "address"
        }
      ],
      "payable": false,
      "stateMutability": "view",
      "type": "function"
    },
    {
      "constant": false,
      "inputs": [
        {
          "name": "newOwner",
          "type": "address"
        }
      ],
      "name": "transferOwnership",
      "outputs": [],
      "payable": false,
      "stateMutability": "nonpayable",
      "type": "function"
    },
    {
      "constant": true,
      "inputs": [],
      "name": "minerCFTAddr",
      "outputs": [
        {
          "name": "",
          "type": "address"
        }
      ],
      "payable": false,
      "stateMutability": "view",
      "type": "function"
    },
    {
      "constant": true,
      "inputs": [
        {
          "name": "",
          "type": "uint8"
        }
      ],
      "name": "BET_POS_MULTIPLE",
      "outputs": [
        {
          "name": "",
          "type": "uint32"
        }
      ],
      "payable": false,
      "stateMutability": "view",
      "type": "function"
    },
    {
      "inputs": [
        {
          "name": "_craft",
          "type": "address"
        },
        {
          "name": "_minerCFTAddr",
          "type": "address"
        }
      ],
      "payable": false,
      "stateMutability": "nonpayable",
      "type": "constructor"
    },
    {
      "anonymous": false,
      "inputs": [
        {
          "indexed": true,
          "name": "userAddr",
          "type": "address"
        },
        {
          "indexed": false,
          "name": "betMoney",
          "type": "uint256"
        },
        {
          "indexed": false,
          "name": "betPos",
          "type": "uint256"
        },
        {
          "indexed": false,
          "name": "timeStamp",
          "type": "uint256"
        }
      ],
      "name": "LogBet",
      "type": "event"
    },
    {
      "anonymous": false,
      "inputs": [
        {
          "indexed": true,
          "name": "previousOwner",
          "type": "address"
        },
        {
          "indexed": true,
          "name": "newOwner",
          "type": "address"
        }
      ],
      "name": "OwnershipTransferred",
      "type": "event"
    },
    {
      "constant": false,
      "inputs": [],
      "name": "destroy",
      "outputs": [],
      "payable": false,
      "stateMutability": "nonpayable",
      "type": "function"
    },
    {
      "constant": false,
      "inputs": [
        {
          "name": "_addr",
          "type": "address"
        }
      ],
      "name": "updateTeamAddr",
      "outputs": [],
      "payable": false,
      "stateMutability": "nonpayable",
      "type": "function"
    },
    {
      "constant": false,
      "inputs": [
        {
          "name": "_addr",
          "type": "address"
        }
      ],
      "name": "updateTeamCFTAddr",
      "outputs": [],
      "payable": false,
      "stateMutability": "nonpayable",
      "type": "function"
    },
    {
      "constant": false,
      "inputs": [
        {
          "name": "_amount",
          "type": "uint256"
        }
      ],
      "name": "transferTRXToTeam",
      "outputs": [],
      "payable": false,
      "stateMutability": "nonpayable",
      "type": "function"
    },
    {
      "constant": false,
      "inputs": [
        {
          "name": "_amount",
          "type": "uint256"
        }
      ],
      "name": "transferCFTToTeam",
      "outputs": [],
      "payable": false,
      "stateMutability": "nonpayable",
      "type": "function"
    },
    {
      "constant": false,
      "inputs": [
        {
          "name": "_addr",
          "type": "address"
        }
      ],
      "name": "updateMinerCFTAddr",
      "outputs": [],
      "payable": false,
      "stateMutability": "nonpayable",
      "type": "function"
    },
    {
      "constant": true,
      "inputs": [],
      "name": "curCFTReward",
      "outputs": [
        {
          "name": "",
          "type": "uint256"
        }
      ],
      "payable": false,
      "stateMutability": "view",
      "type": "function"
    },
    {
      "constant": true,
      "inputs": [],
      "name": "getRunning",
      "outputs": [
        {
          "name": "",
          "type": "bool"
        }
      ],
      "payable": false,
      "stateMutability": "view",
      "type": "function"
    },
    {
      "constant": false,
      "inputs": [],
      "name": "betStart",
      "outputs": [],
      "payable": false,
      "stateMutability": "nonpayable",
      "type": "function"
    },
    {
      "constant": false,
      "inputs": [],
      "name": "betStop",
      "outputs": [],
      "payable": false,
      "stateMutability": "nonpayable",
      "type": "function"
    },
    {
      "constant": false,
      "inputs": [
        {
          "name": "betPos",
          "type": "uint8"
        }
      ],
      "name": "bet",
      "outputs": [],
      "payable": true,
      "stateMutability": "payable",
      "type": "function"
    },
    {
      "constant": false,
      "inputs": [],
      "name": "open",
      "outputs": [],
      "payable": false,
      "stateMutability": "nonpayable",
      "type": "function"
    },
    {
      "constant": false,
      "inputs": [
        {
          "name": "results",
          "type": "uint8[]"
        }
      ],
      "name": "sendAward",
      "outputs": [],
      "payable": true,
      "stateMutability": "payable",
      "type": "function"
    }
  ],
  "bytecode": "0x608060405234801561001057600080fd5b5060405160408061269b8339810180604052810190808051906020019092919080519060200190929190505050336000806101000a81548173ffffffffffffffffffffffffffffffffffffffff021916908373ffffffffffffffffffffffffffffffffffffffff1602179055506000809054906101000a900473ffffffffffffffffffffffffffffffffffffffff1673ffffffffffffffffffffffffffffffffffffffff16600073ffffffffffffffffffffffffffffffffffffffff167f8be0079c531659141344cd1fd0a4f28419497f9722a3daafe3b4186f6b6457e060405160405180910390a381600360006101000a81548173ffffffffffffffffffffffffffffffffffffffff021916908373ffffffffffffffffffffffffffffffffffffffff16021790555080600260006101000a81548173ffffffffffffffffffffffffffffffffffffffff021916908373ffffffffffffffffffffffffffffffffffffffff1602179055506001806000600160ff1660ff16815260200190815260200160002060006101000a81548163ffffffff021916908363ffffffff1602179055506001806000600260ff1660ff16815260200190815260200160002060006101000a81548163ffffffff021916908363ffffffff1602179055506001806000600360ff1660ff16815260200190815260200160002060006101000a81548163ffffffff021916908363ffffffff1602179055506001806000600460ff1660ff16815260200190815260200160002060006101000a81548163ffffffff021916908363ffffffff160217905550609660016000600160ff1660ff16815260200190815260200160002060006101000a81548163ffffffff021916908363ffffffff160217905550609660016000600260ff1660ff16815260200190815260200160002060006101000a81548163ffffffff021916908363ffffffff160217905550609660016000600360ff1660ff16815260200190815260200160002060006101000a81548163ffffffff021916908363ffffffff160217905550609660016000600460ff1660ff16815260200190815260200160002060006101000a81548163ffffffff021916908363ffffffff160217905550609660016000600560ff1660ff16815260200190815260200160002060006101000a81548163ffffffff021916908363ffffffff160217905550609660016000600660ff1660ff16815260200190815260200160002060006101000a81548163ffffffff021916908363ffffffff160217905550601860016000600760ff1660ff16815260200190815260200160002060006101000a81548163ffffffff021916908363ffffffff160217905550603260016000600860ff1660ff16815260200190815260200160002060006101000a81548163ffffffff021916908363ffffffff160217905550601260016000600960ff1660ff16815260200190815260200160002060006101000a81548163ffffffff021916908363ffffffff160217905550600e60016000600a60ff1660ff16815260200190815260200160002060006101000a81548163ffffffff021916908363ffffffff160217905550600c60016000600b60ff1660ff16815260200190815260200160002060006101000a81548163ffffffff021916908363ffffffff160217905550600860016000600c60ff1660ff16815260200190815260200160002060006101000a81548163ffffffff021916908363ffffffff160217905550600660016000600d60ff1660ff16815260200190815260200160002060006101000a81548163ffffffff021916908363ffffffff160217905550600660016000600e60ff1660ff16815260200190815260200160002060006101000a81548163ffffffff021916908363ffffffff160217905550600660016000600f60ff1660ff16815260200190815260200160002060006101000a81548163ffffffff021916908363ffffffff160217905550600660016000601060ff1660ff16815260200190815260200160002060006101000a81548163ffffffff021916908363ffffffff160217905550600860016000601160ff1660ff16815260200190815260200160002060006101000a81548163ffffffff021916908363ffffffff160217905550600c60016000601260ff1660ff16815260200190815260200160002060006101000a81548163ffffffff021916908363ffffffff160217905550600e60016000601360ff1660ff16815260200190815260200160002060006101000a81548163ffffffff021916908363ffffffff160217905550601260016000601460ff1660ff16815260200190815260200160002060006101000a81548163ffffffff021916908363ffffffff160217905550603260016000601560ff1660ff16815260200190815260200160002060006101000a81548163ffffffff021916908363ffffffff1602179055505050611f69806107326000396000f30060806040526004361061011d576000357c0100000000000000000000000000000000000000000000000000000000900463ffffffff16806331c1a527146101225780633924f0891461014f5780636bf24d751461017e578063715018a6146101a95780637aa75894146101c057806383197ef01461020357806385f2aef21461021a578063870198e4146102715780638da5cb5b146102ca5780638f32d59b14610321578063943c8317146103505780639cfc14fd146103a7578063ad8b2c77146103be578063ae4d6d08146103d5578063d0821b0e14610402578063f2fde38b14610425578063f716213a14610468578063f7b550f6146104bf578063fa5af5271461050f578063fb690f5014610552578063fcfff16f14610595575b600080fd5b34801561012e57600080fd5b5061014d600480360381019080803590602001909291905050506105ac565b005b34801561015b57600080fd5b5061016461062e565b604051808215151515815260200191505060405180910390f35b34801561018a57600080fd5b50610193610645565b6040518082815260200191505060405180910390f35b3480156101b557600080fd5b506101be610835565b005b3480156101cc57600080fd5b50610201600480360381019080803573ffffffffffffffffffffffffffffffffffffffff169060200190929190505050610907565b005b34801561020f57600080fd5b5061021861095e565b005b34801561022657600080fd5b5061022f610b4a565b604051808273ffffffffffffffffffffffffffffffffffffffff1673ffffffffffffffffffffffffffffffffffffffff16815260200191505060405180910390f35b6102c860048036038101908080359060200190820180359060200190808060200260200160405190810160405280939291908181526020018383602002808284378201915050505050509192919290505050610b70565b005b3480156102d657600080fd5b506102df610f88565b604051808273ffffffffffffffffffffffffffffffffffffffff1673ffffffffffffffffffffffffffffffffffffffff16815260200191505060405180910390f35b34801561032d57600080fd5b50610336610fb1565b604051808215151515815260200191505060405180910390f35b34801561035c57600080fd5b50610365611008565b604051808273ffffffffffffffffffffffffffffffffffffffff1673ffffffffffffffffffffffffffffffffffffffff16815260200191505060405180910390f35b3480156103b357600080fd5b506103bc61102e565b005b3480156103ca57600080fd5b506103d361105e565b005b3480156103e157600080fd5b506104006004803603810190808035906020019092919050505061108e565b005b610423600480360381019080803560ff1690602001909291905050506111c7565b005b34801561043157600080fd5b50610466600480360381019080803573ffffffffffffffffffffffffffffffffffffffff169060200190929190505050611427565b005b34801561047457600080fd5b5061047d611446565b604051808273ffffffffffffffffffffffffffffffffffffffff1673ffffffffffffffffffffffffffffffffffffffff16815260200191505060405180910390f35b3480156104cb57600080fd5b506104ed600480360381019080803560ff16906020019092919050505061146c565b604051808263ffffffff1663ffffffff16815260200191505060405180910390f35b34801561051b57600080fd5b50610550600480360381019080803573ffffffffffffffffffffffffffffffffffffffff16906020019092919050505061148f565b005b34801561055e57600080fd5b50610593600480360381019080803573ffffffffffffffffffffffffffffffffffffffff1690602001909291905050506114e6565b005b3480156105a157600080fd5b506105aa61153d565b005b6105b4610fb1565b15156105bf57600080fd5b600460009054906101000a900473ffffffffffffffffffffffffffffffffffffffff1673ffffffffffffffffffffffffffffffffffffffff166108fc600183029081150290604051600060405180830381858888f1935050505015801561062a573d6000803e3d6000fd5b5050565b6000600760009054906101000a900460ff16905090565b60008061078f61077b6006600a0a600360009054906101000a900473ffffffffffffffffffffffffffffffffffffffff1673ffffffffffffffffffffffffffffffffffffffff166370a08231600260009054906101000a900473ffffffffffffffffffffffffffffffffffffffff166040518263ffffffff167c0100000000000000000000000000000000000000000000000000000000028152600401808273ffffffffffffffffffffffffffffffffffffffff1673ffffffffffffffffffffffffffffffffffffffff168152602001915050602060405180830381600087803b15801561073257600080fd5b505af1158015610746573d6000803e3d6000fd5b505050506040513d602081101561075c57600080fd5b8101908080519060200190929190505050611d2990919063ffffffff16565b64014dc93800611d5390919063ffffffff16565b90506323c346008110156107a657600a9150610831565b635f5e10008110156107be576001600a039150610831565b639af8da008110156107d9576002600102600a039150610831565b63d693a4008110156107f4576003600102600a039150610831565b6401122e6e00811015610810576004600102600a039150610831565b64014dc9380081101561082c576005600102600a039150610831565b600091505b5090565b61083d610fb1565b151561084857600080fd5b600073ffffffffffffffffffffffffffffffffffffffff166000809054906101000a900473ffffffffffffffffffffffffffffffffffffffff1673ffffffffffffffffffffffffffffffffffffffff167f8be0079c531659141344cd1fd0a4f28419497f9722a3daafe3b4186f6b6457e060405160405180910390a360008060006101000a81548173ffffffffffffffffffffffffffffffffffffffff021916908373ffffffffffffffffffffffffffffffffffffffff160217905550565b61090f610fb1565b151561091a57600080fd5b80600260006101000a81548173ffffffffffffffffffffffffffffffffffffffff021916908373ffffffffffffffffffffffffffffffffffffffff16021790555050565b610966610fb1565b151561097157600080fd5b600360009054906101000a900473ffffffffffffffffffffffffffffffffffffffff1673ffffffffffffffffffffffffffffffffffffffff1663e57513506040518163ffffffff167c0100000000000000000000000000000000000000000000000000000000028152600401600060405180830381600087803b1580156109f757600080fd5b505af1158015610a0b573d6000803e3d6000fd5b50505050610b0f600360009054906101000a900473ffffffffffffffffffffffffffffffffffffffff1673ffffffffffffffffffffffffffffffffffffffff166370a08231306040518263ffffffff167c0100000000000000000000000000000000000000000000000000000000028152600401808273ffffffffffffffffffffffffffffffffffffffff1673ffffffffffffffffffffffffffffffffffffffff168152602001915050602060405180830381600087803b158015610acf57600080fd5b505af1158015610ae3573d6000803e3d6000fd5b505050506040513d6020811015610af957600080fd5b810190808051906020019092919050505061108e565b600460009054906101000a900473ffffffffffffffffffffffffffffffffffffffff1673ffffffffffffffffffffffffffffffffffffffff16ff5b600460009054906101000a900473ffffffffffffffffffffffffffffffffffffffff1681565b600080600080610b7e611e6e565b600080600080610b8c611e6e565b60008099505b8b518a1015610cdd578b8a815181101515610ba957fe5b906020019060200201519850600097505b600680549050881015610cd057600688815481101515610bd657fe5b9060005260206000209060020201606060405190810160405290816000820160009054906101000a900473ffffffffffffffffffffffffffffffffffffffff1673ffffffffffffffffffffffffffffffffffffffff1673ffffffffffffffffffffffffffffffffffffffff1681526020016000820160149054906101000a900460ff1660ff1660ff1681526020016001820154815250509650866020015160ff168960ff161415610cc35760016000886020015160ff1660ff16815260200190815260200160002060009054906101000a900463ffffffff1663ffffffff168760400151029550858b019a505b8780600101985050610bba565b89806001019a5050610b92565b3073ffffffffffffffffffffffffffffffffffffffff16318b11151515610d6c576040517f08c379a00000000000000000000000000000000000000000000000000000000081526004018080602001828103825260178152602001807f6e6f7420656e6f756768206d6f6e657920746f2070617900000000000000000081525060200191505060405180910390fd5b600094505b8b51851015610f6a578b85815181101515610d8857fe5b906020019060200201519350600092505b600680549050831015610f5d57600683815481101515610db557fe5b9060005260206000209060020201606060405190810160405290816000820160009054906101000a900473ffffffffffffffffffffffffffffffffffffffff1673ffffffffffffffffffffffffffffffffffffffff1673ffffffffffffffffffffffffffffffffffffffff1681526020016000820160149054906101000a900460ff1660ff1660ff1681526020016001820154815250509150816020015160ff168460ff161415610f505760016000836020015160ff1660ff16815260200190815260200160002060009054906101000a900463ffffffff1663ffffffff168260400151029050816000015173ffffffffffffffffffffffffffffffffffffffff167f063f4540040cf99a22f577ef321c170763020e6277e47275ed9b3d17ec14e13d82846020015142604051808481526020018360ff168152602001828152602001935050505060405180910390a23373ffffffffffffffffffffffffffffffffffffffff166108fc600183029081150290604051600060405180830381858888f19350505050158015610f4e573d6000803e3d6000fd5b505b8280600101935050610d99565b8480600101955050610d71565b6000600681610f799190611ea9565b50505050505050505050505050565b60008060009054906101000a900473ffffffffffffffffffffffffffffffffffffffff16905090565b60008060009054906101000a900473ffffffffffffffffffffffffffffffffffffffff1673ffffffffffffffffffffffffffffffffffffffff163373ffffffffffffffffffffffffffffffffffffffff1614905090565b600560009054906101000a900473ffffffffffffffffffffffffffffffffffffffff1681565b611036610fb1565b151561104157600080fd5b6000600760006101000a81548160ff021916908315150217905550565b611066610fb1565b151561107157600080fd5b6001600760006101000a81548160ff021916908315150217905550565b611096610fb1565b15156110a157600080fd5b600360009054906101000a900473ffffffffffffffffffffffffffffffffffffffff1673ffffffffffffffffffffffffffffffffffffffff1663a9059cbb600560009054906101000a900473ffffffffffffffffffffffffffffffffffffffff16836040518363ffffffff167c0100000000000000000000000000000000000000000000000000000000028152600401808373ffffffffffffffffffffffffffffffffffffffff1673ffffffffffffffffffffffffffffffffffffffff16815260200182815260200192505050602060405180830381600087803b15801561118857600080fd5b505af115801561119c573d6000803e3d6000fd5b505050506040513d60208110156111b257600080fd5b81019080805190602001909291905050505050565b600760009054906101000a900460ff16151561124b576040517f08c379a00000000000000000000000000000000000000000000000000000000081526004018080602001828103825260168152602001807f63616e27742062657420617420746869732074696d650000000000000000000081525060200191505060405180910390fd5b600160ff168160ff16101580156112695750601560ff168160ff1611155b15156112dd576040517f08c379a00000000000000000000000000000000000000000000000000000000081526004018080602001828103825260188152602001807f62657420706f732073686f756c6420696e205b312c32315d000000000000000081525060200191505060405180910390fd5b6000341115156112ec57600080fd5b60066060604051908101604052803373ffffffffffffffffffffffffffffffffffffffff1681526020018360ff168152602001348152509080600181540180825580915050906001820390600052602060002090600202016000909192909190915060008201518160000160006101000a81548173ffffffffffffffffffffffffffffffffffffffff021916908373ffffffffffffffffffffffffffffffffffffffff16021790555060208201518160000160146101000a81548160ff021916908360ff160217905550604082015181600101555050503373ffffffffffffffffffffffffffffffffffffffff167f063f4540040cf99a22f577ef321c170763020e6277e47275ed9b3d17ec14e13d348342604051808481526020018360ff168152602001828152602001935050505060405180910390a250565b61142f610fb1565b151561143a57600080fd5b61144381611d74565b50565b600260009054906101000a900473ffffffffffffffffffffffffffffffffffffffff1681565b60016020528060005260406000206000915054906101000a900463ffffffff1681565b611497610fb1565b15156114a257600080fd5b80600560006101000a81548173ffffffffffffffffffffffffffffffffffffffff021916908373ffffffffffffffffffffffffffffffffffffffff16021790555050565b6114ee610fb1565b15156114f957600080fd5b80600460006101000a81548173ffffffffffffffffffffffffffffffffffffffff021916908373ffffffffffffffffffffffffffffffffffffffff16021790555050565b600080600080606060006001600660024433426001604051602001808581526020018473ffffffffffffffffffffffffffffffffffffffff1673ffffffffffffffffffffffffffffffffffffffff166c010000000000000000000000000281526014018381526020018260ff1660ff167f01000000000000000000000000000000000000000000000000000000000000000281526001019450505050506040516020818303038152906040526040518082805190602001908083835b60208310151561161e57805182526020820191506020810190506020830392506115f9565b6001836020036101000a0380198251168184511680821785525050505050509050019150506020604051808303816000865af1158015611662573d6000803e3d6000fd5b5050506040513d602081101561167757600080fd5b81019080805190602001909291905050506001900460ff1681151561169857fe5b06019550600160066002443342600b604051602001808581526020018473ffffffffffffffffffffffffffffffffffffffff1673ffffffffffffffffffffffffffffffffffffffff166c010000000000000000000000000281526014018381526020018260ff1660ff167f01000000000000000000000000000000000000000000000000000000000000000281526001019450505050506040516020818303038152906040526040518082805190602001908083835b602083101515611773578051825260208201915060208101905060208303925061174e565b6001836020036101000a0380198251168184511680821785525050505050509050019150506020604051808303816000865af11580156117b7573d6000803e3d6000fd5b5050506040513d60208110156117cc57600080fd5b81019080805190602001909291905050506001900460ff168115156117ed57fe5b06019450600160066002443342606f604051602001808581526020018473ffffffffffffffffffffffffffffffffffffffff1673ffffffffffffffffffffffffffffffffffffffff166c010000000000000000000000000281526014018381526020018260ff1660ff167f01000000000000000000000000000000000000000000000000000000000000000281526001019450505050506040516020818303038152906040526040518082805190602001908083835b6020831015156118c857805182526020820191506020810190506020830392506118a3565b6001836020036101000a0380198251168184511680821785525050505050509050019150506020604051808303816000865af115801561190c573d6000803e3d6000fd5b5050506040513d602081101561192157600080fd5b81019080805190602001909291905050506001900460ff1681151561194257fe5b0601935083858701019250600460405190808252806020026020018201604052801561197d5781602001602082028038833980820191505090505b5091506000905060048360ff161015801561199c5750600a8360ff1611155b156119d5576001828280600101935060ff168151811015156119ba57fe5b9060200190602002019060ff16908160ff1681525050611a23565b600b8360ff16101580156119ed575060118360ff1611155b15611a22576004828280600101935060ff16815181101515611a0b57fe5b9060200190602002019060ff16908160ff16815250505b5b60058360ff161480611a38575060078360ff16145b80611a46575060098360ff16145b80611a545750600b8360ff16145b80611a625750600d8360ff16145b80611a705750600f8360ff16145b80611a7e575060118360ff16145b15611ab7576002828280600101935060ff16815181101515611a9c57fe5b9060200190602002019060ff16908160ff1681525050611b48565b60048360ff161480611acc575060068360ff16145b80611ada575060088360ff16145b80611ae85750600a8360ff16145b80611af65750600c8360ff16145b80611b045750600e8360ff16145b80611b12575060108360ff16145b15611b47576003828280600101935060ff16815181101515611b3057fe5b9060200190602002019060ff16908160ff16815250505b5b8460ff168660ff16148015611b6257508360ff168560ff16145b15611d18576007828280600101935060ff16815181101515611b8057fe5b9060200190602002019060ff16908160ff168152505060018660ff161415611bd6576001828280600101935060ff16815181101515611bbb57fe5b9060200190602002019060ff16908160ff1681525050611d17565b60028660ff161415611c16576002828280600101935060ff16815181101515611bfb57fe5b9060200190602002019060ff16908160ff1681525050611d16565b60038660ff161415611c56576003828280600101935060ff16815181101515611c3b57fe5b9060200190602002019060ff16908160ff1681525050611d15565b60048660ff161415611c96576004828280600101935060ff16815181101515611c7b57fe5b9060200190602002019060ff16908160ff1681525050611d14565b60058660ff161415611cd6576005828280600101935060ff16815181101515611cbb57fe5b9060200190602002019060ff16908160ff1681525050611d13565b60068660ff161415611d12576006828280600101935060ff16815181101515611cfb57fe5b9060200190602002019060ff16908160ff16815250505b5b5b5b5b5b5b611d2182610b70565b505050505050565b600080600083111515611d3b57600080fd5b8284811515611d4657fe5b0490508091505092915050565b600080838311151515611d6557600080fd5b82840390508091505092915050565b600073ffffffffffffffffffffffffffffffffffffffff168173ffffffffffffffffffffffffffffffffffffffff1614151515611db057600080fd5b8073ffffffffffffffffffffffffffffffffffffffff166000809054906101000a900473ffffffffffffffffffffffffffffffffffffffff1673ffffffffffffffffffffffffffffffffffffffff167f8be0079c531659141344cd1fd0a4f28419497f9722a3daafe3b4186f6b6457e060405160405180910390a3806000806101000a81548173ffffffffffffffffffffffffffffffffffffffff021916908373ffffffffffffffffffffffffffffffffffffffff16021790555050565b606060405190810160405280600073ffffffffffffffffffffffffffffffffffffffff168152602001600060ff168152602001600081525090565b815481835581811115611ed657600202816002028360005260206000209182019101611ed59190611edb565b5b505050565b611f3a91905b80821115611f3657600080820160006101000a81549073ffffffffffffffffffffffffffffffffffffffff02191690556000820160146101000a81549060ff0219169055600182016000905550600201611ee1565b5090565b905600a165627a7a723058201da1a144b5ebe82340daa4080106c8bbba4c2cdca419397780b590b4772ed5de0029",
  "source": "pragma solidity ^0.4.23;\n\n\nimport \"./openzeppelin-solidity/contracts/ownership/Ownable.sol\";\nimport \"./openzeppelin-solidity/contracts/math/SafeMath.sol\";\nimport \"./openzeppelin-solidity/contracts/token/ERC20/IERC20.sol\";\n\n\ncontract MapInMap is Ownable {\n    using SafeMath for uint256;\n    // 5600\n    uint256 constant CAP_MINING_TOKEN = 5600000000;\n    uint256 constant MININGREWARD = 10;\n    uint256 constant MININGFALLOFF = 1;\n    uint256 constant DECIMALS = 6;\n    /**/\n    uint8 constant SMALL = 1;//\n    uint8 constant ODD = 2;//\n    uint8 constant EVEN = 3;//\n    uint8 constant BIG = 4;//\n    uint8 constant THREE_1 = 1;//1\n    uint8 constant THREE_2 = 2;//2\n    uint8 constant THREE_3 = 3;//3\n    uint8 constant THREE_4 = 4;//4\n    uint8 constant THREE_5 = 5;//5\n    uint8 constant THREE_6 = 6;//6\n    uint8 constant THREE_SAME = 7;//\n    uint8 constant SUM_4 = 8;\n    uint8 constant SUM_5 = 9;\n    uint8 constant SUM_6 = 10;\n    uint8 constant SUM_7 = 11;\n    uint8 constant SUM_8 = 12;\n    uint8 constant SUM_9 = 13;\n    uint8 constant SUM_10 = 14;\n    uint8 constant SUM_11 = 15;\n    uint8 constant SUM_12 = 16;\n    uint8 constant SUM_13 = 17;\n    uint8 constant SUM_14 = 18;\n    uint8 constant SUM_15 = 19;\n    uint8 constant SUM_16 = 20;\n    uint8 constant SUM_17 = 21;\n    /**/\n    mapping(uint8 => uint32) public BET_POS_MULTIPLE;\n\n    constructor (address _craft, address _minerCFTAddr) public {\n        craftToken = IERC20(_craft);\n        minerCFTAddr = _minerCFTAddr;\n        BET_POS_MULTIPLE[SMALL] = 1;\n        BET_POS_MULTIPLE[ODD] = 1;\n        BET_POS_MULTIPLE[EVEN] = 1;\n        BET_POS_MULTIPLE[BIG] = 1;\n        BET_POS_MULTIPLE[THREE_1] = 150;\n        BET_POS_MULTIPLE[THREE_2] = 150;\n        BET_POS_MULTIPLE[THREE_3] = 150;\n        BET_POS_MULTIPLE[THREE_4] = 150;\n        BET_POS_MULTIPLE[THREE_5] = 150;\n        BET_POS_MULTIPLE[THREE_6] = 150;\n        BET_POS_MULTIPLE[THREE_SAME] = 24;\n        BET_POS_MULTIPLE[SUM_4] = 50;\n        BET_POS_MULTIPLE[SUM_5] = 18;\n        BET_POS_MULTIPLE[SUM_6] = 14;\n        BET_POS_MULTIPLE[SUM_7] = 12;\n        BET_POS_MULTIPLE[SUM_8] = 8;\n        BET_POS_MULTIPLE[SUM_9] = 6;\n        BET_POS_MULTIPLE[SUM_10] = 6;\n        BET_POS_MULTIPLE[SUM_11] = 6;\n        BET_POS_MULTIPLE[SUM_12] = 6;\n        BET_POS_MULTIPLE[SUM_13] = 8;\n        BET_POS_MULTIPLE[SUM_14] = 12;\n        BET_POS_MULTIPLE[SUM_15] = 14;\n        BET_POS_MULTIPLE[SUM_16] = 18;\n        BET_POS_MULTIPLE[SUM_17] = 50;\n    }\n\n    function destroy() public onlyOwner {\n        craftToken.renounceContracter();\n        // transferTRXToTeam(address(this).balance);\n        transferCFTToTeam(craftToken.balanceOf(address(this)));\n        selfdestruct(team);\n    }\n\n\n    address public minerCFTAddr;\n\n    IERC20 craftToken;\n\n    address public team;\n    address public teamCFT;\n\n    function updateTeamAddr(address _addr) onlyOwner public {\n        team = _addr;\n    }\n\n    function updateTeamCFTAddr(address _addr) onlyOwner public {\n        teamCFT = _addr;\n    }\n\n    function transferTRXToTeam(uint256 _amount) onlyOwner public {\n        team.transfer(_amount * 1 sun);\n    }\n\n    function transferCFTToTeam(uint256 _amount) onlyOwner public {\n        craftToken.transfer(teamCFT, _amount);\n    }\n\n    function updateMinerCFTAddr(address _addr) onlyOwner public {\n        minerCFTAddr = _addr;\n    }\n\n    event LogBet(address indexed userAddr, uint256 betMoney, uint256 betPos, uint256 timeStamp);\n\n    struct Bet {\n        address user;\n        uint8 betPos;\n        uint betAmount;\n    }\n\n    function curCFTReward() public view returns (uint256) {\n        uint256 curMiningToken = CAP_MINING_TOKEN.sub(craftToken.balanceOf(minerCFTAddr).div(10 ** DECIMALS));\n        if (curMiningToken < 600000000) {\n            return MININGREWARD;\n        } else if (curMiningToken < 1600000000) {\n            return MININGREWARD - MININGFALLOFF;\n        } else if (curMiningToken < 2600000000) {\n            return MININGREWARD - MININGFALLOFF * 2;\n        } else if (curMiningToken < 3600000000) {\n            return MININGREWARD - MININGFALLOFF * 3;\n        } else if (curMiningToken < 4600000000) {\n            return MININGREWARD - MININGFALLOFF * 4;\n        } else if (curMiningToken < CAP_MINING_TOKEN) {\n            return MININGREWARD - MININGFALLOFF * 5;\n        } else {\n            return 0;\n        }\n    }\n\n    Bet[] betList;\n\n    bool running;\n\n    function getRunning() public view returns (bool){\n        return running;\n    }\n\n    function betStart() onlyOwner {\n        running = true;\n    }\n\n    function betStop() onlyOwner {\n        running = false;\n    }\n\n    /*\n    \n    */\n    function bet(uint8 betPos) payable public {\n        require(running, \"can't bet at this time\");\n        require(betPos >= SMALL && betPos <= SUM_17, \"bet pos should in [1,21]\");\n        require(msg.value > 0);\n        betList.push(Bet({user : msg.sender, betPos : betPos, betAmount : msg.value}));\n        emit LogBet(msg.sender, msg.value, betPos, now);\n        return;\n    }\n\n    /*\n    \n    */\n    function open() public {\n        uint8 diceA = uint8(sha256(abi.encodePacked(block.difficulty, msg.sender, block.timestamp, uint8(1)))) % 6 + 1;\n        uint8 diceB = uint8(sha256(abi.encodePacked(block.difficulty, msg.sender, block.timestamp, uint8(11)))) % 6 + 1;\n        uint8 diceC = uint8(sha256(abi.encodePacked(block.difficulty, msg.sender, block.timestamp, uint8(111)))) % 6 + 1;\n        uint8 sum = diceA + diceB + diceC;\n        //11\n        uint8[] memory results = new uint8[](4);\n        uint8 cursor = 0;\n        if (sum >= 4 && sum <= 10) {\n            results[cursor++] = SMALL;\n        }\n        //11\n        else if (sum >= 11 && sum <= 17) {\n            results[cursor++] = BIG;\n        }\n        //\n        if (sum == 5 || sum == 7 || sum == 9 || sum == 11 || sum == 13 || sum == 15 || sum == 17) {\n            results[cursor++] = ODD;\n        }\n        //\n        else if (sum == 4 || sum == 6 || sum == 8 || sum == 10 || sum == 12 || sum == 14 || sum == 16) {\n            results[cursor++] = EVEN;\n        }\n        //1150\n        if (diceA == diceB && diceB == diceC) {\n            results[cursor++] = THREE_SAME;\n            if (diceA == 1) {\n                results[cursor++] = THREE_1;\n            } else if (diceA == 2) {\n                results[cursor++] = THREE_2;\n            } else if (diceA == 3) {\n                results[cursor++] = THREE_3;\n            } else if (diceA == 4) {\n                results[cursor++] = THREE_4;\n            } else if (diceA == 5) {\n                results[cursor++] = THREE_5;\n            } else if (diceA == 6) {\n                results[cursor++] = THREE_6;\n            }\n        }\n        sendAward(results);\n    }\n\n    function sendAward(uint8[] results) public payable {\n        uint totalToPay;\n        for (uint i = 0; i < results.length; i++)\n        {\n            uint8 winPos = results[i];\n            for (uint j = 0; j < betList.length; j++)\n            {\n                Bet memory userBet = betList[j];\n                if (winPos == userBet.betPos) {\n                    uint win = userBet.betAmount * BET_POS_MULTIPLE[userBet.betPos];\n                    totalToPay += win;\n                }\n            }\n        }\n        require(totalToPay <= address(this).balance, \"not enough money to pay\");\n        for (uint x = 0; x < results.length; x++)\n        {\n            uint8 winPos1 = results[x];\n            for (uint y = 0; y < betList.length; y++)\n            {\n                Bet memory userBet1 = betList[y];\n                if (winPos1 == userBet1.betPos) {\n                    uint win1 = userBet1.betAmount * BET_POS_MULTIPLE[userBet1.betPos];\n                    emit LogBet(userBet1.user, win1, userBet1.betPos, now);\n                    msg.sender.transfer(win1 * 1 sun);\n                }\n            }\n        }\n        betList.length = 0;\n    }\n}",
  "sourcePath": "/Users/yhw/Workspace/rockgame/tronCraft/contracts/MapInMap.sol",
  "compiler": {
    "name": "solc",
    "version": "0.4.24-develop.2018.8.28+commit.3ba0cdec.mod.Emscripten.clang"
  },
  "schemaVersion": "2.0.1",
  "updatedAt": "2018-12-21T07:32:54.454Z"
}