{
  "contractName": "Sicbo",
  "abi": [
    {
      "constant": false,
      "inputs": [],
      "name": "renounceOwnership",
      "outputs": [],
      "payable": false,
      "stateMutability": "nonpayable",
      "type": "function"
    },
    {
      "constant": true,
      "inputs": [],
      "name": "team",
      "outputs": [
        {
          "name": "",
          "type": "address"
        }
      ],
      "payable": false,
      "stateMutability": "view",
      "type": "function"
    },
    {
      "constant": true,
      "inputs": [],
      "name": "owner",
      "outputs": [
        {
          "name": "",
          "type": "address"
        }
      ],
      "payable": false,
      "stateMutability": "view",
      "type": "function"
    },
    {
      "constant": true,
      "inputs": [],
      "name": "isOwner",
      "outputs": [
        {
          "name": "",
          "type": "bool"
        }
      ],
      "payable": false,
      "stateMutability": "view",
      "type": "function"
    },
    {
      "constant": true,
      "inputs": [],
      "name": "teamCFT",
      "outputs": [
        {
          "name": "",
          "type": "address"
        }
      ],
      "payable": false,
      "stateMutability": "view",
      "type": "function"
    },
    {
      "constant": false,
      "inputs": [
        {
          "name": "newOwner",
          "type": "address"
        }
      ],
      "name": "transferOwnership",
      "outputs": [],
      "payable": false,
      "stateMutability": "nonpayable",
      "type": "function"
    },
    {
      "constant": true,
      "inputs": [],
      "name": "minerCFTAddr",
      "outputs": [
        {
          "name": "",
          "type": "address"
        }
      ],
      "payable": false,
      "stateMutability": "view",
      "type": "function"
    },
    {
      "constant": true,
      "inputs": [
        {
          "name": "",
          "type": "uint8"
        }
      ],
      "name": "BET_POS_MULTIPLE",
      "outputs": [
        {
          "name": "",
          "type": "uint32"
        }
      ],
      "payable": false,
      "stateMutability": "view",
      "type": "function"
    },
    {
      "inputs": [
        {
          "name": "_craft",
          "type": "address"
        },
        {
          "name": "_minerCFTAddr",
          "type": "address"
        }
      ],
      "payable": false,
      "stateMutability": "nonpayable",
      "type": "constructor"
    },
    {
      "anonymous": false,
      "inputs": [
        {
          "indexed": true,
          "name": "userAddr",
          "type": "address"
        },
        {
          "indexed": false,
          "name": "betMoney",
          "type": "uint256"
        },
        {
          "indexed": false,
          "name": "betPos",
          "type": "uint256"
        },
        {
          "indexed": false,
          "name": "timeStamp",
          "type": "uint256"
        }
      ],
      "name": "LogBet",
      "type": "event"
    },
    {
      "anonymous": false,
      "inputs": [
        {
          "indexed": false,
          "name": "a",
          "type": "uint8"
        },
        {
          "indexed": false,
          "name": "b",
          "type": "uint8"
        },
        {
          "indexed": false,
          "name": "c",
          "type": "uint8"
        },
        {
          "indexed": false,
          "name": "timeStamp",
          "type": "uint256"
        }
      ],
      "name": "LogDice",
      "type": "event"
    },
    {
      "anonymous": false,
      "inputs": [
        {
          "indexed": true,
          "name": "userAddr",
          "type": "address"
        },
        {
          "indexed": false,
          "name": "betMoney",
          "type": "uint256"
        },
        {
          "indexed": false,
          "name": "betPos",
          "type": "uint256"
        },
        {
          "indexed": false,
          "name": "timeStamp",
          "type": "uint256"
        },
        {
          "indexed": false,
          "name": "win",
          "type": "uint256"
        }
      ],
      "name": "LogWin",
      "type": "event"
    },
    {
      "anonymous": false,
      "inputs": [
        {
          "indexed": true,
          "name": "userAddr",
          "type": "address"
        },
        {
          "indexed": false,
          "name": "timeStamp",
          "type": "uint256"
        }
      ],
      "name": "Lottery",
      "type": "event"
    },
    {
      "anonymous": false,
      "inputs": [
        {
          "indexed": true,
          "name": "previousOwner",
          "type": "address"
        },
        {
          "indexed": true,
          "name": "newOwner",
          "type": "address"
        }
      ],
      "name": "OwnershipTransferred",
      "type": "event"
    },
    {
      "constant": false,
      "inputs": [],
      "name": "destroy",
      "outputs": [],
      "payable": false,
      "stateMutability": "nonpayable",
      "type": "function"
    },
    {
      "constant": false,
      "inputs": [
        {
          "name": "_addr",
          "type": "address"
        }
      ],
      "name": "updateTeamAddr",
      "outputs": [],
      "payable": false,
      "stateMutability": "nonpayable",
      "type": "function"
    },
    {
      "constant": false,
      "inputs": [
        {
          "name": "_addr",
          "type": "address"
        }
      ],
      "name": "updateTeamCFTAddr",
      "outputs": [],
      "payable": false,
      "stateMutability": "nonpayable",
      "type": "function"
    },
    {
      "constant": false,
      "inputs": [
        {
          "name": "_amount",
          "type": "uint256"
        }
      ],
      "name": "transferTRXToTeam",
      "outputs": [],
      "payable": false,
      "stateMutability": "nonpayable",
      "type": "function"
    },
    {
      "constant": false,
      "inputs": [
        {
          "name": "_amount",
          "type": "uint256"
        }
      ],
      "name": "transferCFTToTeam",
      "outputs": [],
      "payable": false,
      "stateMutability": "nonpayable",
      "type": "function"
    },
    {
      "constant": false,
      "inputs": [
        {
          "name": "_addr",
          "type": "address"
        }
      ],
      "name": "updateMinerCFTAddr",
      "outputs": [],
      "payable": false,
      "stateMutability": "nonpayable",
      "type": "function"
    },
    {
      "constant": true,
      "inputs": [],
      "name": "curCFTReward",
      "outputs": [
        {
          "name": "",
          "type": "uint256"
        }
      ],
      "payable": false,
      "stateMutability": "view",
      "type": "function"
    },
    {
      "constant": true,
      "inputs": [],
      "name": "getBetList",
      "outputs": [
        {
          "components": [
            {
              "name": "user",
              "type": "address"
            },
            {
              "name": "betPos",
              "type": "uint8"
            },
            {
              "name": "betAmount",
              "type": "uint256"
            }
          ],
          "name": "",
          "type": "tuple[]"
        }
      ],
      "payable": false,
      "stateMutability": "view",
      "type": "function"
    },
    {
      "constant": true,
      "inputs": [],
      "name": "getLotteryUserList",
      "outputs": [
        {
          "name": "",
          "type": "address[]"
        }
      ],
      "payable": false,
      "stateMutability": "view",
      "type": "function"
    },
    {
      "constant": true,
      "inputs": [],
      "name": "getRecentAddressCursor",
      "outputs": [
        {
          "name": "",
          "type": "uint8"
        }
      ],
      "payable": false,
      "stateMutability": "view",
      "type": "function"
    },
    {
      "constant": true,
      "inputs": [],
      "name": "getRunning",
      "outputs": [
        {
          "name": "",
          "type": "bool"
        }
      ],
      "payable": false,
      "stateMutability": "view",
      "type": "function"
    },
    {
      "constant": false,
      "inputs": [],
      "name": "betStart",
      "outputs": [],
      "payable": false,
      "stateMutability": "nonpayable",
      "type": "function"
    },
    {
      "constant": false,
      "inputs": [],
      "name": "betStop",
      "outputs": [],
      "payable": false,
      "stateMutability": "nonpayable",
      "type": "function"
    },
    {
      "constant": true,
      "inputs": [],
      "name": "getVA",
      "outputs": [
        {
          "name": "",
          "type": "uint256"
        }
      ],
      "payable": false,
      "stateMutability": "view",
      "type": "function"
    },
    {
      "constant": true,
      "inputs": [],
      "name": "getVB",
      "outputs": [
        {
          "name": "",
          "type": "uint256"
        }
      ],
      "payable": false,
      "stateMutability": "view",
      "type": "function"
    },
    {
      "constant": false,
      "inputs": [
        {
          "name": "betPos",
          "type": "uint8"
        }
      ],
      "name": "bet",
      "outputs": [],
      "payable": true,
      "stateMutability": "payable",
      "type": "function"
    },
    {
      "constant": false,
      "inputs": [],
      "name": "open",
      "outputs": [],
      "payable": false,
      "stateMutability": "nonpayable",
      "type": "function"
    },
    {
      "constant": false,
      "inputs": [
        {
          "name": "count",
          "type": "uint256"
        }
      ],
      "name": "lotteryOpen",
      "outputs": [],
      "payable": false,
      "stateMutability": "nonpayable",
      "type": "function"
    },
    {
      "constant": false,
      "inputs": [
        {
          "name": "results",
          "type": "uint8[]"
        }
      ],
      "name": "sendAward",
      "outputs": [],
      "payable": true,
      "stateMutability": "payable",
      "type": "function"
    }
  ],
  "bytecode": "0x60806040523480156200001157600080fd5b5060405160408062003510833981018060405262000033919081019062000735565b336000806101000a81548173ffffffffffffffffffffffffffffffffffffffff021916908373ffffffffffffffffffffffffffffffffffffffff1602179055506000809054906101000a900473ffffffffffffffffffffffffffffffffffffffff1673ffffffffffffffffffffffffffffffffffffffff16600073ffffffffffffffffffffffffffffffffffffffff167f8be0079c531659141344cd1fd0a4f28419497f9722a3daafe3b4186f6b6457e060405160405180910390a381600360006101000a81548173ffffffffffffffffffffffffffffffffffffffff021916908373ffffffffffffffffffffffffffffffffffffffff16021790555080600260006101000a81548173ffffffffffffffffffffffffffffffffffffffff021916908373ffffffffffffffffffffffffffffffffffffffff1602179055506001806000600160ff1660ff16815260200190815260200160002060006101000a81548163ffffffff021916908363ffffffff1602179055506001806000600260ff1660ff16815260200190815260200160002060006101000a81548163ffffffff021916908363ffffffff1602179055506001806000600360ff1660ff16815260200190815260200160002060006101000a81548163ffffffff021916908363ffffffff1602179055506001806000600460ff1660ff16815260200190815260200160002060006101000a81548163ffffffff021916908363ffffffff160217905550609660016000600160ff1660ff16815260200190815260200160002060006101000a81548163ffffffff021916908363ffffffff160217905550609660016000600260ff1660ff16815260200190815260200160002060006101000a81548163ffffffff021916908363ffffffff160217905550609660016000600360ff1660ff16815260200190815260200160002060006101000a81548163ffffffff021916908363ffffffff160217905550609660016000600460ff1660ff16815260200190815260200160002060006101000a81548163ffffffff021916908363ffffffff160217905550609660016000600560ff1660ff16815260200190815260200160002060006101000a81548163ffffffff021916908363ffffffff160217905550609660016000600660ff1660ff16815260200190815260200160002060006101000a81548163ffffffff021916908363ffffffff160217905550601860016000600760ff1660ff16815260200190815260200160002060006101000a81548163ffffffff021916908363ffffffff160217905550603260016000600860ff1660ff16815260200190815260200160002060006101000a81548163ffffffff021916908363ffffffff160217905550601260016000600960ff1660ff16815260200190815260200160002060006101000a81548163ffffffff021916908363ffffffff160217905550600e60016000600a60ff1660ff16815260200190815260200160002060006101000a81548163ffffffff021916908363ffffffff160217905550600c60016000600b60ff1660ff16815260200190815260200160002060006101000a81548163ffffffff021916908363ffffffff160217905550600860016000600c60ff1660ff16815260200190815260200160002060006101000a81548163ffffffff021916908363ffffffff160217905550600660016000600d60ff1660ff16815260200190815260200160002060006101000a81548163ffffffff021916908363ffffffff160217905550600660016000600e60ff1660ff16815260200190815260200160002060006101000a81548163ffffffff021916908363ffffffff160217905550600660016000600f60ff1660ff16815260200190815260200160002060006101000a81548163ffffffff021916908363ffffffff160217905550600660016000601060ff1660ff16815260200190815260200160002060006101000a81548163ffffffff021916908363ffffffff160217905550600860016000601160ff1660ff16815260200190815260200160002060006101000a81548163ffffffff021916908363ffffffff160217905550600c60016000601260ff1660ff16815260200190815260200160002060006101000a81548163ffffffff021916908363ffffffff160217905550600e60016000601360ff1660ff16815260200190815260200160002060006101000a81548163ffffffff021916908363ffffffff160217905550601260016000601460ff1660ff16815260200190815260200160002060006101000a81548163ffffffff021916908363ffffffff160217905550603260016000601560ff1660ff16815260200190815260200160002060006101000a81548163ffffffff021916908363ffffffff160217905550505062000796565b60006200072d825162000776565b905092915050565b600080604083850312156200074957600080fd5b600062000759858286016200071f565b92505060206200076c858286016200071f565b9150509250929050565b600073ffffffffffffffffffffffffffffffffffffffff82169050919050565b612d6a80620007a66000396000f30060806040526004361061015f576000357c0100000000000000000000000000000000000000000000000000000000900463ffffffff168063304a2ca31461016457806331c1a5271461018f5780633924f089146101b857806351141631146101e35780636bf24d751461020e578063715018a6146102395780637aa758941461025057806383197ef01461027957806385f2aef214610290578063870198e4146102bb5780638da5cb5b146102d75780638f32d59b14610302578063943c83171461032d5780639c388988146103585780639cfc14fd14610383578063ad8b2c771461039a578063ae4d6d08146103b1578063b5199140146103da578063bbb9d50f14610403578063ca612aef1461042e578063d0821b0e14610459578063f2fde38b14610475578063f716213a1461049e578063f7b550f6146104c9578063fa5af52714610506578063fb690f501461052f578063fcfff16f14610558575b600080fd5b34801561017057600080fd5b5061017961056f565b6040516101869190612acd565b60405180910390f35b34801561019b57600080fd5b506101b660048036036101b191908101906126db565b610579565b005b3480156101c457600080fd5b506101cd6105fb565b6040516101da9190612a32565b60405180910390f35b3480156101ef57600080fd5b506101f8610612565b6040516102059190612acd565b60405180910390f35b34801561021a57600080fd5b5061022361061c565b6040516102309190612acd565b60405180910390f35b34801561024557600080fd5b5061024e6107dd565b005b34801561025c57600080fd5b506102776004803603610272919081019061261f565b6108af565b005b34801561028557600080fd5b5061028e610906565b005b34801561029c57600080fd5b506102a5610ae3565b6040516102b291906129aa565b60405180910390f35b6102d560048036036102d09190810190612648565b610b09565b005b3480156102e357600080fd5b506102ec610ef1565b6040516102f991906129aa565b60405180910390f35b34801561030e57600080fd5b50610317610f1a565b6040516103249190612a32565b60405180910390f35b34801561033957600080fd5b50610342610f71565b60405161034f91906129aa565b60405180910390f35b34801561036457600080fd5b5061036d610f97565b60405161037a9190612b7f565b60405180910390f35b34801561038f57600080fd5b50610398610fae565b005b3480156103a657600080fd5b506103af610fde565b005b3480156103bd57600080fd5b506103d860048036036103d391908101906126db565b61100e565b005b3480156103e657600080fd5b5061040160048036036103fc91908101906126db565b611112565b005b34801561040f57600080fd5b506104186114ab565b60405161042591906129ee565b60405180910390f35b34801561043a57600080fd5b50610443611539565b6040516104509190612a10565b60405180910390f35b610473600480360361046e919081019061272d565b611616565b005b34801561048157600080fd5b5061049c6004803603610497919081019061261f565b6119d8565b005b3480156104aa57600080fd5b506104b36119f7565b6040516104c091906129aa565b60405180910390f35b3480156104d557600080fd5b506104f060048036036104eb919081019061272d565b611a1d565b6040516104fd9190612b64565b60405180910390f35b34801561051257600080fd5b5061052d6004803603610528919081019061261f565b611a40565b005b34801561053b57600080fd5b506105566004803603610551919081019061261f565b611a97565b005b34801561056457600080fd5b5061056d611aee565b005b6000600a54905090565b610581610f1a565b151561058c57600080fd5b600460009054906101000a900473ffffffffffffffffffffffffffffffffffffffff1673ffffffffffffffffffffffffffffffffffffffff166108fc600183029081150290604051600060405180830381858888f193505050501580156105f7573d6000803e3d6000fd5b5050565b6000600860019054906101000a900460ff16905090565b6000600954905090565b6000806107376107236006600a0a600360009054906101000a900473ffffffffffffffffffffffffffffffffffffffff1673ffffffffffffffffffffffffffffffffffffffff166370a08231600260009054906101000a900473ffffffffffffffffffffffffffffffffffffffff166040518263ffffffff167c01000000000000000000000000000000000000000000000000000000000281526004016106c391906129aa565b602060405180830381600087803b1580156106dd57600080fd5b505af11580156106f1573d6000803e3d6000fd5b505050506040513d601f19601f820116820180604052506107159190810190612704565b61230e90919063ffffffff16565b64014dc9380061233890919063ffffffff16565b90506323c3460081101561074e57600a91506107d9565b635f5e1000811015610766576001600a0391506107d9565b639af8da00811015610781576002600102600a0391506107d9565b63d693a40081101561079c576003600102600a0391506107d9565b6401122e6e008110156107b8576004600102600a0391506107d9565b64014dc938008110156107d4576005600102600a0391506107d9565b600091505b5090565b6107e5610f1a565b15156107f057600080fd5b600073ffffffffffffffffffffffffffffffffffffffff166000809054906101000a900473ffffffffffffffffffffffffffffffffffffffff1673ffffffffffffffffffffffffffffffffffffffff167f8be0079c531659141344cd1fd0a4f28419497f9722a3daafe3b4186f6b6457e060405160405180910390a360008060006101000a81548173ffffffffffffffffffffffffffffffffffffffff021916908373ffffffffffffffffffffffffffffffffffffffff160217905550565b6108b7610f1a565b15156108c257600080fd5b80600260006101000a81548173ffffffffffffffffffffffffffffffffffffffff021916908373ffffffffffffffffffffffffffffffffffffffff16021790555050565b61090e610f1a565b151561091957600080fd5b600360009054906101000a900473ffffffffffffffffffffffffffffffffffffffff1673ffffffffffffffffffffffffffffffffffffffff1663e57513506040518163ffffffff167c0100000000000000000000000000000000000000000000000000000000028152600401600060405180830381600087803b15801561099f57600080fd5b505af11580156109b3573d6000803e3d6000fd5b505050506109d73073ffffffffffffffffffffffffffffffffffffffff1631610579565b610aa8600360009054906101000a900473ffffffffffffffffffffffffffffffffffffffff1673ffffffffffffffffffffffffffffffffffffffff166370a08231306040518263ffffffff167c0100000000000000000000000000000000000000000000000000000000028152600401610a5191906129aa565b602060405180830381600087803b158015610a6b57600080fd5b505af1158015610a7f573d6000803e3d6000fd5b505050506040513d601f19601f82011682018060405250610aa39190810190612704565b61100e565b600460009054906101000a900473ffffffffffffffffffffffffffffffffffffffff1673ffffffffffffffffffffffffffffffffffffffff16ff5b600460009054906101000a900473ffffffffffffffffffffffffffffffffffffffff1681565b600080600080610b17612453565b600080600080610b25612453565b60008099505b8b518a1015610c7c578b8a815181101515610b4257fe5b906020019060200201519850600097505b600680549050881015610c6f57600688815481101515610b6f57fe5b9060005260206000209060020201606060405190810160405290816000820160009054906101000a900473ffffffffffffffffffffffffffffffffffffffff1673ffffffffffffffffffffffffffffffffffffffff1673ffffffffffffffffffffffffffffffffffffffff1681526020016000820160149054906101000a900460ff1660ff1660ff1681526020016001820154815250509650866020015160ff168960ff161415610c625760016000886020015160ff1660ff16815260200190815260200160002060009054906101000a900463ffffffff1663ffffffff168760400151028760400151019550858b019a505b8780600101985050610b53565b89806001019a5050610b2b565b3073ffffffffffffffffffffffffffffffffffffffff16318b11151515610cd8576040517f08c379a0000000000000000000000000000000000000000000000000000000008152600401610ccf90612a8d565b60405180910390fd5b600094505b8b51851015610ed3578b85815181101515610cf457fe5b906020019060200201519350600092505b600680549050831015610ec657600683815481101515610d2157fe5b9060005260206000209060020201606060405190810160405290816000820160009054906101000a900473ffffffffffffffffffffffffffffffffffffffff1673ffffffffffffffffffffffffffffffffffffffff1673ffffffffffffffffffffffffffffffffffffffff1681526020016000820160149054906101000a900460ff1660ff1660ff1681526020016001820154815250509150816020015160ff168460ff161415610eb95760016000836020015160ff1660ff16815260200190815260200160002060009054906101000a900463ffffffff1663ffffffff168260400151028260400151019050816000015173ffffffffffffffffffffffffffffffffffffffff167fe905a41cd6446ba138964726bb8f0ac1dc9806026201f07d4956c10e449bbc8f836040015184602001514285604051610e669493929190612b1f565b60405180910390a23373ffffffffffffffffffffffffffffffffffffffff166108fc600183029081150290604051600060405180830381858888f19350505050158015610eb7573d6000803e3d6000fd5b505b8280600101935050610d05565b8480600101955050610cdd565b6000600681610ee2919061248e565b50505050505050505050505050565b60008060009054906101000a900473ffffffffffffffffffffffffffffffffffffffff16905090565b60008060009054906101000a900473ffffffffffffffffffffffffffffffffffffffff1673ffffffffffffffffffffffffffffffffffffffff163373ffffffffffffffffffffffffffffffffffffffff1614905090565b600560009054906101000a900473ffffffffffffffffffffffffffffffffffffffff1681565b6000600860009054906101000a900460ff16905090565b610fb6610f1a565b1515610fc157600080fd5b6000600860016101000a81548160ff021916908315150217905550565b610fe6610f1a565b1515610ff157600080fd5b6001600860016101000a81548160ff021916908315150217905550565b611016610f1a565b151561102157600080fd5b600360009054906101000a900473ffffffffffffffffffffffffffffffffffffffff1673ffffffffffffffffffffffffffffffffffffffff1663a9059cbb600560009054906101000a900473ffffffffffffffffffffffffffffffffffffffff16836040518363ffffffff167c01000000000000000000000000000000000000000000000000000000000281526004016110bc9291906129c5565b602060405180830381600087803b1580156110d657600080fd5b505af11580156110ea573d6000803e3d6000fd5b505050506040513d601f19601f8201168201806040525061110e9190810190612689565b5050565b60606000806000806000611124610f1a565b151561112f57600080fd5b8660405190808252806020026020018201604052801561115e5781602001602082028038833980820191505090505b509550600094505b6001156114a2576000935060078054905060ff166002443342606f604051602001808581526020018473ffffffffffffffffffffffffffffffffffffffff1673ffffffffffffffffffffffffffffffffffffffff166c010000000000000000000000000281526014018381526020018260ff1660ff167f01000000000000000000000000000000000000000000000000000000000000000281526001019450505050506040516020818303038152906040526040518082805190602001908083835b60208310151561124d5780518252602082019150602081019050602083039250611228565b6001836020036101000a0380198251168184511680821785525050505050509050019150506020604051808303816000865af1158015611291573d6000803e3d6000fd5b5050506040513d601f19601f820116820180604052506112b491908101906126b2565b6001900460ff168115156112c457fe5b069250600091505b85518260ff1610156113785760078360ff168154811015156112ea57fe5b9060005260206000200160009054906101000a900473ffffffffffffffffffffffffffffffffffffffff1673ffffffffffffffffffffffffffffffffffffffff16868360ff1681518110151561133c57fe5b9060200190602002015173ffffffffffffffffffffffffffffffffffffffff16141561136b5760019350611378565b81806001019250506112cc565b83151561149d5760078360ff1681548110151561139157fe5b9060005260206000200160009054906101000a900473ffffffffffffffffffffffffffffffffffffffff1686868060010197508151811015156113d057fe5b9060200190602002019073ffffffffffffffffffffffffffffffffffffffff16908173ffffffffffffffffffffffffffffffffffffffff1681525050868510151561149c57600090505b85518160ff16101561149b57858160ff1681518110151561143757fe5b9060200190602002015173ffffffffffffffffffffffffffffffffffffffff167fbbfa80d5a54baf5590b0bbe42cd4d30dbf44307ed6875f699cd0ee8a7f9cd1d6426040516114869190612acd565b60405180910390a2808060010191505061141a565b5b5b611166565b50505050505050565b6060600780548060200260200160405190810160405280929190818152602001828054801561152f57602002820191906000526020600020905b8160009054906101000a900473ffffffffffffffffffffffffffffffffffffffff1673ffffffffffffffffffffffffffffffffffffffff16815260200190600101908083116114e5575b5050505050905090565b60606006805480602002602001604051908101604052809291908181526020016000905b8282101561160d5783829060005260206000209060020201606060405190810160405290816000820160009054906101000a900473ffffffffffffffffffffffffffffffffffffffff1673ffffffffffffffffffffffffffffffffffffffff1673ffffffffffffffffffffffffffffffffffffffff1681526020016000820160149054906101000a900460ff1660ff1660ff1681526020016001820154815250508152602001906001019061155d565b50505050905090565b6000600860019054906101000a900460ff161515611669576040517f08c379a000000000000000000000000000000000000000000000000000000000815260040161166090612aad565b60405180910390fd5b8160ff1660098190555034600a81905550600160ff168260ff16101580156116985750601560ff168260ff1611155b15156116d9576040517f08c379a00000000000000000000000000000000000000000000000000000000081526004016116d090612a4d565b60405180910390fd5b6000341180156116ed575064e8d4a5100034105b151561172e576040517f08c379a000000000000000000000000000000000000000000000000000000000815260040161172590612a6d565b60405180910390fd5b600160098190555060066060604051908101604052803373ffffffffffffffffffffffffffffffffffffffff1681526020018460ff168152602001348152509080600181540180825580915050906001820390600052602060002090600202016000909192909190915060008201518160000160006101000a81548173ffffffffffffffffffffffffffffffffffffffff021916908373ffffffffffffffffffffffffffffffffffffffff16021790555060208201518160000160146101000a81548160ff021916908360ff1602179055506040820151816001015550505060026009819055503373ffffffffffffffffffffffffffffffffffffffff167f063f4540040cf99a22f577ef321c170763020e6277e47275ed9b3d17ec14e13d34844260405161185f93929190612ae8565b60405180910390a26003600981905550600090505b600780549050811015611900573373ffffffffffffffffffffffffffffffffffffffff166007828154811015156118a757fe5b9060005260206000200160009054906101000a900473ffffffffffffffffffffffffffffffffffffffff1673ffffffffffffffffffffffffffffffffffffffff1614156118f3576119d4565b8080600101915050611874565b6032600860009054906101000a900460ff1660ff161415611938576000600860006101000a81548160ff021916908360ff1602179055505b60046009819055503360076008600081819054906101000a900460ff168092919060010191906101000a81548160ff021916908360ff16021790555060ff1681548110151561198357fe5b9060005260206000200160006101000a81548173ffffffffffffffffffffffffffffffffffffffff021916908373ffffffffffffffffffffffffffffffffffffffff16021790555060056009819055505b5050565b6119e0610f1a565b15156119eb57600080fd5b6119f481612359565b50565b600260009054906101000a900473ffffffffffffffffffffffffffffffffffffffff1681565b60016020528060005260406000206000915054906101000a900463ffffffff1681565b611a48610f1a565b1515611a5357600080fd5b80600560006101000a81548173ffffffffffffffffffffffffffffffffffffffff021916908373ffffffffffffffffffffffffffffffffffffffff16021790555050565b611a9f610f1a565b1515611aaa57600080fd5b80600460006101000a81548173ffffffffffffffffffffffffffffffffffffffff021916908373ffffffffffffffffffffffffffffffffffffffff16021790555050565b600080600080606060006001600660024433426001604051602001808581526020018473ffffffffffffffffffffffffffffffffffffffff1673ffffffffffffffffffffffffffffffffffffffff166c010000000000000000000000000281526014018381526020018260ff1660ff167f01000000000000000000000000000000000000000000000000000000000000000281526001019450505050506040516020818303038152906040526040518082805190602001908083835b602083101515611bcf5780518252602082019150602081019050602083039250611baa565b6001836020036101000a0380198251168184511680821785525050505050509050019150506020604051808303816000865af1158015611c13573d6000803e3d6000fd5b5050506040513d601f19601f82011682018060405250611c3691908101906126b2565b6001900460ff16811515611c4657fe5b06019550600160066002443342600b604051602001808581526020018473ffffffffffffffffffffffffffffffffffffffff1673ffffffffffffffffffffffffffffffffffffffff166c010000000000000000000000000281526014018381526020018260ff1660ff167f01000000000000000000000000000000000000000000000000000000000000000281526001019450505050506040516020818303038152906040526040518082805190602001908083835b602083101515611d215780518252602082019150602081019050602083039250611cfc565b6001836020036101000a0380198251168184511680821785525050505050509050019150506020604051808303816000865af1158015611d65573d6000803e3d6000fd5b5050506040513d601f19601f82011682018060405250611d8891908101906126b2565b6001900460ff16811515611d9857fe5b06019450600160066002443342606f604051602001808581526020018473ffffffffffffffffffffffffffffffffffffffff1673ffffffffffffffffffffffffffffffffffffffff166c010000000000000000000000000281526014018381526020018260ff1660ff167f01000000000000000000000000000000000000000000000000000000000000000281526001019450505050506040516020818303038152906040526040518082805190602001908083835b602083101515611e735780518252602082019150602081019050602083039250611e4e565b6001836020036101000a0380198251168184511680821785525050505050509050019150506020604051808303816000865af1158015611eb7573d6000803e3d6000fd5b5050506040513d601f19601f82011682018060405250611eda91908101906126b2565b6001900460ff16811515611eea57fe5b060193507f889922901e626b81ebec3a5f656408f5ebb61aaf304612cfc0a85ee8d7de5d9286868642604051611f239493929190612b9a565b60405180910390a1838587010192506004604051908082528060200260200182016040528015611f625781602001602082028038833980820191505090505b5091506000905060048360ff1610158015611f815750600a8360ff1611155b15611fba576001828280600101935060ff16815181101515611f9f57fe5b9060200190602002019060ff16908160ff1681525050612008565b600b8360ff1610158015611fd2575060118360ff1611155b15612007576004828280600101935060ff16815181101515611ff057fe5b9060200190602002019060ff16908160ff16815250505b5b60058360ff16148061201d575060078360ff16145b8061202b575060098360ff16145b806120395750600b8360ff16145b806120475750600d8360ff16145b806120555750600f8360ff16145b80612063575060118360ff16145b1561209c576002828280600101935060ff1681518110151561208157fe5b9060200190602002019060ff16908160ff168152505061212d565b60048360ff1614806120b1575060068360ff16145b806120bf575060088360ff16145b806120cd5750600a8360ff16145b806120db5750600c8360ff16145b806120e95750600e8360ff16145b806120f7575060108360ff16145b1561212c576003828280600101935060ff1681518110151561211557fe5b9060200190602002019060ff16908160ff16815250505b5b8460ff168660ff1614801561214757508360ff168560ff16145b156122fd576007828280600101935060ff1681518110151561216557fe5b9060200190602002019060ff16908160ff168152505060018660ff1614156121bb576001828280600101935060ff168151811015156121a057fe5b9060200190602002019060ff16908160ff16815250506122fc565b60028660ff1614156121fb576002828280600101935060ff168151811015156121e057fe5b9060200190602002019060ff16908160ff16815250506122fb565b60038660ff16141561223b576003828280600101935060ff1681518110151561222057fe5b9060200190602002019060ff16908160ff16815250506122fa565b60048660ff16141561227b576004828280600101935060ff1681518110151561226057fe5b9060200190602002019060ff16908160ff16815250506122f9565b60058660ff1614156122bb576005828280600101935060ff168151811015156122a057fe5b9060200190602002019060ff16908160ff16815250506122f8565b60068660ff1614156122f7576006828280600101935060ff168151811015156122e057fe5b9060200190602002019060ff16908160ff16815250505b5b5b5b5b5b5b61230682610b09565b505050505050565b60008060008311151561232057600080fd5b828481151561232b57fe5b0490508091505092915050565b60008083831115151561234a57600080fd5b82840390508091505092915050565b600073ffffffffffffffffffffffffffffffffffffffff168173ffffffffffffffffffffffffffffffffffffffff161415151561239557600080fd5b8073ffffffffffffffffffffffffffffffffffffffff166000809054906101000a900473ffffffffffffffffffffffffffffffffffffffff1673ffffffffffffffffffffffffffffffffffffffff167f8be0079c531659141344cd1fd0a4f28419497f9722a3daafe3b4186f6b6457e060405160405180910390a3806000806101000a81548173ffffffffffffffffffffffffffffffffffffffff021916908373ffffffffffffffffffffffffffffffffffffffff16021790555050565b606060405190810160405280600073ffffffffffffffffffffffffffffffffffffffff168152602001600060ff168152602001600081525090565b8154818355818111156124bb576002028160020283600052602060002091820191016124ba91906124c0565b5b505050565b61251f91905b8082111561251b57600080820160006101000a81549073ffffffffffffffffffffffffffffffffffffffff02191690556000820160146101000a81549060ff02191690556001820160009055506002016124c6565b5090565b90565b600061252e8235612cd1565b905092915050565b600082601f830112151561254957600080fd5b813561255c61255782612c0c565b612bdf565b9150818183526020840193506020810190508385602084028201111561258157600080fd5b60005b838110156125b15781612597888261260b565b845260208401935060208301925050600181019050612584565b5050505092915050565b60006125c78251612cf1565b905092915050565b60006125db8251612cfd565b905092915050565b60006125ef8235612d07565b905092915050565b60006126038251612d07565b905092915050565b60006126178235612d11565b905092915050565b60006020828403121561263157600080fd5b600061263f84828501612522565b91505092915050565b60006020828403121561265a57600080fd5b600082013567ffffffffffffffff81111561267457600080fd5b61268084828501612536565b91505092915050565b60006020828403121561269b57600080fd5b60006126a9848285016125bb565b91505092915050565b6000602082840312156126c457600080fd5b60006126d2848285016125cf565b91505092915050565b6000602082840312156126ed57600080fd5b60006126fb848285016125e3565b91505092915050565b60006020828403121561271657600080fd5b6000612724848285016125f7565b91505092915050565b60006020828403121561273f57600080fd5b600061274d8482850161260b565b91505092915050565b61275f81612c7e565b82525050565b600061277082612c4e565b80845260208401935061278283612c34565b60005b828110156127b457612798868351612756565b6127a182612c64565b9150602086019550600181019050612785565b50849250505092915050565b60006127cb82612c59565b8084526020840193506127dd83612c41565b60005b8281101561280f576127f386835161292c565b6127fc82612c71565b91506060860195506001810190506127e0565b50849250505092915050565b61282481612c9e565b82525050565b6000601882527f62657420706f732073686f756c6420696e205b312c32315d00000000000000006020830152604082019050919050565b6000602382527f6265742076616c75652073686f756c6420696e205b312c31303030303030207460208301527f72785d00000000000000000000000000000000000000000000000000000000006040830152606082019050919050565b6000601782527f6e6f7420656e6f756768206d6f6e657920746f207061790000000000000000006020830152604082019050919050565b6000601682527f63616e27742062657420617420746869732074696d65000000000000000000006020830152604082019050919050565b6060820160008201516129426000850182612756565b506020820151612955602085018261299b565b506040820151612968604085018261296e565b50505050565b61297781612caa565b82525050565b61298681612cb4565b82525050565b61299581612d1e565b82525050565b6129a481612cc4565b82525050565b60006020820190506129bf6000830184612756565b92915050565b60006040820190506129da6000830185612756565b6129e7602083018461296e565b9392505050565b60006020820190508181036000830152612a088184612765565b905092915050565b60006020820190508181036000830152612a2a81846127c0565b905092915050565b6000602082019050612a47600083018461281b565b92915050565b60006020820190508181036000830152612a668161282a565b9050919050565b60006020820190508181036000830152612a8681612861565b9050919050565b60006020820190508181036000830152612aa6816128be565b9050919050565b60006020820190508181036000830152612ac6816128f5565b9050919050565b6000602082019050612ae2600083018461296e565b92915050565b6000606082019050612afd600083018661296e565b612b0a602083018561298c565b612b17604083018461296e565b949350505050565b6000608082019050612b34600083018761296e565b612b41602083018661298c565b612b4e604083018561296e565b612b5b606083018461296e565b95945050505050565b6000602082019050612b79600083018461297d565b92915050565b6000602082019050612b94600083018461299b565b92915050565b6000608082019050612baf600083018761299b565b612bbc602083018661299b565b612bc9604083018561299b565b612bd6606083018461296e565b95945050505050565b6000604051905081810181811067ffffffffffffffff82111715612c0257600080fd5b8060405250919050565b600067ffffffffffffffff821115612c2357600080fd5b602082029050602081019050919050565b6000602082019050919050565b6000602082019050919050565b600081519050919050565b600081519050919050565b6000602082019050919050565b6000602082019050919050565b600073ffffffffffffffffffffffffffffffffffffffff82169050919050565b60008115159050919050565b6000819050919050565b600063ffffffff82169050919050565b600060ff82169050919050565b600073ffffffffffffffffffffffffffffffffffffffff82169050919050565b60008115159050919050565b6000819050919050565b6000819050919050565b600060ff82169050919050565b6000612d2982612cc4565b90509190505600a265627a7a723058205adae3caa61141593385355209eaaeeec3de7917aa032eca2bb88f2f3782c5576c6578706572696d656e74616cf50037",
  "source": "pragma solidity ^0.4.23;\npragma experimental ABIEncoderV2;\n\nimport \"./openzeppelin-solidity/contracts/ownership/Ownable.sol\";\nimport \"./openzeppelin-solidity/contracts/math/SafeMath.sol\";\nimport \"./openzeppelin-solidity/contracts/token/ERC20/IERC20.sol\";\n\n\ncontract Sicbo is Ownable {\n    using SafeMath for uint256;\n    // 5600\n    uint256 constant CAP_MINING_TOKEN = 5600000000;\n    uint256 constant MININGREWARD = 10;\n    uint256 constant MININGFALLOFF = 1;\n    uint256 constant DECIMALS = 6;\n    /**/\n    uint8 constant SMALL = 1;//\n    uint8 constant ODD = 2;//\n    uint8 constant EVEN = 3;//\n    uint8 constant BIG = 4;//\n    uint8 constant THREE_1 = 1;//1\n    uint8 constant THREE_2 = 2;//2\n    uint8 constant THREE_3 = 3;//3\n    uint8 constant THREE_4 = 4;//4\n    uint8 constant THREE_5 = 5;//5\n    uint8 constant THREE_6 = 6;//6\n    uint8 constant THREE_SAME = 7;//\n    uint8 constant SUM_4 = 8;\n    uint8 constant SUM_5 = 9;\n    uint8 constant SUM_6 = 10;\n    uint8 constant SUM_7 = 11;\n    uint8 constant SUM_8 = 12;\n    uint8 constant SUM_9 = 13;\n    uint8 constant SUM_10 = 14;\n    uint8 constant SUM_11 = 15;\n    uint8 constant SUM_12 = 16;\n    uint8 constant SUM_13 = 17;\n    uint8 constant SUM_14 = 18;\n    uint8 constant SUM_15 = 19;\n    uint8 constant SUM_16 = 20;\n    uint8 constant SUM_17 = 21;\n    /**/\n    mapping(uint8 => uint32) public BET_POS_MULTIPLE;\n\n    constructor (address _craft, address _minerCFTAddr) public {\n        craftToken = IERC20(_craft);\n        minerCFTAddr = _minerCFTAddr;\n        BET_POS_MULTIPLE[SMALL] = 1;\n        BET_POS_MULTIPLE[ODD] = 1;\n        BET_POS_MULTIPLE[EVEN] = 1;\n        BET_POS_MULTIPLE[BIG] = 1;\n        BET_POS_MULTIPLE[THREE_1] = 150;\n        BET_POS_MULTIPLE[THREE_2] = 150;\n        BET_POS_MULTIPLE[THREE_3] = 150;\n        BET_POS_MULTIPLE[THREE_4] = 150;\n        BET_POS_MULTIPLE[THREE_5] = 150;\n        BET_POS_MULTIPLE[THREE_6] = 150;\n        BET_POS_MULTIPLE[THREE_SAME] = 24;\n        BET_POS_MULTIPLE[SUM_4] = 50;\n        BET_POS_MULTIPLE[SUM_5] = 18;\n        BET_POS_MULTIPLE[SUM_6] = 14;\n        BET_POS_MULTIPLE[SUM_7] = 12;\n        BET_POS_MULTIPLE[SUM_8] = 8;\n        BET_POS_MULTIPLE[SUM_9] = 6;\n        BET_POS_MULTIPLE[SUM_10] = 6;\n        BET_POS_MULTIPLE[SUM_11] = 6;\n        BET_POS_MULTIPLE[SUM_12] = 6;\n        BET_POS_MULTIPLE[SUM_13] = 8;\n        BET_POS_MULTIPLE[SUM_14] = 12;\n        BET_POS_MULTIPLE[SUM_15] = 14;\n        BET_POS_MULTIPLE[SUM_16] = 18;\n        BET_POS_MULTIPLE[SUM_17] = 50;\n    }\n\n    function destroy() public onlyOwner {\n        craftToken.renounceContracter();\n        transferTRXToTeam(address(this).balance);\n        transferCFTToTeam(craftToken.balanceOf(address(this)));\n        selfdestruct(team);\n    }\n\n\n    address public minerCFTAddr;\n\n    IERC20 craftToken;\n\n    address public team;\n\n    address public teamCFT;\n\n    function updateTeamAddr(address _addr) onlyOwner public {\n        team = _addr;\n    }\n\n    function updateTeamCFTAddr(address _addr) onlyOwner public {\n        teamCFT = _addr;\n    }\n\n    function transferTRXToTeam(uint256 _amount) onlyOwner public {\n        team.transfer(_amount * 1 sun);\n    }\n\n    function transferCFTToTeam(uint256 _amount) onlyOwner public {\n        craftToken.transfer(teamCFT, _amount);\n    }\n\n    function updateMinerCFTAddr(address _addr) onlyOwner public {\n        minerCFTAddr = _addr;\n    }\n\n    event LogBet(address indexed userAddr, uint256 betMoney, uint256 betPos, uint256 timeStamp);\n\n    event LogDice(uint8 a, uint8 b, uint8 c, uint256 timeStamp);\n\n    event LogWin(address indexed userAddr, uint256 betMoney, uint256 betPos, uint256 timeStamp, uint256 win);\n\n    event Lottery(address indexed userAddr, uint256 timeStamp);\n\n    struct Bet {\n        address user;\n        uint8 betPos;\n        uint betAmount;\n    }\n\n    function curCFTReward() public view returns (uint256) {\n        uint256 curMiningToken = CAP_MINING_TOKEN.sub(craftToken.balanceOf(minerCFTAddr).div(10 ** DECIMALS));\n        if (curMiningToken < 600000000) {\n            return MININGREWARD;\n        } else if (curMiningToken < 1600000000) {\n            return MININGREWARD - MININGFALLOFF;\n        } else if (curMiningToken < 2600000000) {\n            return MININGREWARD - MININGFALLOFF * 2;\n        } else if (curMiningToken < 3600000000) {\n            return MININGREWARD - MININGFALLOFF * 3;\n        } else if (curMiningToken < 4600000000) {\n            return MININGREWARD - MININGFALLOFF * 4;\n        } else if (curMiningToken < CAP_MINING_TOKEN) {\n            return MININGREWARD - MININGFALLOFF * 5;\n        } else {\n            return 0;\n        }\n    }\n\n    /**/\n    Bet[] betList;\n\n    function getBetList() public view returns (Bet[]){\n        return betList;\n    }\n\n    /**/\n    address[] recentAddressList;\n\n    function getLotteryUserList() public view returns (address[]){\n        return recentAddressList;\n    }\n\n    /**/\n    uint8 recentAddressCursor;\n\n    function getRecentAddressCursor() public view returns (uint8){\n        return recentAddressCursor;\n    }\n\n    /*false*/\n    bool running;\n\n    function getRunning() public view returns (bool){\n        return running;\n    }\n\n    function betStart() public onlyOwner {\n        running = true;\n    }\n\n    function betStop() public onlyOwner {\n        running = false;\n    }\n\n    uint va;\n\n    function getVA() public view returns (uint){\n        return va;\n    }\n\n    uint vb;\n\n    function getVB() public view returns (uint){\n        return vb;\n    }\n\n    /*\n    \n    */\n    function bet(uint8 betPos) payable public {\n        require(running, \"can't bet at this time\");\n        va = betPos;\n        vb = msg.value;\n        require(betPos >= SMALL && betPos <= SUM_17, \"bet pos should in [1,21]\");\n        require(msg.value > 0 && msg.value < 1000000000000, \"bet value should in [1,1000000 trx]\");\n        va = 1;\n        betList.push(Bet(msg.sender, betPos, msg.value));\n        va = 2;\n        emit LogBet(msg.sender, msg.value, betPos, now);\n        va = 3;\n        for (uint i = 0; i < recentAddressList.length; i++) {\n            if (recentAddressList[i] == msg.sender) {\n                return;\n            }\n        }\n        if (recentAddressCursor == 50) {\n            recentAddressCursor = uint8(0);\n        }\n        va = 4;\n        recentAddressList[recentAddressCursor++] = msg.sender;\n        va = 5;\n        return;\n    }\n\n    /*\n    \n    */\n    function open() public {\n        uint8 diceA = uint8(sha256(abi.encodePacked(block.difficulty, msg.sender, block.timestamp, uint8(1)))) % 6 + 1;\n        uint8 diceB = uint8(sha256(abi.encodePacked(block.difficulty, msg.sender, block.timestamp, uint8(11)))) % 6 + 1;\n        uint8 diceC = uint8(sha256(abi.encodePacked(block.difficulty, msg.sender, block.timestamp, uint8(111)))) % 6 + 1;\n        emit LogDice(diceA, diceB, diceC, now);\n        uint8 sum = diceA + diceB + diceC;\n        //11\n        uint8[] memory results = new uint8[](4);\n        uint8 cursor = 0;\n        if (sum >= 4 && sum <= 10) {\n            results[cursor++] = SMALL;\n        }\n        //11\n        else if (sum >= 11 && sum <= 17) {\n            results[cursor++] = BIG;\n        }\n        //\n        if (sum == 5 || sum == 7 || sum == 9 || sum == 11 || sum == 13 || sum == 15 || sum == 17) {\n            results[cursor++] = ODD;\n        }\n        //\n        else if (sum == 4 || sum == 6 || sum == 8 || sum == 10 || sum == 12 || sum == 14 || sum == 16) {\n            results[cursor++] = EVEN;\n        }\n        //1150\n        if (diceA == diceB && diceB == diceC) {\n            results[cursor++] = THREE_SAME;\n            if (diceA == 1) {\n                results[cursor++] = THREE_1;\n            } else if (diceA == 2) {\n                results[cursor++] = THREE_2;\n            } else if (diceA == 3) {\n                results[cursor++] = THREE_3;\n            } else if (diceA == 4) {\n                results[cursor++] = THREE_4;\n            } else if (diceA == 5) {\n                results[cursor++] = THREE_5;\n            } else if (diceA == 6) {\n                results[cursor++] = THREE_6;\n            }\n        }\n        sendAward(results);\n    }\n\n    /**/\n    function lotteryOpen(uint count) public onlyOwner {\n        address[] memory winners = new address[](count);\n        uint idx = 0;\n        while (true) {\n            bool duplicate = false;\n            uint8 random = uint8(sha256(abi.encodePacked(block.difficulty, msg.sender, block.timestamp, uint8(111)))) % uint8(recentAddressList.length);\n            for (uint8 i = 0; i < winners.length; i++) {\n                if (winners[i] == recentAddressList[random]) {\n                    duplicate = true;\n                    break;\n                }\n            }\n            if (!duplicate) {\n                winners[idx++] = recentAddressList[random];\n                if (idx >= count) {\n                    for (uint8 j = 0; j < winners.length; j++) {\n                        emit Lottery(winners[j], now);\n                    }\n                }\n            }\n        }\n    }\n\n    /**/\n    function sendAward(uint8[] results) public payable {\n        uint totalToPay;\n        for (uint i = 0; i < results.length; i++)\n        {\n            uint8 winPos = results[i];\n            for (uint j = 0; j < betList.length; j++)\n            {\n                Bet memory userBet = betList[j];\n                if (winPos == userBet.betPos) {\n                    uint win = userBet.betAmount + userBet.betAmount * BET_POS_MULTIPLE[userBet.betPos];\n                    totalToPay += win;\n                }\n            }\n        }\n        require(totalToPay <= address(this).balance, \"not enough money to pay\");\n        for (uint x = 0; x < results.length; x++)\n        {\n            uint8 winPos1 = results[x];\n            for (uint y = 0; y < betList.length; y++)\n            {\n                Bet memory userBet1 = betList[y];\n                if (winPos1 == userBet1.betPos) {\n                    uint win1 = userBet1.betAmount + userBet1.betAmount * BET_POS_MULTIPLE[userBet1.betPos];\n                    emit LogWin(userBet1.user, userBet1.betAmount, userBet1.betPos, now, win1);\n                    msg.sender.transfer(win1 * 1 sun);\n                }\n            }\n        }\n        betList.length = 0;\n    }\n}",
  "sourcePath": "/Users/yhw/Workspace/rockgame/tronCraft/contracts/Sicbo.sol",
  "compiler": {
    "name": "solc",
    "version": "0.4.24-develop.2018.8.28+commit.3ba0cdec.mod.Emscripten.clang"
  },
  "schemaVersion": "2.0.1",
  "updatedAt": "2018-12-28T01:01:02.242Z"
}