{
  "contractName": "Sicbo",
  "abi": [
    {
      "constant": false,
      "inputs": [],
      "name": "renounceOwnership",
      "outputs": [],
      "payable": false,
      "stateMutability": "nonpayable",
      "type": "function"
    },
    {
      "constant": true,
      "inputs": [],
      "name": "team",
      "outputs": [
        {
          "name": "",
          "type": "address"
        }
      ],
      "payable": false,
      "stateMutability": "view",
      "type": "function"
    },
    {
      "constant": true,
      "inputs": [],
      "name": "owner",
      "outputs": [
        {
          "name": "",
          "type": "address"
        }
      ],
      "payable": false,
      "stateMutability": "view",
      "type": "function"
    },
    {
      "constant": true,
      "inputs": [],
      "name": "isOwner",
      "outputs": [
        {
          "name": "",
          "type": "bool"
        }
      ],
      "payable": false,
      "stateMutability": "view",
      "type": "function"
    },
    {
      "constant": true,
      "inputs": [],
      "name": "teamCFT",
      "outputs": [
        {
          "name": "",
          "type": "address"
        }
      ],
      "payable": false,
      "stateMutability": "view",
      "type": "function"
    },
    {
      "constant": false,
      "inputs": [
        {
          "name": "newOwner",
          "type": "address"
        }
      ],
      "name": "transferOwnership",
      "outputs": [],
      "payable": false,
      "stateMutability": "nonpayable",
      "type": "function"
    },
    {
      "constant": true,
      "inputs": [],
      "name": "minerCFTAddr",
      "outputs": [
        {
          "name": "",
          "type": "address"
        }
      ],
      "payable": false,
      "stateMutability": "view",
      "type": "function"
    },
    {
      "constant": true,
      "inputs": [
        {
          "name": "",
          "type": "uint8"
        }
      ],
      "name": "BET_POS_MULTIPLE",
      "outputs": [
        {
          "name": "",
          "type": "uint32"
        }
      ],
      "payable": false,
      "stateMutability": "view",
      "type": "function"
    },
    {
      "inputs": [
        {
          "name": "_craft",
          "type": "address"
        },
        {
          "name": "_minerCFTAddr",
          "type": "address"
        }
      ],
      "payable": false,
      "stateMutability": "nonpayable",
      "type": "constructor"
    },
    {
      "anonymous": false,
      "inputs": [
        {
          "indexed": true,
          "name": "userAddr",
          "type": "address"
        },
        {
          "indexed": false,
          "name": "betMoney",
          "type": "uint256"
        },
        {
          "indexed": false,
          "name": "betPos",
          "type": "uint256"
        },
        {
          "indexed": false,
          "name": "timeStamp",
          "type": "uint256"
        }
      ],
      "name": "LogBet",
      "type": "event"
    },
    {
      "anonymous": false,
      "inputs": [
        {
          "indexed": true,
          "name": "userAddr",
          "type": "address"
        },
        {
          "indexed": false,
          "name": "timeStamp",
          "type": "uint256"
        }
      ],
      "name": "Lottery",
      "type": "event"
    },
    {
      "anonymous": false,
      "inputs": [
        {
          "indexed": true,
          "name": "previousOwner",
          "type": "address"
        },
        {
          "indexed": true,
          "name": "newOwner",
          "type": "address"
        }
      ],
      "name": "OwnershipTransferred",
      "type": "event"
    },
    {
      "constant": false,
      "inputs": [],
      "name": "destroy",
      "outputs": [],
      "payable": false,
      "stateMutability": "nonpayable",
      "type": "function"
    },
    {
      "constant": false,
      "inputs": [
        {
          "name": "_addr",
          "type": "address"
        }
      ],
      "name": "updateTeamAddr",
      "outputs": [],
      "payable": false,
      "stateMutability": "nonpayable",
      "type": "function"
    },
    {
      "constant": false,
      "inputs": [
        {
          "name": "_addr",
          "type": "address"
        }
      ],
      "name": "updateTeamCFTAddr",
      "outputs": [],
      "payable": false,
      "stateMutability": "nonpayable",
      "type": "function"
    },
    {
      "constant": false,
      "inputs": [
        {
          "name": "_amount",
          "type": "uint256"
        }
      ],
      "name": "transferTRXToTeam",
      "outputs": [],
      "payable": false,
      "stateMutability": "nonpayable",
      "type": "function"
    },
    {
      "constant": false,
      "inputs": [
        {
          "name": "_amount",
          "type": "uint256"
        }
      ],
      "name": "transferCFTToTeam",
      "outputs": [],
      "payable": false,
      "stateMutability": "nonpayable",
      "type": "function"
    },
    {
      "constant": false,
      "inputs": [
        {
          "name": "_addr",
          "type": "address"
        }
      ],
      "name": "updateMinerCFTAddr",
      "outputs": [],
      "payable": false,
      "stateMutability": "nonpayable",
      "type": "function"
    },
    {
      "constant": true,
      "inputs": [],
      "name": "curCFTReward",
      "outputs": [
        {
          "name": "",
          "type": "uint256"
        }
      ],
      "payable": false,
      "stateMutability": "view",
      "type": "function"
    },
    {
      "constant": true,
      "inputs": [],
      "name": "getRunning",
      "outputs": [
        {
          "name": "",
          "type": "bool"
        }
      ],
      "payable": false,
      "stateMutability": "view",
      "type": "function"
    },
    {
      "constant": false,
      "inputs": [],
      "name": "betStart",
      "outputs": [],
      "payable": false,
      "stateMutability": "nonpayable",
      "type": "function"
    },
    {
      "constant": false,
      "inputs": [],
      "name": "betStop",
      "outputs": [],
      "payable": false,
      "stateMutability": "nonpayable",
      "type": "function"
    },
    {
      "constant": false,
      "inputs": [
        {
          "name": "betPos",
          "type": "uint8"
        }
      ],
      "name": "bet",
      "outputs": [],
      "payable": true,
      "stateMutability": "payable",
      "type": "function"
    },
    {
      "constant": false,
      "inputs": [],
      "name": "open",
      "outputs": [],
      "payable": false,
      "stateMutability": "nonpayable",
      "type": "function"
    },
    {
      "constant": false,
      "inputs": [
        {
          "name": "count",
          "type": "uint256"
        }
      ],
      "name": "lotteryOpen",
      "outputs": [],
      "payable": false,
      "stateMutability": "nonpayable",
      "type": "function"
    },
    {
      "constant": false,
      "inputs": [
        {
          "name": "results",
          "type": "uint8[]"
        }
      ],
      "name": "sendAward",
      "outputs": [],
      "payable": true,
      "stateMutability": "payable",
      "type": "function"
    }
  ],
  "bytecode": "0x608060405234801561001057600080fd5b50604051604080612bc78339810180604052810190808051906020019092919080519060200190929190505050336000806101000a81548173ffffffffffffffffffffffffffffffffffffffff021916908373ffffffffffffffffffffffffffffffffffffffff1602179055506000809054906101000a900473ffffffffffffffffffffffffffffffffffffffff1673ffffffffffffffffffffffffffffffffffffffff16600073ffffffffffffffffffffffffffffffffffffffff167f8be0079c531659141344cd1fd0a4f28419497f9722a3daafe3b4186f6b6457e060405160405180910390a381600360006101000a81548173ffffffffffffffffffffffffffffffffffffffff021916908373ffffffffffffffffffffffffffffffffffffffff16021790555080600260006101000a81548173ffffffffffffffffffffffffffffffffffffffff021916908373ffffffffffffffffffffffffffffffffffffffff1602179055506001806000600160ff1660ff16815260200190815260200160002060006101000a81548163ffffffff021916908363ffffffff1602179055506001806000600260ff1660ff16815260200190815260200160002060006101000a81548163ffffffff021916908363ffffffff1602179055506001806000600360ff1660ff16815260200190815260200160002060006101000a81548163ffffffff021916908363ffffffff1602179055506001806000600460ff1660ff16815260200190815260200160002060006101000a81548163ffffffff021916908363ffffffff160217905550609660016000600160ff1660ff16815260200190815260200160002060006101000a81548163ffffffff021916908363ffffffff160217905550609660016000600260ff1660ff16815260200190815260200160002060006101000a81548163ffffffff021916908363ffffffff160217905550609660016000600360ff1660ff16815260200190815260200160002060006101000a81548163ffffffff021916908363ffffffff160217905550609660016000600460ff1660ff16815260200190815260200160002060006101000a81548163ffffffff021916908363ffffffff160217905550609660016000600560ff1660ff16815260200190815260200160002060006101000a81548163ffffffff021916908363ffffffff160217905550609660016000600660ff1660ff16815260200190815260200160002060006101000a81548163ffffffff021916908363ffffffff160217905550601860016000600760ff1660ff16815260200190815260200160002060006101000a81548163ffffffff021916908363ffffffff160217905550603260016000600860ff1660ff16815260200190815260200160002060006101000a81548163ffffffff021916908363ffffffff160217905550601260016000600960ff1660ff16815260200190815260200160002060006101000a81548163ffffffff021916908363ffffffff160217905550600e60016000600a60ff1660ff16815260200190815260200160002060006101000a81548163ffffffff021916908363ffffffff160217905550600c60016000600b60ff1660ff16815260200190815260200160002060006101000a81548163ffffffff021916908363ffffffff160217905550600860016000600c60ff1660ff16815260200190815260200160002060006101000a81548163ffffffff021916908363ffffffff160217905550600660016000600d60ff1660ff16815260200190815260200160002060006101000a81548163ffffffff021916908363ffffffff160217905550600660016000600e60ff1660ff16815260200190815260200160002060006101000a81548163ffffffff021916908363ffffffff160217905550600660016000600f60ff1660ff16815260200190815260200160002060006101000a81548163ffffffff021916908363ffffffff160217905550600660016000601060ff1660ff16815260200190815260200160002060006101000a81548163ffffffff021916908363ffffffff160217905550600860016000601160ff1660ff16815260200190815260200160002060006101000a81548163ffffffff021916908363ffffffff160217905550600c60016000601260ff1660ff16815260200190815260200160002060006101000a81548163ffffffff021916908363ffffffff160217905550600e60016000601360ff1660ff16815260200190815260200160002060006101000a81548163ffffffff021916908363ffffffff160217905550601260016000601460ff1660ff16815260200190815260200160002060006101000a81548163ffffffff021916908363ffffffff160217905550603260016000601560ff1660ff16815260200190815260200160002060006101000a81548163ffffffff021916908363ffffffff1602179055505050612495806107326000396000f300608060405260043610610128576000357c0100000000000000000000000000000000000000000000000000000000900463ffffffff16806331c1a5271461012d5780633924f0891461015a5780636bf24d7514610189578063715018a6146101b45780637aa75894146101cb57806383197ef01461020e57806385f2aef214610225578063870198e41461027c5780638da5cb5b146102d55780638f32d59b1461032c578063943c83171461035b5780639cfc14fd146103b2578063ad8b2c77146103c9578063ae4d6d08146103e0578063b51991401461040d578063d0821b0e1461043a578063f2fde38b1461045d578063f716213a146104a0578063f7b550f6146104f7578063fa5af52714610547578063fb690f501461058a578063fcfff16f146105cd575b600080fd5b34801561013957600080fd5b50610158600480360381019080803590602001909291905050506105e4565b005b34801561016657600080fd5b5061016f610666565b604051808215151515815260200191505060405180910390f35b34801561019557600080fd5b5061019e61067d565b6040518082815260200191505060405180910390f35b3480156101c057600080fd5b506101c961086d565b005b3480156101d757600080fd5b5061020c600480360381019080803573ffffffffffffffffffffffffffffffffffffffff16906020019092919050505061093f565b005b34801561021a57600080fd5b50610223610996565b005b34801561023157600080fd5b5061023a610b82565b604051808273ffffffffffffffffffffffffffffffffffffffff1673ffffffffffffffffffffffffffffffffffffffff16815260200191505060405180910390f35b6102d360048036038101908080359060200190820180359060200190808060200260200160405190810160405280939291908181526020018383602002808284378201915050505050509192919290505050610ba8565b005b3480156102e157600080fd5b506102ea610fc0565b604051808273ffffffffffffffffffffffffffffffffffffffff1673ffffffffffffffffffffffffffffffffffffffff16815260200191505060405180910390f35b34801561033857600080fd5b50610341610fe9565b604051808215151515815260200191505060405180910390f35b34801561036757600080fd5b50610370611040565b604051808273ffffffffffffffffffffffffffffffffffffffff1673ffffffffffffffffffffffffffffffffffffffff16815260200191505060405180910390f35b3480156103be57600080fd5b506103c7611066565b005b3480156103d557600080fd5b506103de611096565b005b3480156103ec57600080fd5b5061040b600480360381019080803590602001909291905050506110c6565b005b34801561041957600080fd5b50610438600480360381019080803590602001909291905050506111ff565b005b61045b600480360381019080803560ff16906020019092919050505061159b565b005b34801561046957600080fd5b5061049e600480360381019080803573ffffffffffffffffffffffffffffffffffffffff169060200190929190505050611953565b005b3480156104ac57600080fd5b506104b5611972565b604051808273ffffffffffffffffffffffffffffffffffffffff1673ffffffffffffffffffffffffffffffffffffffff16815260200191505060405180910390f35b34801561050357600080fd5b50610525600480360381019080803560ff169060200190929190505050611998565b604051808263ffffffff1663ffffffff16815260200191505060405180910390f35b34801561055357600080fd5b50610588600480360381019080803573ffffffffffffffffffffffffffffffffffffffff1690602001909291905050506119bb565b005b34801561059657600080fd5b506105cb600480360381019080803573ffffffffffffffffffffffffffffffffffffffff169060200190929190505050611a12565b005b3480156105d957600080fd5b506105e2611a69565b005b6105ec610fe9565b15156105f757600080fd5b600460009054906101000a900473ffffffffffffffffffffffffffffffffffffffff1673ffffffffffffffffffffffffffffffffffffffff166108fc600183029081150290604051600060405180830381858888f19350505050158015610662573d6000803e3d6000fd5b5050565b6000600860019054906101000a900460ff16905090565b6000806107c76107b36006600a0a600360009054906101000a900473ffffffffffffffffffffffffffffffffffffffff1673ffffffffffffffffffffffffffffffffffffffff166370a08231600260009054906101000a900473ffffffffffffffffffffffffffffffffffffffff166040518263ffffffff167c0100000000000000000000000000000000000000000000000000000000028152600401808273ffffffffffffffffffffffffffffffffffffffff1673ffffffffffffffffffffffffffffffffffffffff168152602001915050602060405180830381600087803b15801561076a57600080fd5b505af115801561077e573d6000803e3d6000fd5b505050506040513d602081101561079457600080fd5b810190808051906020019092919050505061225590919063ffffffff16565b64014dc9380061227f90919063ffffffff16565b90506323c346008110156107de57600a9150610869565b635f5e10008110156107f6576001600a039150610869565b639af8da00811015610811576002600102600a039150610869565b63d693a40081101561082c576003600102600a039150610869565b6401122e6e00811015610848576004600102600a039150610869565b64014dc93800811015610864576005600102600a039150610869565b600091505b5090565b610875610fe9565b151561088057600080fd5b600073ffffffffffffffffffffffffffffffffffffffff166000809054906101000a900473ffffffffffffffffffffffffffffffffffffffff1673ffffffffffffffffffffffffffffffffffffffff167f8be0079c531659141344cd1fd0a4f28419497f9722a3daafe3b4186f6b6457e060405160405180910390a360008060006101000a81548173ffffffffffffffffffffffffffffffffffffffff021916908373ffffffffffffffffffffffffffffffffffffffff160217905550565b610947610fe9565b151561095257600080fd5b80600260006101000a81548173ffffffffffffffffffffffffffffffffffffffff021916908373ffffffffffffffffffffffffffffffffffffffff16021790555050565b61099e610fe9565b15156109a957600080fd5b600360009054906101000a900473ffffffffffffffffffffffffffffffffffffffff1673ffffffffffffffffffffffffffffffffffffffff1663e57513506040518163ffffffff167c0100000000000000000000000000000000000000000000000000000000028152600401600060405180830381600087803b158015610a2f57600080fd5b505af1158015610a43573d6000803e3d6000fd5b50505050610b47600360009054906101000a900473ffffffffffffffffffffffffffffffffffffffff1673ffffffffffffffffffffffffffffffffffffffff166370a08231306040518263ffffffff167c0100000000000000000000000000000000000000000000000000000000028152600401808273ffffffffffffffffffffffffffffffffffffffff1673ffffffffffffffffffffffffffffffffffffffff168152602001915050602060405180830381600087803b158015610b0757600080fd5b505af1158015610b1b573d6000803e3d6000fd5b505050506040513d6020811015610b3157600080fd5b81019080805190602001909291905050506110c6565b600460009054906101000a900473ffffffffffffffffffffffffffffffffffffffff1673ffffffffffffffffffffffffffffffffffffffff16ff5b600460009054906101000a900473ffffffffffffffffffffffffffffffffffffffff1681565b600080600080610bb661239a565b600080600080610bc461239a565b60008099505b8b518a1015610d15578b8a815181101515610be157fe5b906020019060200201519850600097505b600680549050881015610d0857600688815481101515610c0e57fe5b9060005260206000209060020201606060405190810160405290816000820160009054906101000a900473ffffffffffffffffffffffffffffffffffffffff1673ffffffffffffffffffffffffffffffffffffffff1673ffffffffffffffffffffffffffffffffffffffff1681526020016000820160149054906101000a900460ff1660ff1660ff1681526020016001820154815250509650866020015160ff168960ff161415610cfb5760016000886020015160ff1660ff16815260200190815260200160002060009054906101000a900463ffffffff1663ffffffff168760400151029550858b019a505b8780600101985050610bf2565b89806001019a5050610bca565b3073ffffffffffffffffffffffffffffffffffffffff16318b11151515610da4576040517f08c379a00000000000000000000000000000000000000000000000000000000081526004018080602001828103825260178152602001807f6e6f7420656e6f756768206d6f6e657920746f2070617900000000000000000081525060200191505060405180910390fd5b600094505b8b51851015610fa2578b85815181101515610dc057fe5b906020019060200201519350600092505b600680549050831015610f9557600683815481101515610ded57fe5b9060005260206000209060020201606060405190810160405290816000820160009054906101000a900473ffffffffffffffffffffffffffffffffffffffff1673ffffffffffffffffffffffffffffffffffffffff1673ffffffffffffffffffffffffffffffffffffffff1681526020016000820160149054906101000a900460ff1660ff1660ff1681526020016001820154815250509150816020015160ff168460ff161415610f885760016000836020015160ff1660ff16815260200190815260200160002060009054906101000a900463ffffffff1663ffffffff168260400151029050816000015173ffffffffffffffffffffffffffffffffffffffff167f063f4540040cf99a22f577ef321c170763020e6277e47275ed9b3d17ec14e13d82846020015142604051808481526020018360ff168152602001828152602001935050505060405180910390a23373ffffffffffffffffffffffffffffffffffffffff166108fc600183029081150290604051600060405180830381858888f19350505050158015610f86573d6000803e3d6000fd5b505b8280600101935050610dd1565b8480600101955050610da9565b6000600681610fb191906123d5565b50505050505050505050505050565b60008060009054906101000a900473ffffffffffffffffffffffffffffffffffffffff16905090565b60008060009054906101000a900473ffffffffffffffffffffffffffffffffffffffff1673ffffffffffffffffffffffffffffffffffffffff163373ffffffffffffffffffffffffffffffffffffffff1614905090565b600560009054906101000a900473ffffffffffffffffffffffffffffffffffffffff1681565b61106e610fe9565b151561107957600080fd5b6000600860016101000a81548160ff021916908315150217905550565b61109e610fe9565b15156110a957600080fd5b6001600860016101000a81548160ff021916908315150217905550565b6110ce610fe9565b15156110d957600080fd5b600360009054906101000a900473ffffffffffffffffffffffffffffffffffffffff1673ffffffffffffffffffffffffffffffffffffffff1663a9059cbb600560009054906101000a900473ffffffffffffffffffffffffffffffffffffffff16836040518363ffffffff167c0100000000000000000000000000000000000000000000000000000000028152600401808373ffffffffffffffffffffffffffffffffffffffff1673ffffffffffffffffffffffffffffffffffffffff16815260200182815260200192505050602060405180830381600087803b1580156111c057600080fd5b505af11580156111d4573d6000803e3d6000fd5b505050506040513d60208110156111ea57600080fd5b81019080805190602001909291905050505050565b60606000806000806000611211610fe9565b151561121c57600080fd5b8660405190808252806020026020018201604052801561124b5781602001602082028038833980820191505090505b509550600094505b600115611592576000935060078054905060ff166002443342606f604051602001808581526020018473ffffffffffffffffffffffffffffffffffffffff1673ffffffffffffffffffffffffffffffffffffffff166c010000000000000000000000000281526014018381526020018260ff1660ff167f01000000000000000000000000000000000000000000000000000000000000000281526001019450505050506040516020818303038152906040526040518082805190602001908083835b60208310151561133a5780518252602082019150602081019050602083039250611315565b6001836020036101000a0380198251168184511680821785525050505050509050019150506020604051808303816000865af115801561137e573d6000803e3d6000fd5b5050506040513d602081101561139357600080fd5b81019080805190602001909291905050506001900460ff168115156113b457fe5b069250600091505b85518260ff1610156114685760078360ff168154811015156113da57fe5b9060005260206000200160009054906101000a900473ffffffffffffffffffffffffffffffffffffffff1673ffffffffffffffffffffffffffffffffffffffff16868360ff1681518110151561142c57fe5b9060200190602002015173ffffffffffffffffffffffffffffffffffffffff16141561145b5760019350611468565b81806001019250506113bc565b83151561158d5760078360ff1681548110151561148157fe5b9060005260206000200160009054906101000a900473ffffffffffffffffffffffffffffffffffffffff1686868060010197508151811015156114c057fe5b9060200190602002019073ffffffffffffffffffffffffffffffffffffffff16908173ffffffffffffffffffffffffffffffffffffffff1681525050868510151561158c57600090505b85518160ff16101561158b57858160ff1681518110151561152757fe5b9060200190602002015173ffffffffffffffffffffffffffffffffffffffff167fbbfa80d5a54baf5590b0bbe42cd4d30dbf44307ed6875f699cd0ee8a7f9cd1d6426040518082815260200191505060405180910390a2808060010191505061150a565b5b5b611253565b50505050505050565b6000600860019054906101000a900460ff161515611621576040517f08c379a00000000000000000000000000000000000000000000000000000000081526004018080602001828103825260168152602001807f63616e27742062657420617420746869732074696d650000000000000000000081525060200191505060405180910390fd5b600160ff168260ff161015801561163f5750601560ff168260ff1611155b15156116b3576040517f08c379a00000000000000000000000000000000000000000000000000000000081526004018080602001828103825260188152602001807f62657420706f732073686f756c6420696e205b312c32315d000000000000000081525060200191505060405180910390fd5b6000341115156116c257600080fd5b60066060604051908101604052803373ffffffffffffffffffffffffffffffffffffffff1681526020018460ff168152602001348152509080600181540180825580915050906001820390600052602060002090600202016000909192909190915060008201518160000160006101000a81548173ffffffffffffffffffffffffffffffffffffffff021916908373ffffffffffffffffffffffffffffffffffffffff16021790555060208201518160000160146101000a81548160ff021916908360ff160217905550604082015181600101555050503373ffffffffffffffffffffffffffffffffffffffff167f063f4540040cf99a22f577ef321c170763020e6277e47275ed9b3d17ec14e13d348442604051808481526020018360ff168152602001828152602001935050505060405180910390a2600090505b60078054905081101561188b573373ffffffffffffffffffffffffffffffffffffffff1660078281548110151561183257fe5b9060005260206000200160009054906101000a900473ffffffffffffffffffffffffffffffffffffffff1673ffffffffffffffffffffffffffffffffffffffff16141561187e5761194f565b80806001019150506117ff565b6032600860009054906101000a900460ff1660ff1614156118c3576000600860006101000a81548160ff021916908360ff1602179055505b3360076008600081819054906101000a900460ff168092919060010191906101000a81548160ff021916908360ff16021790555060ff1681548110151561190657fe5b9060005260206000200160006101000a81548173ffffffffffffffffffffffffffffffffffffffff021916908373ffffffffffffffffffffffffffffffffffffffff1602179055505b5050565b61195b610fe9565b151561196657600080fd5b61196f816122a0565b50565b600260009054906101000a900473ffffffffffffffffffffffffffffffffffffffff1681565b60016020528060005260406000206000915054906101000a900463ffffffff1681565b6119c3610fe9565b15156119ce57600080fd5b80600560006101000a81548173ffffffffffffffffffffffffffffffffffffffff021916908373ffffffffffffffffffffffffffffffffffffffff16021790555050565b611a1a610fe9565b1515611a2557600080fd5b80600460006101000a81548173ffffffffffffffffffffffffffffffffffffffff021916908373ffffffffffffffffffffffffffffffffffffffff16021790555050565b600080600080606060006001600660024433426001604051602001808581526020018473ffffffffffffffffffffffffffffffffffffffff1673ffffffffffffffffffffffffffffffffffffffff166c010000000000000000000000000281526014018381526020018260ff1660ff167f01000000000000000000000000000000000000000000000000000000000000000281526001019450505050506040516020818303038152906040526040518082805190602001908083835b602083101515611b4a5780518252602082019150602081019050602083039250611b25565b6001836020036101000a0380198251168184511680821785525050505050509050019150506020604051808303816000865af1158015611b8e573d6000803e3d6000fd5b5050506040513d6020811015611ba357600080fd5b81019080805190602001909291905050506001900460ff16811515611bc457fe5b06019550600160066002443342600b604051602001808581526020018473ffffffffffffffffffffffffffffffffffffffff1673ffffffffffffffffffffffffffffffffffffffff166c010000000000000000000000000281526014018381526020018260ff1660ff167f01000000000000000000000000000000000000000000000000000000000000000281526001019450505050506040516020818303038152906040526040518082805190602001908083835b602083101515611c9f5780518252602082019150602081019050602083039250611c7a565b6001836020036101000a0380198251168184511680821785525050505050509050019150506020604051808303816000865af1158015611ce3573d6000803e3d6000fd5b5050506040513d6020811015611cf857600080fd5b81019080805190602001909291905050506001900460ff16811515611d1957fe5b06019450600160066002443342606f604051602001808581526020018473ffffffffffffffffffffffffffffffffffffffff1673ffffffffffffffffffffffffffffffffffffffff166c010000000000000000000000000281526014018381526020018260ff1660ff167f01000000000000000000000000000000000000000000000000000000000000000281526001019450505050506040516020818303038152906040526040518082805190602001908083835b602083101515611df45780518252602082019150602081019050602083039250611dcf565b6001836020036101000a0380198251168184511680821785525050505050509050019150506020604051808303816000865af1158015611e38573d6000803e3d6000fd5b5050506040513d6020811015611e4d57600080fd5b81019080805190602001909291905050506001900460ff16811515611e6e57fe5b06019350838587010192506004604051908082528060200260200182016040528015611ea95781602001602082028038833980820191505090505b5091506000905060048360ff1610158015611ec85750600a8360ff1611155b15611f01576001828280600101935060ff16815181101515611ee657fe5b9060200190602002019060ff16908160ff1681525050611f4f565b600b8360ff1610158015611f19575060118360ff1611155b15611f4e576004828280600101935060ff16815181101515611f3757fe5b9060200190602002019060ff16908160ff16815250505b5b60058360ff161480611f64575060078360ff16145b80611f72575060098360ff16145b80611f805750600b8360ff16145b80611f8e5750600d8360ff16145b80611f9c5750600f8360ff16145b80611faa575060118360ff16145b15611fe3576002828280600101935060ff16815181101515611fc857fe5b9060200190602002019060ff16908160ff1681525050612074565b60048360ff161480611ff8575060068360ff16145b80612006575060088360ff16145b806120145750600a8360ff16145b806120225750600c8360ff16145b806120305750600e8360ff16145b8061203e575060108360ff16145b15612073576003828280600101935060ff1681518110151561205c57fe5b9060200190602002019060ff16908160ff16815250505b5b8460ff168660ff1614801561208e57508360ff168560ff16145b15612244576007828280600101935060ff168151811015156120ac57fe5b9060200190602002019060ff16908160ff168152505060018660ff161415612102576001828280600101935060ff168151811015156120e757fe5b9060200190602002019060ff16908160ff1681525050612243565b60028660ff161415612142576002828280600101935060ff1681518110151561212757fe5b9060200190602002019060ff16908160ff1681525050612242565b60038660ff161415612182576003828280600101935060ff1681518110151561216757fe5b9060200190602002019060ff16908160ff1681525050612241565b60048660ff1614156121c2576004828280600101935060ff168151811015156121a757fe5b9060200190602002019060ff16908160ff1681525050612240565b60058660ff161415612202576005828280600101935060ff168151811015156121e757fe5b9060200190602002019060ff16908160ff168152505061223f565b60068660ff16141561223e576006828280600101935060ff1681518110151561222757fe5b9060200190602002019060ff16908160ff16815250505b5b5b5b5b5b5b61224d82610ba8565b505050505050565b60008060008311151561226757600080fd5b828481151561227257fe5b0490508091505092915050565b60008083831115151561229157600080fd5b82840390508091505092915050565b600073ffffffffffffffffffffffffffffffffffffffff168173ffffffffffffffffffffffffffffffffffffffff16141515156122dc57600080fd5b8073ffffffffffffffffffffffffffffffffffffffff166000809054906101000a900473ffffffffffffffffffffffffffffffffffffffff1673ffffffffffffffffffffffffffffffffffffffff167f8be0079c531659141344cd1fd0a4f28419497f9722a3daafe3b4186f6b6457e060405160405180910390a3806000806101000a81548173ffffffffffffffffffffffffffffffffffffffff021916908373ffffffffffffffffffffffffffffffffffffffff16021790555050565b606060405190810160405280600073ffffffffffffffffffffffffffffffffffffffff168152602001600060ff168152602001600081525090565b815481835581811115612402576002028160020283600052602060002091820191016124019190612407565b5b505050565b61246691905b8082111561246257600080820160006101000a81549073ffffffffffffffffffffffffffffffffffffffff02191690556000820160146101000a81549060ff021916905560018201600090555060020161240d565b5090565b905600a165627a7a72305820e0bcc5f9143da3329e2016c76df86344c620af0ff3ef63576a975137b9c1b7180029",
  "source": "pragma solidity ^0.4.23;\n\n\nimport \"./openzeppelin-solidity/contracts/ownership/Ownable.sol\";\nimport \"./openzeppelin-solidity/contracts/math/SafeMath.sol\";\nimport \"./openzeppelin-solidity/contracts/token/ERC20/IERC20.sol\";\n\n\ncontract Sicbo is Ownable {\n    using SafeMath for uint256;\n    // 5600\n    uint256 constant CAP_MINING_TOKEN = 5600000000;\n    uint256 constant MININGREWARD = 10;\n    uint256 constant MININGFALLOFF = 1;\n    uint256 constant DECIMALS = 6;\n    /**/\n    uint8 constant SMALL = 1;//\n    uint8 constant ODD = 2;//\n    uint8 constant EVEN = 3;//\n    uint8 constant BIG = 4;//\n    uint8 constant THREE_1 = 1;//1\n    uint8 constant THREE_2 = 2;//2\n    uint8 constant THREE_3 = 3;//3\n    uint8 constant THREE_4 = 4;//4\n    uint8 constant THREE_5 = 5;//5\n    uint8 constant THREE_6 = 6;//6\n    uint8 constant THREE_SAME = 7;//\n    uint8 constant SUM_4 = 8;\n    uint8 constant SUM_5 = 9;\n    uint8 constant SUM_6 = 10;\n    uint8 constant SUM_7 = 11;\n    uint8 constant SUM_8 = 12;\n    uint8 constant SUM_9 = 13;\n    uint8 constant SUM_10 = 14;\n    uint8 constant SUM_11 = 15;\n    uint8 constant SUM_12 = 16;\n    uint8 constant SUM_13 = 17;\n    uint8 constant SUM_14 = 18;\n    uint8 constant SUM_15 = 19;\n    uint8 constant SUM_16 = 20;\n    uint8 constant SUM_17 = 21;\n    /**/\n    mapping(uint8 => uint32) public BET_POS_MULTIPLE;\n\n    constructor (address _craft, address _minerCFTAddr) public {\n        craftToken = IERC20(_craft);\n        minerCFTAddr = _minerCFTAddr;\n        BET_POS_MULTIPLE[SMALL] = 1;\n        BET_POS_MULTIPLE[ODD] = 1;\n        BET_POS_MULTIPLE[EVEN] = 1;\n        BET_POS_MULTIPLE[BIG] = 1;\n        BET_POS_MULTIPLE[THREE_1] = 150;\n        BET_POS_MULTIPLE[THREE_2] = 150;\n        BET_POS_MULTIPLE[THREE_3] = 150;\n        BET_POS_MULTIPLE[THREE_4] = 150;\n        BET_POS_MULTIPLE[THREE_5] = 150;\n        BET_POS_MULTIPLE[THREE_6] = 150;\n        BET_POS_MULTIPLE[THREE_SAME] = 24;\n        BET_POS_MULTIPLE[SUM_4] = 50;\n        BET_POS_MULTIPLE[SUM_5] = 18;\n        BET_POS_MULTIPLE[SUM_6] = 14;\n        BET_POS_MULTIPLE[SUM_7] = 12;\n        BET_POS_MULTIPLE[SUM_8] = 8;\n        BET_POS_MULTIPLE[SUM_9] = 6;\n        BET_POS_MULTIPLE[SUM_10] = 6;\n        BET_POS_MULTIPLE[SUM_11] = 6;\n        BET_POS_MULTIPLE[SUM_12] = 6;\n        BET_POS_MULTIPLE[SUM_13] = 8;\n        BET_POS_MULTIPLE[SUM_14] = 12;\n        BET_POS_MULTIPLE[SUM_15] = 14;\n        BET_POS_MULTIPLE[SUM_16] = 18;\n        BET_POS_MULTIPLE[SUM_17] = 50;\n    }\n\n    function destroy() public onlyOwner {\n        craftToken.renounceContracter();\n        // transferTRXToTeam(address(this).balance);\n        transferCFTToTeam(craftToken.balanceOf(address(this)));\n        selfdestruct(team);\n    }\n\n\n    address public minerCFTAddr;\n\n    IERC20 craftToken;\n\n    address public team;\n\n    address public teamCFT;\n\n    function updateTeamAddr(address _addr) onlyOwner public {\n        team = _addr;\n    }\n\n    function updateTeamCFTAddr(address _addr) onlyOwner public {\n        teamCFT = _addr;\n    }\n\n    function transferTRXToTeam(uint256 _amount) onlyOwner public {\n        team.transfer(_amount * 1 sun);\n    }\n\n    function transferCFTToTeam(uint256 _amount) onlyOwner public {\n        craftToken.transfer(teamCFT, _amount);\n    }\n\n    function updateMinerCFTAddr(address _addr) onlyOwner public {\n        minerCFTAddr = _addr;\n    }\n\n    event LogBet(address indexed userAddr, uint256 betMoney, uint256 betPos, uint256 timeStamp);\n\n    event Lottery(address indexed userAddr, uint256 timeStamp);\n\n    struct Bet {\n        address user;\n        uint8 betPos;\n        uint betAmount;\n    }\n\n    function curCFTReward() public view returns (uint256) {\n        uint256 curMiningToken = CAP_MINING_TOKEN.sub(craftToken.balanceOf(minerCFTAddr).div(10 ** DECIMALS));\n        if (curMiningToken < 600000000) {\n            return MININGREWARD;\n        } else if (curMiningToken < 1600000000) {\n            return MININGREWARD - MININGFALLOFF;\n        } else if (curMiningToken < 2600000000) {\n            return MININGREWARD - MININGFALLOFF * 2;\n        } else if (curMiningToken < 3600000000) {\n            return MININGREWARD - MININGFALLOFF * 3;\n        } else if (curMiningToken < 4600000000) {\n            return MININGREWARD - MININGFALLOFF * 4;\n        } else if (curMiningToken < CAP_MINING_TOKEN) {\n            return MININGREWARD - MININGFALLOFF * 5;\n        } else {\n            return 0;\n        }\n    }\n    /**/\n    Bet[] betList;\n    /**/\n    address[] recentAddressList;\n    /**/\n    uint8 recentAddressCursor;\n    /*false*/\n    bool running;\n\n    function getRunning() public view returns (bool){\n        return running;\n    }\n\n    function betStart() public onlyOwner {\n        running = true;\n    }\n\n    function betStop() public onlyOwner {\n        running = false;\n    }\n\n    /*\n    \n    */\n    function bet(uint8 betPos) payable public {\n        require(running, \"can't bet at this time\");\n        require(betPos >= SMALL && betPos <= SUM_17, \"bet pos should in [1,21]\");\n        require(msg.value > 0);\n        betList.push(Bet({user : msg.sender, betPos : betPos, betAmount : msg.value}));\n        emit LogBet(msg.sender, msg.value, betPos, now);\n        for (uint i = 0; i < recentAddressList.length; i++) {\n            if (recentAddressList[i] == msg.sender) {\n                return;\n            }\n        }\n        if (recentAddressCursor == 50) {\n            recentAddressCursor = uint8(0);\n        }\n        recentAddressList[recentAddressCursor++] = msg.sender;\n        return;\n    }\n\n    /*\n    \n    */\n    function open() public {\n        uint8 diceA = uint8(sha256(abi.encodePacked(block.difficulty, msg.sender, block.timestamp, uint8(1)))) % 6 + 1;\n        uint8 diceB = uint8(sha256(abi.encodePacked(block.difficulty, msg.sender, block.timestamp, uint8(11)))) % 6 + 1;\n        uint8 diceC = uint8(sha256(abi.encodePacked(block.difficulty, msg.sender, block.timestamp, uint8(111)))) % 6 + 1;\n        uint8 sum = diceA + diceB + diceC;\n        //11\n        uint8[] memory results = new uint8[](4);\n        uint8 cursor = 0;\n        if (sum >= 4 && sum <= 10) {\n            results[cursor++] = SMALL;\n        }\n        //11\n        else if (sum >= 11 && sum <= 17) {\n            results[cursor++] = BIG;\n        }\n        //\n        if (sum == 5 || sum == 7 || sum == 9 || sum == 11 || sum == 13 || sum == 15 || sum == 17) {\n            results[cursor++] = ODD;\n        }\n        //\n        else if (sum == 4 || sum == 6 || sum == 8 || sum == 10 || sum == 12 || sum == 14 || sum == 16) {\n            results[cursor++] = EVEN;\n        }\n        //1150\n        if (diceA == diceB && diceB == diceC) {\n            results[cursor++] = THREE_SAME;\n            if (diceA == 1) {\n                results[cursor++] = THREE_1;\n            } else if (diceA == 2) {\n                results[cursor++] = THREE_2;\n            } else if (diceA == 3) {\n                results[cursor++] = THREE_3;\n            } else if (diceA == 4) {\n                results[cursor++] = THREE_4;\n            } else if (diceA == 5) {\n                results[cursor++] = THREE_5;\n            } else if (diceA == 6) {\n                results[cursor++] = THREE_6;\n            }\n        }\n        sendAward(results);\n    }\n\n    /**/\n    function lotteryOpen(uint count) public onlyOwner {\n        address[] memory winners = new address[](count);\n        uint idx = 0;\n        while (true) {\n            bool duplicate = false;\n            uint8 random = uint8(sha256(abi.encodePacked(block.difficulty, msg.sender, block.timestamp, uint8(111)))) % uint8(recentAddressList.length);\n            for (uint8 i = 0; i < winners.length; i++) {\n                if (winners[i] == recentAddressList[random]) {\n                    duplicate = true;\n                    break;\n                }\n            }\n            if (!duplicate) {\n                winners[idx++] = recentAddressList[random];\n                if (idx >= count) {\n                    for (uint8 j = 0; j < winners.length; j++) {\n                        emit Lottery(winners[j], now);\n                    }\n                }\n            }\n        }\n    }\n\n    /**/\n    function sendAward(uint8[] results) public payable {\n        uint totalToPay;\n        for (uint i = 0; i < results.length; i++)\n        {\n            uint8 winPos = results[i];\n            for (uint j = 0; j < betList.length; j++)\n            {\n                Bet memory userBet = betList[j];\n                if (winPos == userBet.betPos) {\n                    uint win = userBet.betAmount * BET_POS_MULTIPLE[userBet.betPos];\n                    totalToPay += win;\n                }\n            }\n        }\n        require(totalToPay <= address(this).balance, \"not enough money to pay\");\n        for (uint x = 0; x < results.length; x++)\n        {\n            uint8 winPos1 = results[x];\n            for (uint y = 0; y < betList.length; y++)\n            {\n                Bet memory userBet1 = betList[y];\n                if (winPos1 == userBet1.betPos) {\n                    uint win1 = userBet1.betAmount * BET_POS_MULTIPLE[userBet1.betPos];\n                    emit LogBet(userBet1.user, win1, userBet1.betPos, now);\n                    msg.sender.transfer(win1 * 1 sun);\n                }\n            }\n        }\n        betList.length = 0;\n    }\n}",
  "sourcePath": "/Users/yhw/Workspace/rockgame/tronCraft/contracts/Sicbo.sol",
  "compiler": {
    "name": "solc",
    "version": "0.4.24-develop.2018.8.28+commit.3ba0cdec.mod.Emscripten.clang"
  },
  "schemaVersion": "2.0.1",
  "updatedAt": "2018-12-21T08:58:01.731Z"
}