{
  "contractName": "Sicbo",
  "abi": [
    {
      "constant": false,
      "inputs": [],
      "name": "renounceOwnership",
      "outputs": [],
      "payable": false,
      "stateMutability": "nonpayable",
      "type": "function"
    },
    {
      "constant": true,
      "inputs": [],
      "name": "team",
      "outputs": [
        {
          "name": "",
          "type": "address"
        }
      ],
      "payable": false,
      "stateMutability": "view",
      "type": "function"
    },
    {
      "constant": true,
      "inputs": [],
      "name": "owner",
      "outputs": [
        {
          "name": "",
          "type": "address"
        }
      ],
      "payable": false,
      "stateMutability": "view",
      "type": "function"
    },
    {
      "constant": true,
      "inputs": [],
      "name": "isOwner",
      "outputs": [
        {
          "name": "",
          "type": "bool"
        }
      ],
      "payable": false,
      "stateMutability": "view",
      "type": "function"
    },
    {
      "constant": true,
      "inputs": [],
      "name": "teamCFT",
      "outputs": [
        {
          "name": "",
          "type": "address"
        }
      ],
      "payable": false,
      "stateMutability": "view",
      "type": "function"
    },
    {
      "constant": false,
      "inputs": [
        {
          "name": "newOwner",
          "type": "address"
        }
      ],
      "name": "transferOwnership",
      "outputs": [],
      "payable": false,
      "stateMutability": "nonpayable",
      "type": "function"
    },
    {
      "constant": true,
      "inputs": [],
      "name": "minerCFTAddr",
      "outputs": [
        {
          "name": "",
          "type": "address"
        }
      ],
      "payable": false,
      "stateMutability": "view",
      "type": "function"
    },
    {
      "constant": true,
      "inputs": [
        {
          "name": "",
          "type": "uint8"
        }
      ],
      "name": "BET_POS_MULTIPLE",
      "outputs": [
        {
          "name": "",
          "type": "uint32"
        }
      ],
      "payable": false,
      "stateMutability": "view",
      "type": "function"
    },
    {
      "inputs": [
        {
          "name": "_craft",
          "type": "address"
        },
        {
          "name": "_minerCFTAddr",
          "type": "address"
        }
      ],
      "payable": false,
      "stateMutability": "nonpayable",
      "type": "constructor"
    },
    {
      "anonymous": false,
      "inputs": [
        {
          "indexed": true,
          "name": "userAddr",
          "type": "address"
        },
        {
          "indexed": false,
          "name": "betMoney",
          "type": "uint256"
        },
        {
          "indexed": false,
          "name": "betPos",
          "type": "uint256"
        },
        {
          "indexed": false,
          "name": "timeStamp",
          "type": "uint256"
        }
      ],
      "name": "LogBet",
      "type": "event"
    },
    {
      "anonymous": false,
      "inputs": [
        {
          "indexed": true,
          "name": "userAddr",
          "type": "address"
        },
        {
          "indexed": false,
          "name": "timeStamp",
          "type": "uint256"
        }
      ],
      "name": "Lottery",
      "type": "event"
    },
    {
      "anonymous": false,
      "inputs": [
        {
          "indexed": true,
          "name": "previousOwner",
          "type": "address"
        },
        {
          "indexed": true,
          "name": "newOwner",
          "type": "address"
        }
      ],
      "name": "OwnershipTransferred",
      "type": "event"
    },
    {
      "constant": false,
      "inputs": [],
      "name": "destroy",
      "outputs": [],
      "payable": false,
      "stateMutability": "nonpayable",
      "type": "function"
    },
    {
      "constant": false,
      "inputs": [
        {
          "name": "_addr",
          "type": "address"
        }
      ],
      "name": "updateTeamAddr",
      "outputs": [],
      "payable": false,
      "stateMutability": "nonpayable",
      "type": "function"
    },
    {
      "constant": false,
      "inputs": [
        {
          "name": "_addr",
          "type": "address"
        }
      ],
      "name": "updateTeamCFTAddr",
      "outputs": [],
      "payable": false,
      "stateMutability": "nonpayable",
      "type": "function"
    },
    {
      "constant": false,
      "inputs": [
        {
          "name": "_amount",
          "type": "uint256"
        }
      ],
      "name": "transferTRXToTeam",
      "outputs": [],
      "payable": false,
      "stateMutability": "nonpayable",
      "type": "function"
    },
    {
      "constant": false,
      "inputs": [
        {
          "name": "_amount",
          "type": "uint256"
        }
      ],
      "name": "transferCFTToTeam",
      "outputs": [],
      "payable": false,
      "stateMutability": "nonpayable",
      "type": "function"
    },
    {
      "constant": false,
      "inputs": [
        {
          "name": "_addr",
          "type": "address"
        }
      ],
      "name": "updateMinerCFTAddr",
      "outputs": [],
      "payable": false,
      "stateMutability": "nonpayable",
      "type": "function"
    },
    {
      "constant": true,
      "inputs": [],
      "name": "curCFTReward",
      "outputs": [
        {
          "name": "",
          "type": "uint256"
        }
      ],
      "payable": false,
      "stateMutability": "view",
      "type": "function"
    },
    {
      "constant": true,
      "inputs": [],
      "name": "getRunning",
      "outputs": [
        {
          "name": "",
          "type": "bool"
        }
      ],
      "payable": false,
      "stateMutability": "view",
      "type": "function"
    },
    {
      "constant": false,
      "inputs": [],
      "name": "betStart",
      "outputs": [],
      "payable": false,
      "stateMutability": "nonpayable",
      "type": "function"
    },
    {
      "constant": false,
      "inputs": [],
      "name": "betStop",
      "outputs": [],
      "payable": false,
      "stateMutability": "nonpayable",
      "type": "function"
    },
    {
      "constant": false,
      "inputs": [
        {
          "name": "betPos",
          "type": "uint8"
        }
      ],
      "name": "bet",
      "outputs": [],
      "payable": true,
      "stateMutability": "payable",
      "type": "function"
    },
    {
      "constant": true,
      "inputs": [],
      "name": "getLotteryUserList",
      "outputs": [
        {
          "name": "",
          "type": "address[]"
        }
      ],
      "payable": false,
      "stateMutability": "view",
      "type": "function"
    },
    {
      "constant": false,
      "inputs": [],
      "name": "open",
      "outputs": [],
      "payable": false,
      "stateMutability": "nonpayable",
      "type": "function"
    },
    {
      "constant": false,
      "inputs": [
        {
          "name": "count",
          "type": "uint256"
        }
      ],
      "name": "lotteryOpen",
      "outputs": [],
      "payable": false,
      "stateMutability": "nonpayable",
      "type": "function"
    },
    {
      "constant": false,
      "inputs": [
        {
          "name": "results",
          "type": "uint8[]"
        }
      ],
      "name": "sendAward",
      "outputs": [],
      "payable": true,
      "stateMutability": "payable",
      "type": "function"
    }
  ],
  "bytecode": "0x608060405234801561001057600080fd5b50604051604080612d978339810180604052810190808051906020019092919080519060200190929190505050336000806101000a81548173ffffffffffffffffffffffffffffffffffffffff021916908373ffffffffffffffffffffffffffffffffffffffff1602179055506000809054906101000a900473ffffffffffffffffffffffffffffffffffffffff1673ffffffffffffffffffffffffffffffffffffffff16600073ffffffffffffffffffffffffffffffffffffffff167f8be0079c531659141344cd1fd0a4f28419497f9722a3daafe3b4186f6b6457e060405160405180910390a381600360006101000a81548173ffffffffffffffffffffffffffffffffffffffff021916908373ffffffffffffffffffffffffffffffffffffffff16021790555080600260006101000a81548173ffffffffffffffffffffffffffffffffffffffff021916908373ffffffffffffffffffffffffffffffffffffffff1602179055506001806000600160ff1660ff16815260200190815260200160002060006101000a81548163ffffffff021916908363ffffffff1602179055506001806000600260ff1660ff16815260200190815260200160002060006101000a81548163ffffffff021916908363ffffffff1602179055506001806000600360ff1660ff16815260200190815260200160002060006101000a81548163ffffffff021916908363ffffffff1602179055506001806000600460ff1660ff16815260200190815260200160002060006101000a81548163ffffffff021916908363ffffffff160217905550609660016000600160ff1660ff16815260200190815260200160002060006101000a81548163ffffffff021916908363ffffffff160217905550609660016000600260ff1660ff16815260200190815260200160002060006101000a81548163ffffffff021916908363ffffffff160217905550609660016000600360ff1660ff16815260200190815260200160002060006101000a81548163ffffffff021916908363ffffffff160217905550609660016000600460ff1660ff16815260200190815260200160002060006101000a81548163ffffffff021916908363ffffffff160217905550609660016000600560ff1660ff16815260200190815260200160002060006101000a81548163ffffffff021916908363ffffffff160217905550609660016000600660ff1660ff16815260200190815260200160002060006101000a81548163ffffffff021916908363ffffffff160217905550601860016000600760ff1660ff16815260200190815260200160002060006101000a81548163ffffffff021916908363ffffffff160217905550603260016000600860ff1660ff16815260200190815260200160002060006101000a81548163ffffffff021916908363ffffffff160217905550601260016000600960ff1660ff16815260200190815260200160002060006101000a81548163ffffffff021916908363ffffffff160217905550600e60016000600a60ff1660ff16815260200190815260200160002060006101000a81548163ffffffff021916908363ffffffff160217905550600c60016000600b60ff1660ff16815260200190815260200160002060006101000a81548163ffffffff021916908363ffffffff160217905550600860016000600c60ff1660ff16815260200190815260200160002060006101000a81548163ffffffff021916908363ffffffff160217905550600660016000600d60ff1660ff16815260200190815260200160002060006101000a81548163ffffffff021916908363ffffffff160217905550600660016000600e60ff1660ff16815260200190815260200160002060006101000a81548163ffffffff021916908363ffffffff160217905550600660016000600f60ff1660ff16815260200190815260200160002060006101000a81548163ffffffff021916908363ffffffff160217905550600660016000601060ff1660ff16815260200190815260200160002060006101000a81548163ffffffff021916908363ffffffff160217905550600860016000601160ff1660ff16815260200190815260200160002060006101000a81548163ffffffff021916908363ffffffff160217905550600c60016000601260ff1660ff16815260200190815260200160002060006101000a81548163ffffffff021916908363ffffffff160217905550600e60016000601360ff1660ff16815260200190815260200160002060006101000a81548163ffffffff021916908363ffffffff160217905550601260016000601460ff1660ff16815260200190815260200160002060006101000a81548163ffffffff021916908363ffffffff160217905550603260016000601560ff1660ff16815260200190815260200160002060006101000a81548163ffffffff021916908363ffffffff1602179055505050612665806107326000396000f300608060405260043610610133576000357c0100000000000000000000000000000000000000000000000000000000900463ffffffff16806331c1a527146101385780633924f089146101655780636bf24d7514610194578063715018a6146101bf5780637aa75894146101d657806383197ef01461021957806385f2aef214610230578063870198e4146102875780638da5cb5b146102e05780638f32d59b14610337578063943c8317146103665780639cfc14fd146103bd578063ad8b2c77146103d4578063ae4d6d08146103eb578063b519914014610418578063bbb9d50f14610445578063d0821b0e146104b1578063f2fde38b146104d4578063f716213a14610517578063f7b550f61461056e578063fa5af527146105be578063fb690f5014610601578063fcfff16f14610644575b600080fd5b34801561014457600080fd5b506101636004803603810190808035906020019092919050505061065b565b005b34801561017157600080fd5b5061017a6106dd565b604051808215151515815260200191505060405180910390f35b3480156101a057600080fd5b506101a96106f4565b6040518082815260200191505060405180910390f35b3480156101cb57600080fd5b506101d46108e4565b005b3480156101e257600080fd5b50610217600480360381019080803573ffffffffffffffffffffffffffffffffffffffff1690602001909291905050506109b6565b005b34801561022557600080fd5b5061022e610a0d565b005b34801561023c57600080fd5b50610245610c19565b604051808273ffffffffffffffffffffffffffffffffffffffff1673ffffffffffffffffffffffffffffffffffffffff16815260200191505060405180910390f35b6102de60048036038101908080359060200190820180359060200190808060200260200160405190810160405280939291908181526020018383602002808284378201915050505050509192919290505050610c3f565b005b3480156102ec57600080fd5b506102f5611063565b604051808273ffffffffffffffffffffffffffffffffffffffff1673ffffffffffffffffffffffffffffffffffffffff16815260200191505060405180910390f35b34801561034357600080fd5b5061034c61108c565b604051808215151515815260200191505060405180910390f35b34801561037257600080fd5b5061037b6110e3565b604051808273ffffffffffffffffffffffffffffffffffffffff1673ffffffffffffffffffffffffffffffffffffffff16815260200191505060405180910390f35b3480156103c957600080fd5b506103d2611109565b005b3480156103e057600080fd5b506103e9611139565b005b3480156103f757600080fd5b5061041660048036038101908080359060200190929190505050611169565b005b34801561042457600080fd5b50610443600480360381019080803590602001909291905050506112a2565b005b34801561045157600080fd5b5061045a61163e565b6040518080602001828103825283818151815260200191508051906020019060200280838360005b8381101561049d578082015181840152602081019050610482565b505050509050019250505060405180910390f35b6104d2600480360381019080803560ff1690602001909291905050506116cc565b005b3480156104e057600080fd5b50610515600480360381019080803573ffffffffffffffffffffffffffffffffffffffff169060200190929190505050611b23565b005b34801561052357600080fd5b5061052c611b42565b604051808273ffffffffffffffffffffffffffffffffffffffff1673ffffffffffffffffffffffffffffffffffffffff16815260200191505060405180910390f35b34801561057a57600080fd5b5061059c600480360381019080803560ff169060200190929190505050611b68565b604051808263ffffffff1663ffffffff16815260200191505060405180910390f35b3480156105ca57600080fd5b506105ff600480360381019080803573ffffffffffffffffffffffffffffffffffffffff169060200190929190505050611b8b565b005b34801561060d57600080fd5b50610642600480360381019080803573ffffffffffffffffffffffffffffffffffffffff169060200190929190505050611be2565b005b34801561065057600080fd5b50610659611c39565b005b61066361108c565b151561066e57600080fd5b600460009054906101000a900473ffffffffffffffffffffffffffffffffffffffff1673ffffffffffffffffffffffffffffffffffffffff166108fc600183029081150290604051600060405180830381858888f193505050501580156106d9573d6000803e3d6000fd5b5050565b6000600860019054906101000a900460ff16905090565b60008061083e61082a6006600a0a600360009054906101000a900473ffffffffffffffffffffffffffffffffffffffff1673ffffffffffffffffffffffffffffffffffffffff166370a08231600260009054906101000a900473ffffffffffffffffffffffffffffffffffffffff166040518263ffffffff167c0100000000000000000000000000000000000000000000000000000000028152600401808273ffffffffffffffffffffffffffffffffffffffff1673ffffffffffffffffffffffffffffffffffffffff168152602001915050602060405180830381600087803b1580156107e157600080fd5b505af11580156107f5573d6000803e3d6000fd5b505050506040513d602081101561080b57600080fd5b810190808051906020019092919050505061242590919063ffffffff16565b64014dc9380061244f90919063ffffffff16565b90506323c3460081101561085557600a91506108e0565b635f5e100081101561086d576001600a0391506108e0565b639af8da00811015610888576002600102600a0391506108e0565b63d693a4008110156108a3576003600102600a0391506108e0565b6401122e6e008110156108bf576004600102600a0391506108e0565b64014dc938008110156108db576005600102600a0391506108e0565b600091505b5090565b6108ec61108c565b15156108f757600080fd5b600073ffffffffffffffffffffffffffffffffffffffff166000809054906101000a900473ffffffffffffffffffffffffffffffffffffffff1673ffffffffffffffffffffffffffffffffffffffff167f8be0079c531659141344cd1fd0a4f28419497f9722a3daafe3b4186f6b6457e060405160405180910390a360008060006101000a81548173ffffffffffffffffffffffffffffffffffffffff021916908373ffffffffffffffffffffffffffffffffffffffff160217905550565b6109be61108c565b15156109c957600080fd5b80600260006101000a81548173ffffffffffffffffffffffffffffffffffffffff021916908373ffffffffffffffffffffffffffffffffffffffff16021790555050565b610a1561108c565b1515610a2057600080fd5b600360009054906101000a900473ffffffffffffffffffffffffffffffffffffffff1673ffffffffffffffffffffffffffffffffffffffff1663e57513506040518163ffffffff167c0100000000000000000000000000000000000000000000000000000000028152600401600060405180830381600087803b158015610aa657600080fd5b505af1158015610aba573d6000803e3d6000fd5b50505050610ade3073ffffffffffffffffffffffffffffffffffffffff163161065b565b610bde600360009054906101000a900473ffffffffffffffffffffffffffffffffffffffff1673ffffffffffffffffffffffffffffffffffffffff166370a08231306040518263ffffffff167c0100000000000000000000000000000000000000000000000000000000028152600401808273ffffffffffffffffffffffffffffffffffffffff1673ffffffffffffffffffffffffffffffffffffffff168152602001915050602060405180830381600087803b158015610b9e57600080fd5b505af1158015610bb2573d6000803e3d6000fd5b505050506040513d6020811015610bc857600080fd5b8101908080519060200190929190505050611169565b600460009054906101000a900473ffffffffffffffffffffffffffffffffffffffff1673ffffffffffffffffffffffffffffffffffffffff16ff5b600460009054906101000a900473ffffffffffffffffffffffffffffffffffffffff1681565b600080600080610c4d61256a565b600080600080610c5b61256a565b60008099505b8b518a1015610db2578b8a815181101515610c7857fe5b906020019060200201519850600097505b600680549050881015610da557600688815481101515610ca557fe5b9060005260206000209060020201606060405190810160405290816000820160009054906101000a900473ffffffffffffffffffffffffffffffffffffffff1673ffffffffffffffffffffffffffffffffffffffff1673ffffffffffffffffffffffffffffffffffffffff1681526020016000820160149054906101000a900460ff1660ff1660ff1681526020016001820154815250509650866020015160ff168960ff161415610d985760016000886020015160ff1660ff16815260200190815260200160002060009054906101000a900463ffffffff1663ffffffff168760400151028760400151019550858b019a505b8780600101985050610c89565b89806001019a5050610c61565b3073ffffffffffffffffffffffffffffffffffffffff16318b11151515610e41576040517f08c379a00000000000000000000000000000000000000000000000000000000081526004018080602001828103825260178152602001807f6e6f7420656e6f756768206d6f6e657920746f2070617900000000000000000081525060200191505060405180910390fd5b600094505b8b51851015611045578b85815181101515610e5d57fe5b906020019060200201519350600092505b60068054905083101561103857600683815481101515610e8a57fe5b9060005260206000209060020201606060405190810160405290816000820160009054906101000a900473ffffffffffffffffffffffffffffffffffffffff1673ffffffffffffffffffffffffffffffffffffffff1673ffffffffffffffffffffffffffffffffffffffff1681526020016000820160149054906101000a900460ff1660ff1660ff1681526020016001820154815250509150816020015160ff168460ff16141561102b5760016000836020015160ff1660ff16815260200190815260200160002060009054906101000a900463ffffffff1663ffffffff168260400151028260400151019050816000015173ffffffffffffffffffffffffffffffffffffffff167f063f4540040cf99a22f577ef321c170763020e6277e47275ed9b3d17ec14e13d82846020015142604051808481526020018360ff168152602001828152602001935050505060405180910390a23373ffffffffffffffffffffffffffffffffffffffff166108fc600183029081150290604051600060405180830381858888f19350505050158015611029573d6000803e3d6000fd5b505b8280600101935050610e6e565b8480600101955050610e46565b600060068161105491906125a5565b50505050505050505050505050565b60008060009054906101000a900473ffffffffffffffffffffffffffffffffffffffff16905090565b60008060009054906101000a900473ffffffffffffffffffffffffffffffffffffffff1673ffffffffffffffffffffffffffffffffffffffff163373ffffffffffffffffffffffffffffffffffffffff1614905090565b600560009054906101000a900473ffffffffffffffffffffffffffffffffffffffff1681565b61111161108c565b151561111c57600080fd5b6000600860016101000a81548160ff021916908315150217905550565b61114161108c565b151561114c57600080fd5b6001600860016101000a81548160ff021916908315150217905550565b61117161108c565b151561117c57600080fd5b600360009054906101000a900473ffffffffffffffffffffffffffffffffffffffff1673ffffffffffffffffffffffffffffffffffffffff1663a9059cbb600560009054906101000a900473ffffffffffffffffffffffffffffffffffffffff16836040518363ffffffff167c0100000000000000000000000000000000000000000000000000000000028152600401808373ffffffffffffffffffffffffffffffffffffffff1673ffffffffffffffffffffffffffffffffffffffff16815260200182815260200192505050602060405180830381600087803b15801561126357600080fd5b505af1158015611277573d6000803e3d6000fd5b505050506040513d602081101561128d57600080fd5b81019080805190602001909291905050505050565b606060008060008060006112b461108c565b15156112bf57600080fd5b866040519080825280602002602001820160405280156112ee5781602001602082028038833980820191505090505b509550600094505b600115611635576000935060078054905060ff166002443342606f604051602001808581526020018473ffffffffffffffffffffffffffffffffffffffff1673ffffffffffffffffffffffffffffffffffffffff166c010000000000000000000000000281526014018381526020018260ff1660ff167f01000000000000000000000000000000000000000000000000000000000000000281526001019450505050506040516020818303038152906040526040518082805190602001908083835b6020831015156113dd57805182526020820191506020810190506020830392506113b8565b6001836020036101000a0380198251168184511680821785525050505050509050019150506020604051808303816000865af1158015611421573d6000803e3d6000fd5b5050506040513d602081101561143657600080fd5b81019080805190602001909291905050506001900460ff1681151561145757fe5b069250600091505b85518260ff16101561150b5760078360ff1681548110151561147d57fe5b9060005260206000200160009054906101000a900473ffffffffffffffffffffffffffffffffffffffff1673ffffffffffffffffffffffffffffffffffffffff16868360ff168151811015156114cf57fe5b9060200190602002015173ffffffffffffffffffffffffffffffffffffffff1614156114fe576001935061150b565b818060010192505061145f565b8315156116305760078360ff1681548110151561152457fe5b9060005260206000200160009054906101000a900473ffffffffffffffffffffffffffffffffffffffff16868680600101975081518110151561156357fe5b9060200190602002019073ffffffffffffffffffffffffffffffffffffffff16908173ffffffffffffffffffffffffffffffffffffffff1681525050868510151561162f57600090505b85518160ff16101561162e57858160ff168151811015156115ca57fe5b9060200190602002015173ffffffffffffffffffffffffffffffffffffffff167fbbfa80d5a54baf5590b0bbe42cd4d30dbf44307ed6875f699cd0ee8a7f9cd1d6426040518082815260200191505060405180910390a280806001019150506115ad565b5b5b6112f6565b50505050505050565b606060078054806020026020016040519081016040528092919081815260200182805480156116c257602002820191906000526020600020905b8160009054906101000a900473ffffffffffffffffffffffffffffffffffffffff1673ffffffffffffffffffffffffffffffffffffffff1681526020019060010190808311611678575b5050505050905090565b6000600860019054906101000a900460ff161515611752576040517f08c379a00000000000000000000000000000000000000000000000000000000081526004018080602001828103825260168152602001807f63616e27742062657420617420746869732074696d650000000000000000000081525060200191505060405180910390fd5b600160ff168260ff16101580156117705750601560ff168260ff1611155b15156117e4576040517f08c379a00000000000000000000000000000000000000000000000000000000081526004018080602001828103825260188152602001807f62657420706f732073686f756c6420696e205b312c32315d000000000000000081525060200191505060405180910390fd5b6000341180156117f8575064e8d4a5100034105b1515611892576040517f08c379a00000000000000000000000000000000000000000000000000000000081526004018080602001828103825260238152602001807f6265742076616c75652073686f756c6420696e205b312c31303030303030207481526020017f72785d000000000000000000000000000000000000000000000000000000000081525060400191505060405180910390fd5b60066060604051908101604052803373ffffffffffffffffffffffffffffffffffffffff1681526020018460ff168152602001348152509080600181540180825580915050906001820390600052602060002090600202016000909192909190915060008201518160000160006101000a81548173ffffffffffffffffffffffffffffffffffffffff021916908373ffffffffffffffffffffffffffffffffffffffff16021790555060208201518160000160146101000a81548160ff021916908360ff160217905550604082015181600101555050503373ffffffffffffffffffffffffffffffffffffffff167f063f4540040cf99a22f577ef321c170763020e6277e47275ed9b3d17ec14e13d348442604051808481526020018360ff168152602001828152602001935050505060405180910390a2600090505b600780549050811015611a5b573373ffffffffffffffffffffffffffffffffffffffff16600782815481101515611a0257fe5b9060005260206000200160009054906101000a900473ffffffffffffffffffffffffffffffffffffffff1673ffffffffffffffffffffffffffffffffffffffff161415611a4e57611b1f565b80806001019150506119cf565b6032600860009054906101000a900460ff1660ff161415611a93576000600860006101000a81548160ff021916908360ff1602179055505b3360076008600081819054906101000a900460ff168092919060010191906101000a81548160ff021916908360ff16021790555060ff16815481101515611ad657fe5b9060005260206000200160006101000a81548173ffffffffffffffffffffffffffffffffffffffff021916908373ffffffffffffffffffffffffffffffffffffffff1602179055505b5050565b611b2b61108c565b1515611b3657600080fd5b611b3f81612470565b50565b600260009054906101000a900473ffffffffffffffffffffffffffffffffffffffff1681565b60016020528060005260406000206000915054906101000a900463ffffffff1681565b611b9361108c565b1515611b9e57600080fd5b80600560006101000a81548173ffffffffffffffffffffffffffffffffffffffff021916908373ffffffffffffffffffffffffffffffffffffffff16021790555050565b611bea61108c565b1515611bf557600080fd5b80600460006101000a81548173ffffffffffffffffffffffffffffffffffffffff021916908373ffffffffffffffffffffffffffffffffffffffff16021790555050565b600080600080606060006001600660024433426001604051602001808581526020018473ffffffffffffffffffffffffffffffffffffffff1673ffffffffffffffffffffffffffffffffffffffff166c010000000000000000000000000281526014018381526020018260ff1660ff167f01000000000000000000000000000000000000000000000000000000000000000281526001019450505050506040516020818303038152906040526040518082805190602001908083835b602083101515611d1a5780518252602082019150602081019050602083039250611cf5565b6001836020036101000a0380198251168184511680821785525050505050509050019150506020604051808303816000865af1158015611d5e573d6000803e3d6000fd5b5050506040513d6020811015611d7357600080fd5b81019080805190602001909291905050506001900460ff16811515611d9457fe5b06019550600160066002443342600b604051602001808581526020018473ffffffffffffffffffffffffffffffffffffffff1673ffffffffffffffffffffffffffffffffffffffff166c010000000000000000000000000281526014018381526020018260ff1660ff167f01000000000000000000000000000000000000000000000000000000000000000281526001019450505050506040516020818303038152906040526040518082805190602001908083835b602083101515611e6f5780518252602082019150602081019050602083039250611e4a565b6001836020036101000a0380198251168184511680821785525050505050509050019150506020604051808303816000865af1158015611eb3573d6000803e3d6000fd5b5050506040513d6020811015611ec857600080fd5b81019080805190602001909291905050506001900460ff16811515611ee957fe5b06019450600160066002443342606f604051602001808581526020018473ffffffffffffffffffffffffffffffffffffffff1673ffffffffffffffffffffffffffffffffffffffff166c010000000000000000000000000281526014018381526020018260ff1660ff167f01000000000000000000000000000000000000000000000000000000000000000281526001019450505050506040516020818303038152906040526040518082805190602001908083835b602083101515611fc45780518252602082019150602081019050602083039250611f9f565b6001836020036101000a0380198251168184511680821785525050505050509050019150506020604051808303816000865af1158015612008573d6000803e3d6000fd5b5050506040513d602081101561201d57600080fd5b81019080805190602001909291905050506001900460ff1681151561203e57fe5b060193508385870101925060046040519080825280602002602001820160405280156120795781602001602082028038833980820191505090505b5091506000905060048360ff16101580156120985750600a8360ff1611155b156120d1576001828280600101935060ff168151811015156120b657fe5b9060200190602002019060ff16908160ff168152505061211f565b600b8360ff16101580156120e9575060118360ff1611155b1561211e576004828280600101935060ff1681518110151561210757fe5b9060200190602002019060ff16908160ff16815250505b5b60058360ff161480612134575060078360ff16145b80612142575060098360ff16145b806121505750600b8360ff16145b8061215e5750600d8360ff16145b8061216c5750600f8360ff16145b8061217a575060118360ff16145b156121b3576002828280600101935060ff1681518110151561219857fe5b9060200190602002019060ff16908160ff1681525050612244565b60048360ff1614806121c8575060068360ff16145b806121d6575060088360ff16145b806121e45750600a8360ff16145b806121f25750600c8360ff16145b806122005750600e8360ff16145b8061220e575060108360ff16145b15612243576003828280600101935060ff1681518110151561222c57fe5b9060200190602002019060ff16908160ff16815250505b5b8460ff168660ff1614801561225e57508360ff168560ff16145b15612414576007828280600101935060ff1681518110151561227c57fe5b9060200190602002019060ff16908160ff168152505060018660ff1614156122d2576001828280600101935060ff168151811015156122b757fe5b9060200190602002019060ff16908160ff1681525050612413565b60028660ff161415612312576002828280600101935060ff168151811015156122f757fe5b9060200190602002019060ff16908160ff1681525050612412565b60038660ff161415612352576003828280600101935060ff1681518110151561233757fe5b9060200190602002019060ff16908160ff1681525050612411565b60048660ff161415612392576004828280600101935060ff1681518110151561237757fe5b9060200190602002019060ff16908160ff1681525050612410565b60058660ff1614156123d2576005828280600101935060ff168151811015156123b757fe5b9060200190602002019060ff16908160ff168152505061240f565b60068660ff16141561240e576006828280600101935060ff168151811015156123f757fe5b9060200190602002019060ff16908160ff16815250505b5b5b5b5b5b5b61241d82610c3f565b505050505050565b60008060008311151561243757600080fd5b828481151561244257fe5b0490508091505092915050565b60008083831115151561246157600080fd5b82840390508091505092915050565b600073ffffffffffffffffffffffffffffffffffffffff168173ffffffffffffffffffffffffffffffffffffffff16141515156124ac57600080fd5b8073ffffffffffffffffffffffffffffffffffffffff166000809054906101000a900473ffffffffffffffffffffffffffffffffffffffff1673ffffffffffffffffffffffffffffffffffffffff167f8be0079c531659141344cd1fd0a4f28419497f9722a3daafe3b4186f6b6457e060405160405180910390a3806000806101000a81548173ffffffffffffffffffffffffffffffffffffffff021916908373ffffffffffffffffffffffffffffffffffffffff16021790555050565b606060405190810160405280600073ffffffffffffffffffffffffffffffffffffffff168152602001600060ff168152602001600081525090565b8154818355818111156125d2576002028160020283600052602060002091820191016125d191906125d7565b5b505050565b61263691905b8082111561263257600080820160006101000a81549073ffffffffffffffffffffffffffffffffffffffff02191690556000820160146101000a81549060ff02191690556001820160009055506002016125dd565b5090565b905600a165627a7a7230582072ff959cff33842e3d8ef9c090d78a75ba3485da72356715eaae2fd6934c608c0029",
  "source": "pragma solidity ^0.4.23;\n\n\nimport \"./openzeppelin-solidity/contracts/ownership/Ownable.sol\";\nimport \"./openzeppelin-solidity/contracts/math/SafeMath.sol\";\nimport \"./openzeppelin-solidity/contracts/token/ERC20/IERC20.sol\";\n\n\ncontract Sicbo is Ownable {\n    using SafeMath for uint256;\n    // 5600\n    uint256 constant CAP_MINING_TOKEN = 5600000000;\n    uint256 constant MININGREWARD = 10;\n    uint256 constant MININGFALLOFF = 1;\n    uint256 constant DECIMALS = 6;\n    /**/\n    uint8 constant SMALL = 1;//\n    uint8 constant ODD = 2;//\n    uint8 constant EVEN = 3;//\n    uint8 constant BIG = 4;//\n    uint8 constant THREE_1 = 1;//1\n    uint8 constant THREE_2 = 2;//2\n    uint8 constant THREE_3 = 3;//3\n    uint8 constant THREE_4 = 4;//4\n    uint8 constant THREE_5 = 5;//5\n    uint8 constant THREE_6 = 6;//6\n    uint8 constant THREE_SAME = 7;//\n    uint8 constant SUM_4 = 8;\n    uint8 constant SUM_5 = 9;\n    uint8 constant SUM_6 = 10;\n    uint8 constant SUM_7 = 11;\n    uint8 constant SUM_8 = 12;\n    uint8 constant SUM_9 = 13;\n    uint8 constant SUM_10 = 14;\n    uint8 constant SUM_11 = 15;\n    uint8 constant SUM_12 = 16;\n    uint8 constant SUM_13 = 17;\n    uint8 constant SUM_14 = 18;\n    uint8 constant SUM_15 = 19;\n    uint8 constant SUM_16 = 20;\n    uint8 constant SUM_17 = 21;\n    /**/\n    mapping(uint8 => uint32) public BET_POS_MULTIPLE;\n\n    constructor (address _craft, address _minerCFTAddr) public {\n        craftToken = IERC20(_craft);\n        minerCFTAddr = _minerCFTAddr;\n        BET_POS_MULTIPLE[SMALL] = 1;\n        BET_POS_MULTIPLE[ODD] = 1;\n        BET_POS_MULTIPLE[EVEN] = 1;\n        BET_POS_MULTIPLE[BIG] = 1;\n        BET_POS_MULTIPLE[THREE_1] = 150;\n        BET_POS_MULTIPLE[THREE_2] = 150;\n        BET_POS_MULTIPLE[THREE_3] = 150;\n        BET_POS_MULTIPLE[THREE_4] = 150;\n        BET_POS_MULTIPLE[THREE_5] = 150;\n        BET_POS_MULTIPLE[THREE_6] = 150;\n        BET_POS_MULTIPLE[THREE_SAME] = 24;\n        BET_POS_MULTIPLE[SUM_4] = 50;\n        BET_POS_MULTIPLE[SUM_5] = 18;\n        BET_POS_MULTIPLE[SUM_6] = 14;\n        BET_POS_MULTIPLE[SUM_7] = 12;\n        BET_POS_MULTIPLE[SUM_8] = 8;\n        BET_POS_MULTIPLE[SUM_9] = 6;\n        BET_POS_MULTIPLE[SUM_10] = 6;\n        BET_POS_MULTIPLE[SUM_11] = 6;\n        BET_POS_MULTIPLE[SUM_12] = 6;\n        BET_POS_MULTIPLE[SUM_13] = 8;\n        BET_POS_MULTIPLE[SUM_14] = 12;\n        BET_POS_MULTIPLE[SUM_15] = 14;\n        BET_POS_MULTIPLE[SUM_16] = 18;\n        BET_POS_MULTIPLE[SUM_17] = 50;\n    }\n\n    function destroy() public onlyOwner {\n        craftToken.renounceContracter();\n        transferTRXToTeam(address(this).balance);\n        transferCFTToTeam(craftToken.balanceOf(address(this)));\n        selfdestruct(team);\n    }\n\n\n    address public minerCFTAddr;\n\n    IERC20 craftToken;\n\n    address public team;\n\n    address public teamCFT;\n\n    function updateTeamAddr(address _addr) onlyOwner public {\n        team = _addr;\n    }\n\n    function updateTeamCFTAddr(address _addr) onlyOwner public {\n        teamCFT = _addr;\n    }\n\n    function transferTRXToTeam(uint256 _amount) onlyOwner public {\n        team.transfer(_amount * 1 sun);\n    }\n\n    function transferCFTToTeam(uint256 _amount) onlyOwner public {\n        craftToken.transfer(teamCFT, _amount);\n    }\n\n    function updateMinerCFTAddr(address _addr) onlyOwner public {\n        minerCFTAddr = _addr;\n    }\n\n    event LogBet(address indexed userAddr, uint256 betMoney, uint256 betPos, uint256 timeStamp);\n\n    event Lottery(address indexed userAddr, uint256 timeStamp);\n\n    struct Bet {\n        address user;\n        uint8 betPos;\n        uint betAmount;\n    }\n\n    function curCFTReward() public view returns (uint256) {\n        uint256 curMiningToken = CAP_MINING_TOKEN.sub(craftToken.balanceOf(minerCFTAddr).div(10 ** DECIMALS));\n        if (curMiningToken < 600000000) {\n            return MININGREWARD;\n        } else if (curMiningToken < 1600000000) {\n            return MININGREWARD - MININGFALLOFF;\n        } else if (curMiningToken < 2600000000) {\n            return MININGREWARD - MININGFALLOFF * 2;\n        } else if (curMiningToken < 3600000000) {\n            return MININGREWARD - MININGFALLOFF * 3;\n        } else if (curMiningToken < 4600000000) {\n            return MININGREWARD - MININGFALLOFF * 4;\n        } else if (curMiningToken < CAP_MINING_TOKEN) {\n            return MININGREWARD - MININGFALLOFF * 5;\n        } else {\n            return 0;\n        }\n    }\n    /**/\n    Bet[] betList;\n    /**/\n    address[] recentAddressList;\n    /**/\n    uint8 recentAddressCursor;\n    /*false*/\n    bool running;\n\n    function getRunning() public view returns (bool){\n        return running;\n    }\n\n    function betStart() public onlyOwner {\n        running = true;\n    }\n\n    function betStop() public onlyOwner {\n        running = false;\n    }\n\n    /*\n    \n    */\n    function bet(uint8 betPos) payable public {\n        require(running, \"can't bet at this time\");\n        require(betPos >= SMALL && betPos <= SUM_17, \"bet pos should in [1,21]\");\n        require(msg.value > 0 && msg.value < 1000000000000, \"bet value should in [1,1000000 trx]\");\n        betList.push(Bet({user : msg.sender, betPos : betPos, betAmount : msg.value}));\n        emit LogBet(msg.sender, msg.value, betPos, now);\n        for (uint i = 0; i < recentAddressList.length; i++) {\n            if (recentAddressList[i] == msg.sender) {\n                return;\n            }\n        }\n        if (recentAddressCursor == 50) {\n            recentAddressCursor = uint8(0);\n        }\n        recentAddressList[recentAddressCursor++] = msg.sender;\n        return;\n    }\n\n    function getLotteryUserList() public view returns (address[]){\n        return recentAddressList;\n    }\n\n    /*\n    \n    */\n    function open() public {\n        uint8 diceA = uint8(sha256(abi.encodePacked(block.difficulty, msg.sender, block.timestamp, uint8(1)))) % 6 + 1;\n        uint8 diceB = uint8(sha256(abi.encodePacked(block.difficulty, msg.sender, block.timestamp, uint8(11)))) % 6 + 1;\n        uint8 diceC = uint8(sha256(abi.encodePacked(block.difficulty, msg.sender, block.timestamp, uint8(111)))) % 6 + 1;\n        uint8 sum = diceA + diceB + diceC;\n        //11\n        uint8[] memory results = new uint8[](4);\n        uint8 cursor = 0;\n        if (sum >= 4 && sum <= 10) {\n            results[cursor++] = SMALL;\n        }\n        //11\n        else if (sum >= 11 && sum <= 17) {\n            results[cursor++] = BIG;\n        }\n        //\n        if (sum == 5 || sum == 7 || sum == 9 || sum == 11 || sum == 13 || sum == 15 || sum == 17) {\n            results[cursor++] = ODD;\n        }\n        //\n        else if (sum == 4 || sum == 6 || sum == 8 || sum == 10 || sum == 12 || sum == 14 || sum == 16) {\n            results[cursor++] = EVEN;\n        }\n        //1150\n        if (diceA == diceB && diceB == diceC) {\n            results[cursor++] = THREE_SAME;\n            if (diceA == 1) {\n                results[cursor++] = THREE_1;\n            } else if (diceA == 2) {\n                results[cursor++] = THREE_2;\n            } else if (diceA == 3) {\n                results[cursor++] = THREE_3;\n            } else if (diceA == 4) {\n                results[cursor++] = THREE_4;\n            } else if (diceA == 5) {\n                results[cursor++] = THREE_5;\n            } else if (diceA == 6) {\n                results[cursor++] = THREE_6;\n            }\n        }\n        sendAward(results);\n    }\n\n    /**/\n    function lotteryOpen(uint count) public onlyOwner {\n        address[] memory winners = new address[](count);\n        uint idx = 0;\n        while (true) {\n            bool duplicate = false;\n            uint8 random = uint8(sha256(abi.encodePacked(block.difficulty, msg.sender, block.timestamp, uint8(111)))) % uint8(recentAddressList.length);\n            for (uint8 i = 0; i < winners.length; i++) {\n                if (winners[i] == recentAddressList[random]) {\n                    duplicate = true;\n                    break;\n                }\n            }\n            if (!duplicate) {\n                winners[idx++] = recentAddressList[random];\n                if (idx >= count) {\n                    for (uint8 j = 0; j < winners.length; j++) {\n                        emit Lottery(winners[j], now);\n                    }\n                }\n            }\n        }\n    }\n\n    /**/\n    function sendAward(uint8[] results) public payable {\n        uint totalToPay;\n        for (uint i = 0; i < results.length; i++)\n        {\n            uint8 winPos = results[i];\n            for (uint j = 0; j < betList.length; j++)\n            {\n                Bet memory userBet = betList[j];\n                if (winPos == userBet.betPos) {\n                    uint win = userBet.betAmount + userBet.betAmount * BET_POS_MULTIPLE[userBet.betPos];\n                    totalToPay += win;\n                }\n            }\n        }\n        require(totalToPay <= address(this).balance, \"not enough money to pay\");\n        for (uint x = 0; x < results.length; x++)\n        {\n            uint8 winPos1 = results[x];\n            for (uint y = 0; y < betList.length; y++)\n            {\n                Bet memory userBet1 = betList[y];\n                if (winPos1 == userBet1.betPos) {\n                    uint win1 = userBet1.betAmount + userBet1.betAmount * BET_POS_MULTIPLE[userBet1.betPos];\n                    emit LogBet(userBet1.user, win1, userBet1.betPos, now);\n                    msg.sender.transfer(win1 * 1 sun);\n                }\n            }\n        }\n        betList.length = 0;\n    }\n}",
  "sourcePath": "/Users/yhw/Workspace/rockgame/tronCraft/contracts/Sicbo.sol",
  "compiler": {
    "name": "solc",
    "version": "0.4.24-develop.2018.8.28+commit.3ba0cdec.mod.Emscripten.clang"
  },
  "schemaVersion": "2.0.1",
  "updatedAt": "2018-12-21T09:28:01.451Z"
}